{
	"contracts/weekly-tasks/level2/t5/StorageExample4.sol": {
		"StorageExample4": {
			"abi": [
				{
					"inputs": [
						{
							"internalType": "uint256",
							"name": "",
							"type": "uint256"
						}
					],
					"name": "a",
					"outputs": [
						{
							"internalType": "uint16",
							"name": "",
							"type": "uint16"
						}
					],
					"stateMutability": "view",
					"type": "function"
				},
				{
					"inputs": [
						{
							"internalType": "uint256",
							"name": "",
							"type": "uint256"
						}
					],
					"name": "b",
					"outputs": [
						{
							"internalType": "uint256",
							"name": "",
							"type": "uint256"
						}
					],
					"stateMutability": "view",
					"type": "function"
				}
			],
			"devdoc": {
				"kind": "dev",
				"methods": {},
				"version": 1
			},
			"evm": {
				"assembly": "    /* \"contracts/weekly-tasks/level2/t5/StorageExample4.sol\":57:188  contract StorageExample4 {... */\n  mstore(0x40, 0x80)\n    /* \"contracts/weekly-tasks/level2/t5/StorageExample4.sol\":88:133  uint16[] public a = [401, 402, 403, 405, 406] */\n  mload(0x40)\n  dup1\n  0xa0\n  add\n  0x40\n  mstore\n  dup1\n    /* \"contracts/weekly-tasks/level2/t5/StorageExample4.sol\":109:112  401 */\n  0x0191\n    /* \"contracts/weekly-tasks/level2/t5/StorageExample4.sol\":88:133  uint16[] public a = [401, 402, 403, 405, 406] */\n  0xffff\n  and\n  dup2\n  mstore\n  0x20\n  add\n    /* \"contracts/weekly-tasks/level2/t5/StorageExample4.sol\":114:117  402 */\n  0x0192\n    /* \"contracts/weekly-tasks/level2/t5/StorageExample4.sol\":88:133  uint16[] public a = [401, 402, 403, 405, 406] */\n  0xffff\n  and\n  dup2\n  mstore\n  0x20\n  add\n    /* \"contracts/weekly-tasks/level2/t5/StorageExample4.sol\":119:122  403 */\n  0x0193\n    /* \"contracts/weekly-tasks/level2/t5/StorageExample4.sol\":88:133  uint16[] public a = [401, 402, 403, 405, 406] */\n  0xffff\n  and\n  dup2\n  mstore\n  0x20\n  add\n    /* \"contracts/weekly-tasks/level2/t5/StorageExample4.sol\":124:127  405 */\n  0x0195\n    /* \"contracts/weekly-tasks/level2/t5/StorageExample4.sol\":88:133  uint16[] public a = [401, 402, 403, 405, 406] */\n  0xffff\n  and\n  dup2\n  mstore\n  0x20\n  add\n    /* \"contracts/weekly-tasks/level2/t5/StorageExample4.sol\":129:132  406 */\n  0x0196\n    /* \"contracts/weekly-tasks/level2/t5/StorageExample4.sol\":88:133  uint16[] public a = [401, 402, 403, 405, 406] */\n  0xffff\n  and\n  dup2\n  mstore\n  pop\n  0x00\n  swap1\n  0x05\n  tag_1\n  swap3\n  swap2\n  swap1\n  tag_2\n  jump\t// in\ntag_1:\n  pop\n    /* \"contracts/weekly-tasks/level2/t5/StorageExample4.sol\":139:185  uint256[] public b = [401, 402, 403, 405, 406] */\n  mload(0x40)\n  dup1\n  0xa0\n  add\n  0x40\n  mstore\n  dup1\n    /* \"contracts/weekly-tasks/level2/t5/StorageExample4.sol\":161:164  401 */\n  0x0191\n    /* \"contracts/weekly-tasks/level2/t5/StorageExample4.sol\":139:185  uint256[] public b = [401, 402, 403, 405, 406] */\n  0xffff\n  and\n  dup2\n  mstore\n  0x20\n  add\n    /* \"contracts/weekly-tasks/level2/t5/StorageExample4.sol\":166:169  402 */\n  0x0192\n    /* \"contracts/weekly-tasks/level2/t5/StorageExample4.sol\":139:185  uint256[] public b = [401, 402, 403, 405, 406] */\n  0xffff\n  and\n  dup2\n  mstore\n  0x20\n  add\n    /* \"contracts/weekly-tasks/level2/t5/StorageExample4.sol\":171:174  403 */\n  0x0193\n    /* \"contracts/weekly-tasks/level2/t5/StorageExample4.sol\":139:185  uint256[] public b = [401, 402, 403, 405, 406] */\n  0xffff\n  and\n  dup2\n  mstore\n  0x20\n  add\n    /* \"contracts/weekly-tasks/level2/t5/StorageExample4.sol\":176:179  405 */\n  0x0195\n    /* \"contracts/weekly-tasks/level2/t5/StorageExample4.sol\":139:185  uint256[] public b = [401, 402, 403, 405, 406] */\n  0xffff\n  and\n  dup2\n  mstore\n  0x20\n  add\n    /* \"contracts/weekly-tasks/level2/t5/StorageExample4.sol\":181:184  406 */\n  0x0196\n    /* \"contracts/weekly-tasks/level2/t5/StorageExample4.sol\":139:185  uint256[] public b = [401, 402, 403, 405, 406] */\n  0xffff\n  and\n  dup2\n  mstore\n  pop\n  0x01\n  swap1\n  0x05\n  tag_3\n  swap3\n  swap2\n  swap1\n  tag_4\n  jump\t// in\ntag_3:\n  pop\n    /* \"contracts/weekly-tasks/level2/t5/StorageExample4.sol\":57:188  contract StorageExample4 {... */\n  callvalue\n  dup1\n  iszero\n  tag_5\n  jumpi\n  0x00\n  dup1\n  revert\ntag_5:\n  pop\n  jump(tag_6)\ntag_2:\n  dup3\n  dup1\n  sload\n  dup3\n  dup3\n  sstore\n  swap1\n  0x00\n  mstore\n  keccak256(0x00, 0x20)\n  swap1\n  0x0f\n  add\n  0x10\n  swap1\n  div\n  dup2\n  add\n  swap3\n  dup3\n  iszero\n  tag_7\n  jumpi\n  swap2\n  0x20\n  mul\n  dup3\n  add\n  0x00\ntag_8:\n  dup4\n  dup3\n  gt\n  iszero\n  tag_9\n  jumpi\n  dup4\n  mload\n  dup4\n  dup3\n  0x0100\n  exp\n  dup2\n  sload\n  dup2\n  0xffff\n  mul\n  not\n  and\n  swap1\n  dup4\n  0xffff\n  and\n  mul\n  or\n  swap1\n  sstore\n  pop\n  swap3\n  0x20\n  add\n  swap3\n  0x02\n  add\n  0x20\n  dup2\n  0x01\n  add\n  div\n  swap3\n  dup4\n  add\n  swap3\n  0x01\n  sub\n  mul\n  jump(tag_8)\ntag_9:\n  dup1\n  iszero\n  tag_10\n  jumpi\n  dup3\n  dup2\n  0x0100\n  exp\n  dup2\n  sload\n  swap1\n  0xffff\n  mul\n  not\n  and\n  swap1\n  sstore\n  0x02\n  add\n  0x20\n  dup2\n  0x01\n  add\n  div\n  swap3\n  dup4\n  add\n  swap3\n  0x01\n  sub\n  mul\n  jump(tag_9)\ntag_10:\n  pop\ntag_7:\n  pop\n  swap1\n  pop\n  tag_11\n  swap2\n  swap1\n  tag_12\n  jump\t// in\ntag_11:\n  pop\n  swap1\n  jump\t// out\ntag_4:\n  dup3\n  dup1\n  sload\n  dup3\n  dup3\n  sstore\n  swap1\n  0x00\n  mstore\n  keccak256(0x00, 0x20)\n  swap1\n  dup2\n  add\n  swap3\n  dup3\n  iszero\n  tag_13\n  jumpi\n  swap2\n  0x20\n  mul\n  dup3\n  add\ntag_14:\n  dup3\n  dup2\n  gt\n  iszero\n  tag_15\n  jumpi\n  dup3\n  mload\n  dup3\n  swap1\n  0xffff\n  and\n  swap1\n  sstore\n  swap2\n  0x20\n  add\n  swap2\n  swap1\n  0x01\n  add\n  swap1\n  jump(tag_14)\ntag_15:\ntag_13:\n  pop\n  swap1\n  pop\n  tag_16\n  swap2\n  swap1\n  tag_12\n  jump\t// in\ntag_16:\n  pop\n  swap1\n  jump\t// out\ntag_12:\ntag_17:\n  dup1\n  dup3\n  gt\n  iszero\n  tag_18\n  jumpi\n  0x00\n  dup2\n  0x00\n  swap1\n  sstore\n  pop\n  0x01\n  add\n  jump(tag_17)\ntag_18:\n  pop\n  swap1\n  jump\t// out\ntag_6:\n  dataSize(sub_0)\n  dup1\n  dataOffset(sub_0)\n  0x00\n  codecopy\n  0x00\n  return\nstop\n\nsub_0: assembly {\n        /* \"contracts/weekly-tasks/level2/t5/StorageExample4.sol\":57:188  contract StorageExample4 {... */\n      mstore(0x40, 0x80)\n      callvalue\n      dup1\n      iszero\n      tag_1\n      jumpi\n      0x00\n      dup1\n      revert\n    tag_1:\n      pop\n      jumpi(tag_2, lt(calldatasize, 0x04))\n      shr(0xe0, calldataload(0x00))\n      dup1\n      0xcd580ff3\n      eq\n      tag_3\n      jumpi\n      dup1\n      0xf0fdf834\n      eq\n      tag_4\n      jumpi\n    tag_2:\n      0x00\n      dup1\n      revert\n        /* \"contracts/weekly-tasks/level2/t5/StorageExample4.sol\":139:185  uint256[] public b = [401, 402, 403, 405, 406] */\n    tag_3:\n      tag_5\n      0x04\n      dup1\n      calldatasize\n      sub\n      dup2\n      add\n      swap1\n      tag_6\n      swap2\n      swap1\n      tag_7\n      jump\t// in\n    tag_6:\n      tag_8\n      jump\t// in\n    tag_5:\n      mload(0x40)\n      tag_9\n      swap2\n      swap1\n      tag_10\n      jump\t// in\n    tag_9:\n      mload(0x40)\n      dup1\n      swap2\n      sub\n      swap1\n      return\n        /* \"contracts/weekly-tasks/level2/t5/StorageExample4.sol\":88:133  uint16[] public a = [401, 402, 403, 405, 406] */\n    tag_4:\n      tag_11\n      0x04\n      dup1\n      calldatasize\n      sub\n      dup2\n      add\n      swap1\n      tag_12\n      swap2\n      swap1\n      tag_7\n      jump\t// in\n    tag_12:\n      tag_13\n      jump\t// in\n    tag_11:\n      mload(0x40)\n      tag_14\n      swap2\n      swap1\n      tag_15\n      jump\t// in\n    tag_14:\n      mload(0x40)\n      dup1\n      swap2\n      sub\n      swap1\n      return\n        /* \"contracts/weekly-tasks/level2/t5/StorageExample4.sol\":139:185  uint256[] public b = [401, 402, 403, 405, 406] */\n    tag_8:\n      0x01\n      dup2\n      dup2\n      sload\n      dup2\n      lt\n      tag_16\n      jumpi\n      0x00\n      dup1\n      revert\n    tag_16:\n      swap1\n      0x00\n      mstore\n      keccak256(0x00, 0x20)\n      add\n      0x00\n      swap2\n      pop\n      swap1\n      pop\n      sload\n      dup2\n      jump\t// out\n        /* \"contracts/weekly-tasks/level2/t5/StorageExample4.sol\":88:133  uint16[] public a = [401, 402, 403, 405, 406] */\n    tag_13:\n      0x00\n      dup2\n      dup2\n      sload\n      dup2\n      lt\n      tag_18\n      jumpi\n      0x00\n      dup1\n      revert\n    tag_18:\n      swap1\n      0x00\n      mstore\n      keccak256(0x00, 0x20)\n      swap1\n      0x10\n      swap2\n      dup3\n      dup3\n      div\n      add\n      swap2\n      swap1\n      mod\n      0x02\n      mul\n      swap2\n      pop\n      sload\n      swap1\n      0x0100\n      exp\n      swap1\n      div\n      0xffff\n      and\n      dup2\n      jump\t// out\n        /* \"#utility.yul\":88:205   */\n    tag_21:\n        /* \"#utility.yul\":197:198   */\n      0x00\n        /* \"#utility.yul\":194:195   */\n      dup1\n        /* \"#utility.yul\":187:199   */\n      revert\n        /* \"#utility.yul\":334:411   */\n    tag_23:\n        /* \"#utility.yul\":371:378   */\n      0x00\n        /* \"#utility.yul\":400:405   */\n      dup2\n        /* \"#utility.yul\":389:405   */\n      swap1\n      pop\n        /* \"#utility.yul\":334:411   */\n      swap2\n      swap1\n      pop\n      jump\t// out\n        /* \"#utility.yul\":417:539   */\n    tag_24:\n        /* \"#utility.yul\":490:514   */\n      tag_35\n        /* \"#utility.yul\":508:513   */\n      dup2\n        /* \"#utility.yul\":490:514   */\n      tag_23\n      jump\t// in\n    tag_35:\n        /* \"#utility.yul\":483:488   */\n      dup2\n        /* \"#utility.yul\":480:515   */\n      eq\n        /* \"#utility.yul\":470:533   */\n      tag_36\n      jumpi\n        /* \"#utility.yul\":529:530   */\n      0x00\n        /* \"#utility.yul\":526:527   */\n      dup1\n        /* \"#utility.yul\":519:531   */\n      revert\n        /* \"#utility.yul\":470:533   */\n    tag_36:\n        /* \"#utility.yul\":417:539   */\n      pop\n      jump\t// out\n        /* \"#utility.yul\":545:684   */\n    tag_25:\n        /* \"#utility.yul\":591:596   */\n      0x00\n        /* \"#utility.yul\":629:635   */\n      dup2\n        /* \"#utility.yul\":616:636   */\n      calldataload\n        /* \"#utility.yul\":607:636   */\n      swap1\n      pop\n        /* \"#utility.yul\":645:678   */\n      tag_38\n        /* \"#utility.yul\":672:677   */\n      dup2\n        /* \"#utility.yul\":645:678   */\n      tag_24\n      jump\t// in\n    tag_38:\n        /* \"#utility.yul\":545:684   */\n      swap3\n      swap2\n      pop\n      pop\n      jump\t// out\n        /* \"#utility.yul\":690:1019   */\n    tag_7:\n        /* \"#utility.yul\":749:755   */\n      0x00\n        /* \"#utility.yul\":798:800   */\n      0x20\n        /* \"#utility.yul\":786:795   */\n      dup3\n        /* \"#utility.yul\":777:784   */\n      dup5\n        /* \"#utility.yul\":773:796   */\n      sub\n        /* \"#utility.yul\":769:801   */\n      slt\n        /* \"#utility.yul\":766:885   */\n      iszero\n      tag_40\n      jumpi\n        /* \"#utility.yul\":804:883   */\n      tag_41\n      tag_21\n      jump\t// in\n    tag_41:\n        /* \"#utility.yul\":766:885   */\n    tag_40:\n        /* \"#utility.yul\":924:925   */\n      0x00\n        /* \"#utility.yul\":949:1002   */\n      tag_42\n        /* \"#utility.yul\":994:1001   */\n      dup5\n        /* \"#utility.yul\":985:991   */\n      dup3\n        /* \"#utility.yul\":974:983   */\n      dup6\n        /* \"#utility.yul\":970:992   */\n      add\n        /* \"#utility.yul\":949:1002   */\n      tag_25\n      jump\t// in\n    tag_42:\n        /* \"#utility.yul\":939:1002   */\n      swap2\n      pop\n        /* \"#utility.yul\":895:1012   */\n      pop\n        /* \"#utility.yul\":690:1019   */\n      swap3\n      swap2\n      pop\n      pop\n      jump\t// out\n        /* \"#utility.yul\":1025:1143   */\n    tag_26:\n        /* \"#utility.yul\":1112:1136   */\n      tag_44\n        /* \"#utility.yul\":1130:1135   */\n      dup2\n        /* \"#utility.yul\":1112:1136   */\n      tag_23\n      jump\t// in\n    tag_44:\n        /* \"#utility.yul\":1107:1110   */\n      dup3\n        /* \"#utility.yul\":1100:1137   */\n      mstore\n        /* \"#utility.yul\":1025:1143   */\n      pop\n      pop\n      jump\t// out\n        /* \"#utility.yul\":1149:1371   */\n    tag_10:\n        /* \"#utility.yul\":1242:1246   */\n      0x00\n        /* \"#utility.yul\":1280:1282   */\n      0x20\n        /* \"#utility.yul\":1269:1278   */\n      dup3\n        /* \"#utility.yul\":1265:1283   */\n      add\n        /* \"#utility.yul\":1257:1283   */\n      swap1\n      pop\n        /* \"#utility.yul\":1293:1364   */\n      tag_46\n        /* \"#utility.yul\":1361:1362   */\n      0x00\n        /* \"#utility.yul\":1350:1359   */\n      dup4\n        /* \"#utility.yul\":1346:1363   */\n      add\n        /* \"#utility.yul\":1337:1343   */\n      dup5\n        /* \"#utility.yul\":1293:1364   */\n      tag_26\n      jump\t// in\n    tag_46:\n        /* \"#utility.yul\":1149:1371   */\n      swap3\n      swap2\n      pop\n      pop\n      jump\t// out\n        /* \"#utility.yul\":1377:1466   */\n    tag_27:\n        /* \"#utility.yul\":1413:1420   */\n      0x00\n        /* \"#utility.yul\":1453:1459   */\n      0xffff\n        /* \"#utility.yul\":1446:1451   */\n      dup3\n        /* \"#utility.yul\":1442:1460   */\n      and\n        /* \"#utility.yul\":1431:1460   */\n      swap1\n      pop\n        /* \"#utility.yul\":1377:1466   */\n      swap2\n      swap1\n      pop\n      jump\t// out\n        /* \"#utility.yul\":1472:1587   */\n    tag_28:\n        /* \"#utility.yul\":1557:1580   */\n      tag_49\n        /* \"#utility.yul\":1574:1579   */\n      dup2\n        /* \"#utility.yul\":1557:1580   */\n      tag_27\n      jump\t// in\n    tag_49:\n        /* \"#utility.yul\":1552:1555   */\n      dup3\n        /* \"#utility.yul\":1545:1581   */\n      mstore\n        /* \"#utility.yul\":1472:1587   */\n      pop\n      pop\n      jump\t// out\n        /* \"#utility.yul\":1593:1811   */\n    tag_15:\n        /* \"#utility.yul\":1684:1688   */\n      0x00\n        /* \"#utility.yul\":1722:1724   */\n      0x20\n        /* \"#utility.yul\":1711:1720   */\n      dup3\n        /* \"#utility.yul\":1707:1725   */\n      add\n        /* \"#utility.yul\":1699:1725   */\n      swap1\n      pop\n        /* \"#utility.yul\":1735:1804   */\n      tag_51\n        /* \"#utility.yul\":1801:1802   */\n      0x00\n        /* \"#utility.yul\":1790:1799   */\n      dup4\n        /* \"#utility.yul\":1786:1803   */\n      add\n        /* \"#utility.yul\":1777:1783   */\n      dup5\n        /* \"#utility.yul\":1735:1804   */\n      tag_28\n      jump\t// in\n    tag_51:\n        /* \"#utility.yul\":1593:1811   */\n      swap3\n      swap2\n      pop\n      pop\n      jump\t// out\n\n    auxdata: 0xa26469706673582212207aa6ba4c1dd38ddbec8d58ac20e12c75b5cc6166bec0a4afff93aa26f0b0870f64736f6c63430008190033\n}\n",
				"bytecode": {
					"linkReferences": {},
					"object": "60806040526040518060a0016040528061019161ffff16815260200161019261ffff16815260200161019361ffff16815260200161019561ffff16815260200161019661ffff168152505f9060056100589291906100c0565b506040518060a0016040528061019161ffff16815260200161019261ffff16815260200161019361ffff16815260200161019561ffff16815260200161019661ffff1681525060019060056100ae929190610167565b503480156100ba575f80fd5b506101d3565b828054828255905f5260205f2090600f01601090048101928215610156579160200282015f5b8382111561012657835183826101000a81548161ffff021916908361ffff16021790555092602001926002016020816001010492830192600103026100e6565b80156101545782816101000a81549061ffff0219169055600201602081600101049283019260010302610126565b505b50905061016391906101b8565b5090565b828054828255905f5260205f209081019282156101a7579160200282015b828111156101a6578251829061ffff16905591602001919060010190610185565b5b5090506101b491906101b8565b5090565b5b808211156101cf575f815f9055506001016101b9565b5090565b6101e1806101e05f395ff3fe608060405234801561000f575f80fd5b5060043610610034575f3560e01c8063cd580ff314610038578063f0fdf83414610068575b5f80fd5b610052600480360381019061004d9190610123565b610098565b60405161005f919061015d565b60405180910390f35b610082600480360381019061007d9190610123565b6100b8565b60405161008f9190610192565b60405180910390f35b600181815481106100a7575f80fd5b905f5260205f20015f915090505481565b5f81815481106100c6575f80fd5b905f5260205f209060109182820401919006600202915054906101000a900461ffff1681565b5f80fd5b5f819050919050565b610102816100f0565b811461010c575f80fd5b50565b5f8135905061011d816100f9565b92915050565b5f60208284031215610138576101376100ec565b5b5f6101458482850161010f565b91505092915050565b610157816100f0565b82525050565b5f6020820190506101705f83018461014e565b92915050565b5f61ffff82169050919050565b61018c81610176565b82525050565b5f6020820190506101a55f830184610183565b9291505056fea26469706673582212207aa6ba4c1dd38ddbec8d58ac20e12c75b5cc6166bec0a4afff93aa26f0b0870f64736f6c63430008190033",
					"opcodes": "PUSH1 0x80 PUSH1 0x40 MSTORE PUSH1 0x40 MLOAD DUP1 PUSH1 0xA0 ADD PUSH1 0x40 MSTORE DUP1 PUSH2 0x191 PUSH2 0xFFFF AND DUP2 MSTORE PUSH1 0x20 ADD PUSH2 0x192 PUSH2 0xFFFF AND DUP2 MSTORE PUSH1 0x20 ADD PUSH2 0x193 PUSH2 0xFFFF AND DUP2 MSTORE PUSH1 0x20 ADD PUSH2 0x195 PUSH2 0xFFFF AND DUP2 MSTORE PUSH1 0x20 ADD PUSH2 0x196 PUSH2 0xFFFF AND DUP2 MSTORE POP PUSH0 SWAP1 PUSH1 0x5 PUSH2 0x58 SWAP3 SWAP2 SWAP1 PUSH2 0xC0 JUMP JUMPDEST POP PUSH1 0x40 MLOAD DUP1 PUSH1 0xA0 ADD PUSH1 0x40 MSTORE DUP1 PUSH2 0x191 PUSH2 0xFFFF AND DUP2 MSTORE PUSH1 0x20 ADD PUSH2 0x192 PUSH2 0xFFFF AND DUP2 MSTORE PUSH1 0x20 ADD PUSH2 0x193 PUSH2 0xFFFF AND DUP2 MSTORE PUSH1 0x20 ADD PUSH2 0x195 PUSH2 0xFFFF AND DUP2 MSTORE PUSH1 0x20 ADD PUSH2 0x196 PUSH2 0xFFFF AND DUP2 MSTORE POP PUSH1 0x1 SWAP1 PUSH1 0x5 PUSH2 0xAE SWAP3 SWAP2 SWAP1 PUSH2 0x167 JUMP JUMPDEST POP CALLVALUE DUP1 ISZERO PUSH2 0xBA JUMPI PUSH0 DUP1 REVERT JUMPDEST POP PUSH2 0x1D3 JUMP JUMPDEST DUP3 DUP1 SLOAD DUP3 DUP3 SSTORE SWAP1 PUSH0 MSTORE PUSH1 0x20 PUSH0 KECCAK256 SWAP1 PUSH1 0xF ADD PUSH1 0x10 SWAP1 DIV DUP2 ADD SWAP3 DUP3 ISZERO PUSH2 0x156 JUMPI SWAP2 PUSH1 0x20 MUL DUP3 ADD PUSH0 JUMPDEST DUP4 DUP3 GT ISZERO PUSH2 0x126 JUMPI DUP4 MLOAD DUP4 DUP3 PUSH2 0x100 EXP DUP2 SLOAD DUP2 PUSH2 0xFFFF MUL NOT AND SWAP1 DUP4 PUSH2 0xFFFF AND MUL OR SWAP1 SSTORE POP SWAP3 PUSH1 0x20 ADD SWAP3 PUSH1 0x2 ADD PUSH1 0x20 DUP2 PUSH1 0x1 ADD DIV SWAP3 DUP4 ADD SWAP3 PUSH1 0x1 SUB MUL PUSH2 0xE6 JUMP JUMPDEST DUP1 ISZERO PUSH2 0x154 JUMPI DUP3 DUP2 PUSH2 0x100 EXP DUP2 SLOAD SWAP1 PUSH2 0xFFFF MUL NOT AND SWAP1 SSTORE PUSH1 0x2 ADD PUSH1 0x20 DUP2 PUSH1 0x1 ADD DIV SWAP3 DUP4 ADD SWAP3 PUSH1 0x1 SUB MUL PUSH2 0x126 JUMP JUMPDEST POP JUMPDEST POP SWAP1 POP PUSH2 0x163 SWAP2 SWAP1 PUSH2 0x1B8 JUMP JUMPDEST POP SWAP1 JUMP JUMPDEST DUP3 DUP1 SLOAD DUP3 DUP3 SSTORE SWAP1 PUSH0 MSTORE PUSH1 0x20 PUSH0 KECCAK256 SWAP1 DUP2 ADD SWAP3 DUP3 ISZERO PUSH2 0x1A7 JUMPI SWAP2 PUSH1 0x20 MUL DUP3 ADD JUMPDEST DUP3 DUP2 GT ISZERO PUSH2 0x1A6 JUMPI DUP3 MLOAD DUP3 SWAP1 PUSH2 0xFFFF AND SWAP1 SSTORE SWAP2 PUSH1 0x20 ADD SWAP2 SWAP1 PUSH1 0x1 ADD SWAP1 PUSH2 0x185 JUMP JUMPDEST JUMPDEST POP SWAP1 POP PUSH2 0x1B4 SWAP2 SWAP1 PUSH2 0x1B8 JUMP JUMPDEST POP SWAP1 JUMP JUMPDEST JUMPDEST DUP1 DUP3 GT ISZERO PUSH2 0x1CF JUMPI PUSH0 DUP2 PUSH0 SWAP1 SSTORE POP PUSH1 0x1 ADD PUSH2 0x1B9 JUMP JUMPDEST POP SWAP1 JUMP JUMPDEST PUSH2 0x1E1 DUP1 PUSH2 0x1E0 PUSH0 CODECOPY PUSH0 RETURN INVALID PUSH1 0x80 PUSH1 0x40 MSTORE CALLVALUE DUP1 ISZERO PUSH2 0xF JUMPI PUSH0 DUP1 REVERT JUMPDEST POP PUSH1 0x4 CALLDATASIZE LT PUSH2 0x34 JUMPI PUSH0 CALLDATALOAD PUSH1 0xE0 SHR DUP1 PUSH4 0xCD580FF3 EQ PUSH2 0x38 JUMPI DUP1 PUSH4 0xF0FDF834 EQ PUSH2 0x68 JUMPI JUMPDEST PUSH0 DUP1 REVERT JUMPDEST PUSH2 0x52 PUSH1 0x4 DUP1 CALLDATASIZE SUB DUP2 ADD SWAP1 PUSH2 0x4D SWAP2 SWAP1 PUSH2 0x123 JUMP JUMPDEST PUSH2 0x98 JUMP JUMPDEST PUSH1 0x40 MLOAD PUSH2 0x5F SWAP2 SWAP1 PUSH2 0x15D JUMP JUMPDEST PUSH1 0x40 MLOAD DUP1 SWAP2 SUB SWAP1 RETURN JUMPDEST PUSH2 0x82 PUSH1 0x4 DUP1 CALLDATASIZE SUB DUP2 ADD SWAP1 PUSH2 0x7D SWAP2 SWAP1 PUSH2 0x123 JUMP JUMPDEST PUSH2 0xB8 JUMP JUMPDEST PUSH1 0x40 MLOAD PUSH2 0x8F SWAP2 SWAP1 PUSH2 0x192 JUMP JUMPDEST PUSH1 0x40 MLOAD DUP1 SWAP2 SUB SWAP1 RETURN JUMPDEST PUSH1 0x1 DUP2 DUP2 SLOAD DUP2 LT PUSH2 0xA7 JUMPI PUSH0 DUP1 REVERT JUMPDEST SWAP1 PUSH0 MSTORE PUSH1 0x20 PUSH0 KECCAK256 ADD PUSH0 SWAP2 POP SWAP1 POP SLOAD DUP2 JUMP JUMPDEST PUSH0 DUP2 DUP2 SLOAD DUP2 LT PUSH2 0xC6 JUMPI PUSH0 DUP1 REVERT JUMPDEST SWAP1 PUSH0 MSTORE PUSH1 0x20 PUSH0 KECCAK256 SWAP1 PUSH1 0x10 SWAP2 DUP3 DUP3 DIV ADD SWAP2 SWAP1 MOD PUSH1 0x2 MUL SWAP2 POP SLOAD SWAP1 PUSH2 0x100 EXP SWAP1 DIV PUSH2 0xFFFF AND DUP2 JUMP JUMPDEST PUSH0 DUP1 REVERT JUMPDEST PUSH0 DUP2 SWAP1 POP SWAP2 SWAP1 POP JUMP JUMPDEST PUSH2 0x102 DUP2 PUSH2 0xF0 JUMP JUMPDEST DUP2 EQ PUSH2 0x10C JUMPI PUSH0 DUP1 REVERT JUMPDEST POP JUMP JUMPDEST PUSH0 DUP2 CALLDATALOAD SWAP1 POP PUSH2 0x11D DUP2 PUSH2 0xF9 JUMP JUMPDEST SWAP3 SWAP2 POP POP JUMP JUMPDEST PUSH0 PUSH1 0x20 DUP3 DUP5 SUB SLT ISZERO PUSH2 0x138 JUMPI PUSH2 0x137 PUSH2 0xEC JUMP JUMPDEST JUMPDEST PUSH0 PUSH2 0x145 DUP5 DUP3 DUP6 ADD PUSH2 0x10F JUMP JUMPDEST SWAP2 POP POP SWAP3 SWAP2 POP POP JUMP JUMPDEST PUSH2 0x157 DUP2 PUSH2 0xF0 JUMP JUMPDEST DUP3 MSTORE POP POP JUMP JUMPDEST PUSH0 PUSH1 0x20 DUP3 ADD SWAP1 POP PUSH2 0x170 PUSH0 DUP4 ADD DUP5 PUSH2 0x14E JUMP JUMPDEST SWAP3 SWAP2 POP POP JUMP JUMPDEST PUSH0 PUSH2 0xFFFF DUP3 AND SWAP1 POP SWAP2 SWAP1 POP JUMP JUMPDEST PUSH2 0x18C DUP2 PUSH2 0x176 JUMP JUMPDEST DUP3 MSTORE POP POP JUMP JUMPDEST PUSH0 PUSH1 0x20 DUP3 ADD SWAP1 POP PUSH2 0x1A5 PUSH0 DUP4 ADD DUP5 PUSH2 0x183 JUMP JUMPDEST SWAP3 SWAP2 POP POP JUMP INVALID LOG2 PUSH5 0x6970667358 0x22 SLT KECCAK256 PUSH27 0xA6BA4C1DD38DDBEC8D58AC20E12C75B5CC6166BEC0A4AFFF93AA26 CREATE 0xB0 DUP8 0xF PUSH5 0x736F6C6343 STOP ADDMOD NOT STOP CALLER "
				},
				"gasEstimates": {
					"creation": {
						"codeDepositCost": "96200",
						"executionCost": "infinite",
						"totalCost": "infinite"
					},
					"external": {
						"a(uint256)": "6538",
						"b(uint256)": "infinite"
					}
				},
				"methodIdentifiers": {
					"a(uint256)": "f0fdf834",
					"b(uint256)": "cd580ff3"
				}
			},
			"storageLayout": {
				"storage": [
					{
						"astId": 10,
						"contract": "contracts/weekly-tasks/level2/t5/StorageExample4.sol:StorageExample4",
						"label": "a",
						"offset": 0,
						"slot": "0",
						"type": "t_array(t_uint16)dyn_storage"
					},
					{
						"astId": 19,
						"contract": "contracts/weekly-tasks/level2/t5/StorageExample4.sol:StorageExample4",
						"label": "b",
						"offset": 0,
						"slot": "1",
						"type": "t_array(t_uint256)dyn_storage"
					}
				],
				"types": {
					"t_array(t_uint16)dyn_storage": {
						"base": "t_uint16",
						"encoding": "dynamic_array",
						"label": "uint16[]",
						"numberOfBytes": "32"
					},
					"t_array(t_uint256)dyn_storage": {
						"base": "t_uint256",
						"encoding": "dynamic_array",
						"label": "uint256[]",
						"numberOfBytes": "32"
					},
					"t_uint16": {
						"encoding": "inplace",
						"label": "uint16",
						"numberOfBytes": "2"
					},
					"t_uint256": {
						"encoding": "inplace",
						"label": "uint256",
						"numberOfBytes": "32"
					}
				}
			},
			"userdoc": {
				"kind": "user",
				"methods": {},
				"version": 1
			}
		}
	}
}