{
	"data": {
		"bytecode": {
			"linkReferences": {},
			"object": "6080604052600b5f806101000a81548160ff021916908360ff160217905550600c6001556040518060400160405280600d60ff168152602001600e60ff168152506002906002604e929190605e565b503480156059575f80fd5b5060b7565b8260028101928215608f579160200282015b82811115608e578251829060ff169055916020019190600101906070565b5b509050609a9190609e565b5090565b5b8082111560b3575f815f905550600101609f565b5090565b60ba806100c35f395ff3fe6080604052348015600e575f80fd5b50600436106026575f3560e01c80630dbe671f14602a575b5f80fd5b60306044565b604051603b9190606d565b60405180910390f35b5f8054906101000a900460ff1681565b5f60ff82169050919050565b6067816054565b82525050565b5f602082019050607e5f8301846060565b9291505056fea2646970667358221220bbe981038987e9aa3513c0f984601507607aa83cf84ec04cfd3df36a7bfec60c64736f6c63430008190033",
			"opcodes": "PUSH1 0x80 PUSH1 0x40 MSTORE PUSH1 0xB PUSH0 DUP1 PUSH2 0x100 EXP DUP2 SLOAD DUP2 PUSH1 0xFF MUL NOT AND SWAP1 DUP4 PUSH1 0xFF AND MUL OR SWAP1 SSTORE POP PUSH1 0xC PUSH1 0x1 SSTORE PUSH1 0x40 MLOAD DUP1 PUSH1 0x40 ADD PUSH1 0x40 MSTORE DUP1 PUSH1 0xD PUSH1 0xFF AND DUP2 MSTORE PUSH1 0x20 ADD PUSH1 0xE PUSH1 0xFF AND DUP2 MSTORE POP PUSH1 0x2 SWAP1 PUSH1 0x2 PUSH1 0x4E SWAP3 SWAP2 SWAP1 PUSH1 0x5E JUMP JUMPDEST POP CALLVALUE DUP1 ISZERO PUSH1 0x59 JUMPI PUSH0 DUP1 REVERT JUMPDEST POP PUSH1 0xB7 JUMP JUMPDEST DUP3 PUSH1 0x2 DUP2 ADD SWAP3 DUP3 ISZERO PUSH1 0x8F JUMPI SWAP2 PUSH1 0x20 MUL DUP3 ADD JUMPDEST DUP3 DUP2 GT ISZERO PUSH1 0x8E JUMPI DUP3 MLOAD DUP3 SWAP1 PUSH1 0xFF AND SWAP1 SSTORE SWAP2 PUSH1 0x20 ADD SWAP2 SWAP1 PUSH1 0x1 ADD SWAP1 PUSH1 0x70 JUMP JUMPDEST JUMPDEST POP SWAP1 POP PUSH1 0x9A SWAP2 SWAP1 PUSH1 0x9E JUMP JUMPDEST POP SWAP1 JUMP JUMPDEST JUMPDEST DUP1 DUP3 GT ISZERO PUSH1 0xB3 JUMPI PUSH0 DUP2 PUSH0 SWAP1 SSTORE POP PUSH1 0x1 ADD PUSH1 0x9F JUMP JUMPDEST POP SWAP1 JUMP JUMPDEST PUSH1 0xBA DUP1 PUSH2 0xC3 PUSH0 CODECOPY PUSH0 RETURN INVALID PUSH1 0x80 PUSH1 0x40 MSTORE CALLVALUE DUP1 ISZERO PUSH1 0xE JUMPI PUSH0 DUP1 REVERT JUMPDEST POP PUSH1 0x4 CALLDATASIZE LT PUSH1 0x26 JUMPI PUSH0 CALLDATALOAD PUSH1 0xE0 SHR DUP1 PUSH4 0xDBE671F EQ PUSH1 0x2A JUMPI JUMPDEST PUSH0 DUP1 REVERT JUMPDEST PUSH1 0x30 PUSH1 0x44 JUMP JUMPDEST PUSH1 0x40 MLOAD PUSH1 0x3B SWAP2 SWAP1 PUSH1 0x6D JUMP JUMPDEST PUSH1 0x40 MLOAD DUP1 SWAP2 SUB SWAP1 RETURN JUMPDEST PUSH0 DUP1 SLOAD SWAP1 PUSH2 0x100 EXP SWAP1 DIV PUSH1 0xFF AND DUP2 JUMP JUMPDEST PUSH0 PUSH1 0xFF DUP3 AND SWAP1 POP SWAP2 SWAP1 POP JUMP JUMPDEST PUSH1 0x67 DUP2 PUSH1 0x54 JUMP JUMPDEST DUP3 MSTORE POP POP JUMP JUMPDEST PUSH0 PUSH1 0x20 DUP3 ADD SWAP1 POP PUSH1 0x7E PUSH0 DUP4 ADD DUP5 PUSH1 0x60 JUMP JUMPDEST SWAP3 SWAP2 POP POP JUMP INVALID LOG2 PUSH5 0x6970667358 0x22 SLT KECCAK256 0xBB 0xE9 DUP2 SUB DUP10 DUP8 0xE9 0xAA CALLDATALOAD SGT 0xC0 0xF9 DUP5 PUSH1 0x15 SMOD PUSH1 0x7A 0xA8 EXTCODECOPY 0xF8 0x4E 0xC0 0x4C REVERT RETURNDATASIZE RETURN PUSH11 0x7BFEC60C64736F6C634300 ADDMOD NOT STOP CALLER "
		},
		"gasEstimates": {
			"creation": {
				"codeDepositCost": "37200",
				"executionCost": "infinite",
				"totalCost": "infinite"
			},
			"external": {
				"a()": "2441"
			}
		},
		"methodIdentifiers": {
			"a()": "0dbe671f"
		}
	},
	"abi": [
		{
			"inputs": [],
			"name": "a",
			"outputs": [
				{
					"internalType": "uint8",
					"name": "",
					"type": "uint8"
				}
			],
			"stateMutability": "view",
			"type": "function"
		}
	]
}