{
	"contracts/weekly-tasks/level2/t2/MultisigWallet.sol": {
		"MultisigWallet": {
			"abi": [
				{
					"inputs": [
						{
							"internalType": "address[]",
							"name": "_owners",
							"type": "address[]"
						},
						{
							"internalType": "uint256",
							"name": "_threshold",
							"type": "uint256"
						}
					],
					"stateMutability": "nonpayable",
					"type": "constructor"
				},
				{
					"anonymous": false,
					"inputs": [
						{
							"indexed": false,
							"internalType": "bytes32",
							"name": "txHash",
							"type": "bytes32"
						}
					],
					"name": "ExecutionFailure",
					"type": "event"
				},
				{
					"anonymous": false,
					"inputs": [
						{
							"indexed": false,
							"internalType": "bytes32",
							"name": "txHash",
							"type": "bytes32"
						}
					],
					"name": "ExecutionSuccess",
					"type": "event"
				},
				{
					"inputs": [
						{
							"internalType": "bytes32",
							"name": "dataHash",
							"type": "bytes32"
						},
						{
							"internalType": "bytes",
							"name": "signatures",
							"type": "bytes"
						}
					],
					"name": "checkSignatures",
					"outputs": [],
					"stateMutability": "view",
					"type": "function"
				},
				{
					"inputs": [
						{
							"internalType": "address",
							"name": "to",
							"type": "address"
						},
						{
							"internalType": "uint256",
							"name": "value",
							"type": "uint256"
						},
						{
							"internalType": "bytes",
							"name": "data",
							"type": "bytes"
						},
						{
							"internalType": "uint256",
							"name": "_nonce",
							"type": "uint256"
						},
						{
							"internalType": "uint256",
							"name": "chainid",
							"type": "uint256"
						}
					],
					"name": "encodeTransactionData",
					"outputs": [
						{
							"internalType": "bytes32",
							"name": "",
							"type": "bytes32"
						}
					],
					"stateMutability": "pure",
					"type": "function"
				},
				{
					"inputs": [
						{
							"internalType": "address",
							"name": "to",
							"type": "address"
						},
						{
							"internalType": "uint256",
							"name": "value",
							"type": "uint256"
						},
						{
							"internalType": "bytes",
							"name": "data",
							"type": "bytes"
						},
						{
							"internalType": "bytes",
							"name": "signatures",
							"type": "bytes"
						}
					],
					"name": "execTransaction",
					"outputs": [
						{
							"internalType": "bool",
							"name": "success",
							"type": "bool"
						}
					],
					"stateMutability": "payable",
					"type": "function"
				},
				{
					"inputs": [
						{
							"internalType": "address",
							"name": "",
							"type": "address"
						}
					],
					"name": "isOwner",
					"outputs": [
						{
							"internalType": "bool",
							"name": "",
							"type": "bool"
						}
					],
					"stateMutability": "view",
					"type": "function"
				},
				{
					"inputs": [],
					"name": "nonce",
					"outputs": [
						{
							"internalType": "uint256",
							"name": "",
							"type": "uint256"
						}
					],
					"stateMutability": "view",
					"type": "function"
				},
				{
					"inputs": [],
					"name": "ownerCount",
					"outputs": [
						{
							"internalType": "uint256",
							"name": "",
							"type": "uint256"
						}
					],
					"stateMutability": "view",
					"type": "function"
				},
				{
					"inputs": [
						{
							"internalType": "uint256",
							"name": "",
							"type": "uint256"
						}
					],
					"name": "owners",
					"outputs": [
						{
							"internalType": "address",
							"name": "",
							"type": "address"
						}
					],
					"stateMutability": "view",
					"type": "function"
				},
				{
					"inputs": [],
					"name": "threshold",
					"outputs": [
						{
							"internalType": "uint256",
							"name": "",
							"type": "uint256"
						}
					],
					"stateMutability": "view",
					"type": "function"
				}
			],
			"devdoc": {
				"kind": "dev",
				"methods": {
					"checkSignatures(bytes32,bytes)": {
						"details": "检查签名和交易数据是否对应。如果是无效签名，交易会revert",
						"params": {
							"dataHash": "交易数据哈希",
							"signatures": "几个多签签名打包在一起"
						}
					},
					"encodeTransactionData(address,uint256,bytes,uint256,uint256)": {
						"details": "编码交易数据",
						"params": {
							"_nonce": "交易的nonce.",
							"chainid": "链id",
							"data": "calldata",
							"to": "目标合约地址",
							"value": "msg.value，支付的以太坊"
						},
						"returns": {
							"_0": "交易哈希bytes."
						}
					},
					"execTransaction(address,uint256,bytes,bytes)": {
						"details": "在收集足够的多签签名后，执行交易",
						"params": {
							"data": "calldata",
							"signatures": "打包的签名，对应的多签地址由小到达，方便检查。 ({bytes32 r}{bytes32 s}{uint8 v}) (第一个多签的签名, 第二个多签的签名 ... )",
							"to": "目标合约地址",
							"value": "msg.value，支付的以太坊"
						}
					}
				},
				"version": 1
			},
			"evm": {
				"assembly": "    /* \"contracts/weekly-tasks/level2/t2/MultisigWallet.sol\":135:4509  contract MultisigWallet{... */\n  mstore(0x40, 0x80)\n    /* \"contracts/weekly-tasks/level2/t2/MultisigWallet.sol\":670:778  constructor(address[] memory _owners,uint256 _threshold){... */\n  callvalue\n  dup1\n  iszero\n  tag_1\n  jumpi\n  0x00\n  dup1\n  revert\ntag_1:\n  pop\n  mload(0x40)\n  sub(codesize, bytecodeSize)\n  dup1\n  bytecodeSize\n  dup4\n  codecopy\n  dup2\n  dup2\n  add\n  0x40\n  mstore\n  dup2\n  add\n  swap1\n  tag_2\n  swap2\n  swap1\n  tag_3\n  jump\t// in\ntag_2:\n    /* \"contracts/weekly-tasks/level2/t2/MultisigWallet.sol\":737:770  _setupOwners(_owners, _threshold) */\n  tag_6\n    /* \"contracts/weekly-tasks/level2/t2/MultisigWallet.sol\":750:757  _owners */\n  dup3\n    /* \"contracts/weekly-tasks/level2/t2/MultisigWallet.sol\":759:769  _threshold */\n  dup3\n    /* \"contracts/weekly-tasks/level2/t2/MultisigWallet.sol\":737:749  _setupOwners */\n  shl(0x20, tag_7)\n    /* \"contracts/weekly-tasks/level2/t2/MultisigWallet.sol\":737:770  _setupOwners(_owners, _threshold) */\n  0x20\n  shr\n  jump\t// in\ntag_6:\n    /* \"contracts/weekly-tasks/level2/t2/MultisigWallet.sol\":670:778  constructor(address[] memory _owners,uint256 _threshold){... */\n  pop\n  pop\n    /* \"contracts/weekly-tasks/level2/t2/MultisigWallet.sol\":135:4509  contract MultisigWallet{... */\n  jump(tag_8)\n    /* \"contracts/weekly-tasks/level2/t2/MultisigWallet.sol\":981:1714  function _setupOwners(address[] memory _owner,uint256 _threshold) internal {... */\ntag_7:\n    /* \"contracts/weekly-tasks/level2/t2/MultisigWallet.sol\":1122:1123  0 */\n  0x00\n    /* \"contracts/weekly-tasks/level2/t2/MultisigWallet.sol\":1111:1120  threshold */\n  sload(0x03)\n    /* \"contracts/weekly-tasks/level2/t2/MultisigWallet.sol\":1111:1123  threshold==0 */\n  eq\n    /* \"contracts/weekly-tasks/level2/t2/MultisigWallet.sol\":1103:1133  require(threshold==0,\"DQ5000\") */\n  tag_10\n  jumpi\n  mload(0x40)\n  0x08c379a000000000000000000000000000000000000000000000000000000000\n  dup2\n  mstore\n  0x04\n  add\n  tag_11\n  swap1\n  tag_12\n  jump\t// in\ntag_11:\n  mload(0x40)\n  dup1\n  swap2\n  sub\n  swap1\n  revert\ntag_10:\n    /* \"contracts/weekly-tasks/level2/t2/MultisigWallet.sol\":1211:1217  _owner */\n  dup2\n    /* \"contracts/weekly-tasks/level2/t2/MultisigWallet.sol\":1211:1224  _owner.length */\n  mload\n    /* \"contracts/weekly-tasks/level2/t2/MultisigWallet.sol\":1199:1209  _threshold */\n  dup2\n    /* \"contracts/weekly-tasks/level2/t2/MultisigWallet.sol\":1199:1224  _threshold<=_owner.length */\n  gt\n  iszero\n    /* \"contracts/weekly-tasks/level2/t2/MultisigWallet.sol\":1191:1234  require(_threshold<=_owner.length,\"DQ5001\") */\n  tag_13\n  jumpi\n  mload(0x40)\n  0x08c379a000000000000000000000000000000000000000000000000000000000\n  dup2\n  mstore\n  0x04\n  add\n  tag_14\n  swap1\n  tag_15\n  jump\t// in\ntag_14:\n  mload(0x40)\n  dup1\n  swap2\n  sub\n  swap1\n  revert\ntag_13:\n    /* \"contracts/weekly-tasks/level2/t2/MultisigWallet.sol\":1302:1303  1 */\n  0x01\n    /* \"contracts/weekly-tasks/level2/t2/MultisigWallet.sol\":1290:1300  _threshold */\n  dup2\n    /* \"contracts/weekly-tasks/level2/t2/MultisigWallet.sol\":1290:1303  _threshold>=1 */\n  lt\n  iszero\n    /* \"contracts/weekly-tasks/level2/t2/MultisigWallet.sol\":1282:1313  require(_threshold>=1,\"DQ5002\") */\n  tag_16\n  jumpi\n  mload(0x40)\n  0x08c379a000000000000000000000000000000000000000000000000000000000\n  dup2\n  mstore\n  0x04\n  add\n  tag_17\n  swap1\n  tag_18\n  jump\t// in\ntag_17:\n  mload(0x40)\n  dup1\n  swap2\n  sub\n  swap1\n  revert\ntag_16:\n    /* \"contracts/weekly-tasks/level2/t2/MultisigWallet.sol\":1328:1337  uint256 i */\n  0x00\n    /* \"contracts/weekly-tasks/level2/t2/MultisigWallet.sol\":1324:1641  for(uint256 i=0;i<_owner.length;i++){... */\ntag_19:\n    /* \"contracts/weekly-tasks/level2/t2/MultisigWallet.sol\":1342:1348  _owner */\n  dup3\n    /* \"contracts/weekly-tasks/level2/t2/MultisigWallet.sol\":1342:1355  _owner.length */\n  mload\n    /* \"contracts/weekly-tasks/level2/t2/MultisigWallet.sol\":1340:1341  i */\n  dup2\n    /* \"contracts/weekly-tasks/level2/t2/MultisigWallet.sol\":1340:1355  i<_owner.length */\n  lt\n    /* \"contracts/weekly-tasks/level2/t2/MultisigWallet.sol\":1324:1641  for(uint256 i=0;i<_owner.length;i++){... */\n  iszero\n  tag_20\n  jumpi\n    /* \"contracts/weekly-tasks/level2/t2/MultisigWallet.sol\":1375:1388  address owner */\n  0x00\n    /* \"contracts/weekly-tasks/level2/t2/MultisigWallet.sol\":1389:1395  _owner */\n  dup4\n    /* \"contracts/weekly-tasks/level2/t2/MultisigWallet.sol\":1396:1397  i */\n  dup3\n    /* \"contracts/weekly-tasks/level2/t2/MultisigWallet.sol\":1389:1398  _owner[i] */\n  dup2\n  mload\n  dup2\n  lt\n  tag_22\n  jumpi\n  tag_23\n  tag_24\n  jump\t// in\ntag_23:\ntag_22:\n  0x20\n  mul\n  0x20\n  add\n  add\n  mload\n    /* \"contracts/weekly-tasks/level2/t2/MultisigWallet.sol\":1375:1398  address owner=_owner[i] */\n  swap1\n  pop\n    /* \"contracts/weekly-tasks/level2/t2/MultisigWallet.sol\":1507:1508  0 */\n  0x00\n    /* \"contracts/weekly-tasks/level2/t2/MultisigWallet.sol\":1492:1509  owner!=address(0) */\n  0xffffffffffffffffffffffffffffffffffffffff\n  and\n    /* \"contracts/weekly-tasks/level2/t2/MultisigWallet.sol\":1492:1497  owner */\n  dup2\n    /* \"contracts/weekly-tasks/level2/t2/MultisigWallet.sol\":1492:1509  owner!=address(0) */\n  0xffffffffffffffffffffffffffffffffffffffff\n  and\n  eq\n  iszero\n    /* \"contracts/weekly-tasks/level2/t2/MultisigWallet.sol\":1492:1533  owner!=address(0) && owner!=address(this) */\n  dup1\n  iszero\n  tag_25\n  jumpi\n  pop\n    /* \"contracts/weekly-tasks/level2/t2/MultisigWallet.sol\":1528:1532  this */\n  address\n    /* \"contracts/weekly-tasks/level2/t2/MultisigWallet.sol\":1513:1533  owner!=address(this) */\n  0xffffffffffffffffffffffffffffffffffffffff\n  and\n    /* \"contracts/weekly-tasks/level2/t2/MultisigWallet.sol\":1513:1518  owner */\n  dup2\n    /* \"contracts/weekly-tasks/level2/t2/MultisigWallet.sol\":1513:1533  owner!=address(this) */\n  0xffffffffffffffffffffffffffffffffffffffff\n  and\n  eq\n  iszero\n    /* \"contracts/weekly-tasks/level2/t2/MultisigWallet.sol\":1492:1533  owner!=address(0) && owner!=address(this) */\ntag_25:\n    /* \"contracts/weekly-tasks/level2/t2/MultisigWallet.sol\":1492:1552  owner!=address(0) && owner!=address(this) && !isOwner[owner] */\n  dup1\n  iszero\n  tag_26\n  jumpi\n  pop\n    /* \"contracts/weekly-tasks/level2/t2/MultisigWallet.sol\":1538:1545  isOwner */\n  0x01\n    /* \"contracts/weekly-tasks/level2/t2/MultisigWallet.sol\":1538:1552  isOwner[owner] */\n  0x00\n    /* \"contracts/weekly-tasks/level2/t2/MultisigWallet.sol\":1546:1551  owner */\n  dup3\n    /* \"contracts/weekly-tasks/level2/t2/MultisigWallet.sol\":1538:1552  isOwner[owner] */\n  0xffffffffffffffffffffffffffffffffffffffff\n  and\n  0xffffffffffffffffffffffffffffffffffffffff\n  and\n  dup2\n  mstore\n  0x20\n  add\n  swap1\n  dup2\n  mstore\n  0x20\n  add\n  0x00\n  keccak256\n  0x00\n  swap1\n  sload\n  swap1\n  0x0100\n  exp\n  swap1\n  div\n  0xff\n  and\n    /* \"contracts/weekly-tasks/level2/t2/MultisigWallet.sol\":1537:1552  !isOwner[owner] */\n  iszero\n    /* \"contracts/weekly-tasks/level2/t2/MultisigWallet.sol\":1492:1552  owner!=address(0) && owner!=address(this) && !isOwner[owner] */\ntag_26:\n    /* \"contracts/weekly-tasks/level2/t2/MultisigWallet.sol\":1484:1562  require(owner!=address(0) && owner!=address(this) && !isOwner[owner],\"DQ5003\") */\n  tag_27\n  jumpi\n  mload(0x40)\n  0x08c379a000000000000000000000000000000000000000000000000000000000\n  dup2\n  mstore\n  0x04\n  add\n  tag_28\n  swap1\n  tag_29\n  jump\t// in\ntag_28:\n  mload(0x40)\n  dup1\n  swap2\n  sub\n  swap1\n  revert\ntag_27:\n    /* \"contracts/weekly-tasks/level2/t2/MultisigWallet.sol\":1577:1583  owners */\n  0x00\n    /* \"contracts/weekly-tasks/level2/t2/MultisigWallet.sol\":1589:1594  owner */\n  dup2\n    /* \"contracts/weekly-tasks/level2/t2/MultisigWallet.sol\":1577:1595  owners.push(owner) */\n  swap1\n  dup1\n  0x01\n  dup2\n  sload\n  add\n  dup1\n  dup3\n  sstore\n  dup1\n  swap2\n  pop\n  pop\n  0x01\n  swap1\n  sub\n  swap1\n  0x00\n  mstore\n  keccak256(0x00, 0x20)\n  add\n  0x00\n  swap1\n  swap2\n  swap1\n  swap2\n  swap1\n  swap2\n  0x0100\n  exp\n  dup2\n  sload\n  dup2\n  0xffffffffffffffffffffffffffffffffffffffff\n  mul\n  not\n  and\n  swap1\n  dup4\n  0xffffffffffffffffffffffffffffffffffffffff\n  and\n  mul\n  or\n  swap1\n  sstore\n  pop\n    /* \"contracts/weekly-tasks/level2/t2/MultisigWallet.sol\":1625:1629  true */\n  0x01\n    /* \"contracts/weekly-tasks/level2/t2/MultisigWallet.sol\":1610:1617  isOwner */\n  dup1\n    /* \"contracts/weekly-tasks/level2/t2/MultisigWallet.sol\":1610:1624  isOwner[owner] */\n  0x00\n    /* \"contracts/weekly-tasks/level2/t2/MultisigWallet.sol\":1618:1623  owner */\n  dup4\n    /* \"contracts/weekly-tasks/level2/t2/MultisigWallet.sol\":1610:1624  isOwner[owner] */\n  0xffffffffffffffffffffffffffffffffffffffff\n  and\n  0xffffffffffffffffffffffffffffffffffffffff\n  and\n  dup2\n  mstore\n  0x20\n  add\n  swap1\n  dup2\n  mstore\n  0x20\n  add\n  0x00\n  keccak256\n  0x00\n    /* \"contracts/weekly-tasks/level2/t2/MultisigWallet.sol\":1610:1629  isOwner[owner]=true */\n  0x0100\n  exp\n  dup2\n  sload\n  dup2\n  0xff\n  mul\n  not\n  and\n  swap1\n  dup4\n  iszero\n  iszero\n  mul\n  or\n  swap1\n  sstore\n  pop\n    /* \"contracts/weekly-tasks/level2/t2/MultisigWallet.sol\":1360:1641  {... */\n  pop\n    /* \"contracts/weekly-tasks/level2/t2/MultisigWallet.sol\":1356:1359  i++ */\n  dup1\n  dup1\n  0x01\n  add\n  swap2\n  pop\n  pop\n    /* \"contracts/weekly-tasks/level2/t2/MultisigWallet.sol\":1324:1641  for(uint256 i=0;i<_owner.length;i++){... */\n  jump(tag_19)\ntag_20:\n  pop\n    /* \"contracts/weekly-tasks/level2/t2/MultisigWallet.sol\":1662:1668  _owner */\n  dup2\n    /* \"contracts/weekly-tasks/level2/t2/MultisigWallet.sol\":1662:1675  _owner.length */\n  mload\n    /* \"contracts/weekly-tasks/level2/t2/MultisigWallet.sol\":1651:1661  ownerCount */\n  0x02\n    /* \"contracts/weekly-tasks/level2/t2/MultisigWallet.sol\":1651:1675  ownerCount=_owner.length */\n  dup2\n  swap1\n  sstore\n  pop\n    /* \"contracts/weekly-tasks/level2/t2/MultisigWallet.sol\":1696:1706  _threshold */\n  dup1\n    /* \"contracts/weekly-tasks/level2/t2/MultisigWallet.sol\":1686:1695  threshold */\n  0x03\n    /* \"contracts/weekly-tasks/level2/t2/MultisigWallet.sol\":1686:1706  threshold=_threshold */\n  dup2\n  swap1\n  sstore\n  pop\n    /* \"contracts/weekly-tasks/level2/t2/MultisigWallet.sol\":981:1714  function _setupOwners(address[] memory _owner,uint256 _threshold) internal {... */\n  pop\n  pop\n  jump\t// out\n    /* \"#utility.yul\":7:82   */\ntag_31:\n    /* \"#utility.yul\":40:46   */\n  0x00\n    /* \"#utility.yul\":73:75   */\n  0x40\n    /* \"#utility.yul\":67:76   */\n  mload\n    /* \"#utility.yul\":57:76   */\n  swap1\n  pop\n    /* \"#utility.yul\":7:82   */\n  swap1\n  jump\t// out\n    /* \"#utility.yul\":88:205   */\ntag_32:\n    /* \"#utility.yul\":197:198   */\n  0x00\n    /* \"#utility.yul\":194:195   */\n  dup1\n    /* \"#utility.yul\":187:199   */\n  revert\n    /* \"#utility.yul\":211:328   */\ntag_33:\n    /* \"#utility.yul\":320:321   */\n  0x00\n    /* \"#utility.yul\":317:318   */\n  dup1\n    /* \"#utility.yul\":310:322   */\n  revert\n    /* \"#utility.yul\":334:451   */\ntag_34:\n    /* \"#utility.yul\":443:444   */\n  0x00\n    /* \"#utility.yul\":440:441   */\n  dup1\n    /* \"#utility.yul\":433:445   */\n  revert\n    /* \"#utility.yul\":457:559   */\ntag_35:\n    /* \"#utility.yul\":498:504   */\n  0x00\n    /* \"#utility.yul\":549:551   */\n  0x1f\n    /* \"#utility.yul\":545:552   */\n  not\n    /* \"#utility.yul\":540:542   */\n  0x1f\n    /* \"#utility.yul\":533:538   */\n  dup4\n    /* \"#utility.yul\":529:543   */\n  add\n    /* \"#utility.yul\":525:553   */\n  and\n    /* \"#utility.yul\":515:553   */\n  swap1\n  pop\n    /* \"#utility.yul\":457:559   */\n  swap2\n  swap1\n  pop\n  jump\t// out\n    /* \"#utility.yul\":565:745   */\ntag_36:\n    /* \"#utility.yul\":613:690   */\n  0x4e487b7100000000000000000000000000000000000000000000000000000000\n    /* \"#utility.yul\":610:611   */\n  0x00\n    /* \"#utility.yul\":603:691   */\n  mstore\n    /* \"#utility.yul\":710:714   */\n  0x41\n    /* \"#utility.yul\":707:708   */\n  0x04\n    /* \"#utility.yul\":700:715   */\n  mstore\n    /* \"#utility.yul\":734:738   */\n  0x24\n    /* \"#utility.yul\":731:732   */\n  0x00\n    /* \"#utility.yul\":724:739   */\n  revert\n    /* \"#utility.yul\":751:1032   */\ntag_37:\n    /* \"#utility.yul\":834:861   */\n  tag_67\n    /* \"#utility.yul\":856:860   */\n  dup3\n    /* \"#utility.yul\":834:861   */\n  tag_35\n  jump\t// in\ntag_67:\n    /* \"#utility.yul\":826:832   */\n  dup2\n    /* \"#utility.yul\":822:862   */\n  add\n    /* \"#utility.yul\":964:970   */\n  dup2\n    /* \"#utility.yul\":952:962   */\n  dup2\n    /* \"#utility.yul\":949:971   */\n  lt\n    /* \"#utility.yul\":928:946   */\n  0xffffffffffffffff\n    /* \"#utility.yul\":916:926   */\n  dup3\n    /* \"#utility.yul\":913:947   */\n  gt\n    /* \"#utility.yul\":910:972   */\n  or\n    /* \"#utility.yul\":907:995   */\n  iszero\n  tag_68\n  jumpi\n    /* \"#utility.yul\":975:993   */\n  tag_69\n  tag_36\n  jump\t// in\ntag_69:\n    /* \"#utility.yul\":907:995   */\ntag_68:\n    /* \"#utility.yul\":1015:1025   */\n  dup1\n    /* \"#utility.yul\":1011:1013   */\n  0x40\n    /* \"#utility.yul\":1004:1026   */\n  mstore\n    /* \"#utility.yul\":794:1032   */\n  pop\n    /* \"#utility.yul\":751:1032   */\n  pop\n  pop\n  jump\t// out\n    /* \"#utility.yul\":1038:1167   */\ntag_38:\n    /* \"#utility.yul\":1072:1078   */\n  0x00\n    /* \"#utility.yul\":1099:1119   */\n  tag_71\n  tag_31\n  jump\t// in\ntag_71:\n    /* \"#utility.yul\":1089:1119   */\n  swap1\n  pop\n    /* \"#utility.yul\":1128:1161   */\n  tag_72\n    /* \"#utility.yul\":1156:1160   */\n  dup3\n    /* \"#utility.yul\":1148:1154   */\n  dup3\n    /* \"#utility.yul\":1128:1161   */\n  tag_37\n  jump\t// in\ntag_72:\n    /* \"#utility.yul\":1038:1167   */\n  swap2\n  swap1\n  pop\n  jump\t// out\n    /* \"#utility.yul\":1173:1484   */\ntag_39:\n    /* \"#utility.yul\":1250:1254   */\n  0x00\n    /* \"#utility.yul\":1340:1358   */\n  0xffffffffffffffff\n    /* \"#utility.yul\":1332:1338   */\n  dup3\n    /* \"#utility.yul\":1329:1359   */\n  gt\n    /* \"#utility.yul\":1326:1382   */\n  iszero\n  tag_74\n  jumpi\n    /* \"#utility.yul\":1362:1380   */\n  tag_75\n  tag_36\n  jump\t// in\ntag_75:\n    /* \"#utility.yul\":1326:1382   */\ntag_74:\n    /* \"#utility.yul\":1412:1416   */\n  0x20\n    /* \"#utility.yul\":1404:1410   */\n  dup3\n    /* \"#utility.yul\":1400:1417   */\n  mul\n    /* \"#utility.yul\":1392:1417   */\n  swap1\n  pop\n    /* \"#utility.yul\":1472:1476   */\n  0x20\n    /* \"#utility.yul\":1466:1470   */\n  dup2\n    /* \"#utility.yul\":1462:1477   */\n  add\n    /* \"#utility.yul\":1454:1477   */\n  swap1\n  pop\n    /* \"#utility.yul\":1173:1484   */\n  swap2\n  swap1\n  pop\n  jump\t// out\n    /* \"#utility.yul\":1490:1607   */\ntag_40:\n    /* \"#utility.yul\":1599:1600   */\n  0x00\n    /* \"#utility.yul\":1596:1597   */\n  dup1\n    /* \"#utility.yul\":1589:1601   */\n  revert\n    /* \"#utility.yul\":1613:1739   */\ntag_41:\n    /* \"#utility.yul\":1650:1657   */\n  0x00\n    /* \"#utility.yul\":1690:1732   */\n  0xffffffffffffffffffffffffffffffffffffffff\n    /* \"#utility.yul\":1683:1688   */\n  dup3\n    /* \"#utility.yul\":1679:1733   */\n  and\n    /* \"#utility.yul\":1668:1733   */\n  swap1\n  pop\n    /* \"#utility.yul\":1613:1739   */\n  swap2\n  swap1\n  pop\n  jump\t// out\n    /* \"#utility.yul\":1745:1841   */\ntag_42:\n    /* \"#utility.yul\":1782:1789   */\n  0x00\n    /* \"#utility.yul\":1811:1835   */\n  tag_79\n    /* \"#utility.yul\":1829:1834   */\n  dup3\n    /* \"#utility.yul\":1811:1835   */\n  tag_41\n  jump\t// in\ntag_79:\n    /* \"#utility.yul\":1800:1835   */\n  swap1\n  pop\n    /* \"#utility.yul\":1745:1841   */\n  swap2\n  swap1\n  pop\n  jump\t// out\n    /* \"#utility.yul\":1847:1969   */\ntag_43:\n    /* \"#utility.yul\":1920:1944   */\n  tag_81\n    /* \"#utility.yul\":1938:1943   */\n  dup2\n    /* \"#utility.yul\":1920:1944   */\n  tag_42\n  jump\t// in\ntag_81:\n    /* \"#utility.yul\":1913:1918   */\n  dup2\n    /* \"#utility.yul\":1910:1945   */\n  eq\n    /* \"#utility.yul\":1900:1963   */\n  tag_82\n  jumpi\n    /* \"#utility.yul\":1959:1960   */\n  0x00\n    /* \"#utility.yul\":1956:1957   */\n  dup1\n    /* \"#utility.yul\":1949:1961   */\n  revert\n    /* \"#utility.yul\":1900:1963   */\ntag_82:\n    /* \"#utility.yul\":1847:1969   */\n  pop\n  jump\t// out\n    /* \"#utility.yul\":1975:2118   */\ntag_44:\n    /* \"#utility.yul\":2032:2037   */\n  0x00\n    /* \"#utility.yul\":2063:2069   */\n  dup2\n    /* \"#utility.yul\":2057:2070   */\n  mload\n    /* \"#utility.yul\":2048:2070   */\n  swap1\n  pop\n    /* \"#utility.yul\":2079:2112   */\n  tag_84\n    /* \"#utility.yul\":2106:2111   */\n  dup2\n    /* \"#utility.yul\":2079:2112   */\n  tag_43\n  jump\t// in\ntag_84:\n    /* \"#utility.yul\":1975:2118   */\n  swap3\n  swap2\n  pop\n  pop\n  jump\t// out\n    /* \"#utility.yul\":2141:2873   */\ntag_45:\n    /* \"#utility.yul\":2248:2253   */\n  0x00\n    /* \"#utility.yul\":2273:2354   */\n  tag_86\n    /* \"#utility.yul\":2289:2353   */\n  tag_87\n    /* \"#utility.yul\":2346:2352   */\n  dup5\n    /* \"#utility.yul\":2289:2353   */\n  tag_39\n  jump\t// in\ntag_87:\n    /* \"#utility.yul\":2273:2354   */\n  tag_38\n  jump\t// in\ntag_86:\n    /* \"#utility.yul\":2264:2354   */\n  swap1\n  pop\n    /* \"#utility.yul\":2374:2379   */\n  dup1\n    /* \"#utility.yul\":2403:2409   */\n  dup4\n    /* \"#utility.yul\":2396:2401   */\n  dup3\n    /* \"#utility.yul\":2389:2410   */\n  mstore\n    /* \"#utility.yul\":2437:2441   */\n  0x20\n    /* \"#utility.yul\":2430:2435   */\n  dup3\n    /* \"#utility.yul\":2426:2442   */\n  add\n    /* \"#utility.yul\":2419:2442   */\n  swap1\n  pop\n    /* \"#utility.yul\":2490:2494   */\n  0x20\n    /* \"#utility.yul\":2482:2488   */\n  dup5\n    /* \"#utility.yul\":2478:2495   */\n  mul\n    /* \"#utility.yul\":2470:2476   */\n  dup4\n    /* \"#utility.yul\":2466:2496   */\n  add\n    /* \"#utility.yul\":2519:2522   */\n  dup6\n    /* \"#utility.yul\":2511:2517   */\n  dup2\n    /* \"#utility.yul\":2508:2523   */\n  gt\n    /* \"#utility.yul\":2505:2627   */\n  iszero\n  tag_88\n  jumpi\n    /* \"#utility.yul\":2538:2617   */\n  tag_89\n  tag_40\n  jump\t// in\ntag_89:\n    /* \"#utility.yul\":2505:2627   */\ntag_88:\n    /* \"#utility.yul\":2653:2659   */\n  dup4\n    /* \"#utility.yul\":2636:2867   */\ntag_90:\n    /* \"#utility.yul\":2670:2676   */\n  dup2\n    /* \"#utility.yul\":2665:2668   */\n  dup2\n    /* \"#utility.yul\":2662:2677   */\n  lt\n    /* \"#utility.yul\":2636:2867   */\n  iszero\n  tag_92\n  jumpi\n    /* \"#utility.yul\":2745:2748   */\n  dup1\n    /* \"#utility.yul\":2774:2822   */\n  tag_93\n    /* \"#utility.yul\":2818:2821   */\n  dup9\n    /* \"#utility.yul\":2806:2816   */\n  dup3\n    /* \"#utility.yul\":2774:2822   */\n  tag_44\n  jump\t// in\ntag_93:\n    /* \"#utility.yul\":2769:2772   */\n  dup5\n    /* \"#utility.yul\":2762:2823   */\n  mstore\n    /* \"#utility.yul\":2852:2856   */\n  0x20\n    /* \"#utility.yul\":2847:2850   */\n  dup5\n    /* \"#utility.yul\":2843:2857   */\n  add\n    /* \"#utility.yul\":2836:2857   */\n  swap4\n  pop\n    /* \"#utility.yul\":2712:2867   */\n  pop\n    /* \"#utility.yul\":2696:2700   */\n  0x20\n    /* \"#utility.yul\":2691:2694   */\n  dup2\n    /* \"#utility.yul\":2687:2701   */\n  add\n    /* \"#utility.yul\":2680:2701   */\n  swap1\n  pop\n    /* \"#utility.yul\":2636:2867   */\n  jump(tag_90)\ntag_92:\n    /* \"#utility.yul\":2640:2661   */\n  pop\n    /* \"#utility.yul\":2254:2873   */\n  pop\n  pop\n    /* \"#utility.yul\":2141:2873   */\n  swap4\n  swap3\n  pop\n  pop\n  pop\n  jump\t// out\n    /* \"#utility.yul\":2896:3281   */\ntag_46:\n    /* \"#utility.yul\":2978:2983   */\n  0x00\n    /* \"#utility.yul\":3027:3030   */\n  dup3\n    /* \"#utility.yul\":3020:3024   */\n  0x1f\n    /* \"#utility.yul\":3012:3018   */\n  dup4\n    /* \"#utility.yul\":3008:3025   */\n  add\n    /* \"#utility.yul\":3004:3031   */\n  slt\n    /* \"#utility.yul\":2994:3116   */\n  tag_95\n  jumpi\n    /* \"#utility.yul\":3035:3114   */\n  tag_96\n  tag_34\n  jump\t// in\ntag_96:\n    /* \"#utility.yul\":2994:3116   */\ntag_95:\n    /* \"#utility.yul\":3145:3151   */\n  dup2\n    /* \"#utility.yul\":3139:3152   */\n  mload\n    /* \"#utility.yul\":3170:3275   */\n  tag_97\n    /* \"#utility.yul\":3271:3274   */\n  dup5\n    /* \"#utility.yul\":3263:3269   */\n  dup3\n    /* \"#utility.yul\":3256:3260   */\n  0x20\n    /* \"#utility.yul\":3248:3254   */\n  dup7\n    /* \"#utility.yul\":3244:3261   */\n  add\n    /* \"#utility.yul\":3170:3275   */\n  tag_45\n  jump\t// in\ntag_97:\n    /* \"#utility.yul\":3161:3275   */\n  swap2\n  pop\n    /* \"#utility.yul\":2984:3281   */\n  pop\n    /* \"#utility.yul\":2896:3281   */\n  swap3\n  swap2\n  pop\n  pop\n  jump\t// out\n    /* \"#utility.yul\":3287:3364   */\ntag_47:\n    /* \"#utility.yul\":3324:3331   */\n  0x00\n    /* \"#utility.yul\":3353:3358   */\n  dup2\n    /* \"#utility.yul\":3342:3358   */\n  swap1\n  pop\n    /* \"#utility.yul\":3287:3364   */\n  swap2\n  swap1\n  pop\n  jump\t// out\n    /* \"#utility.yul\":3370:3492   */\ntag_48:\n    /* \"#utility.yul\":3443:3467   */\n  tag_100\n    /* \"#utility.yul\":3461:3466   */\n  dup2\n    /* \"#utility.yul\":3443:3467   */\n  tag_47\n  jump\t// in\ntag_100:\n    /* \"#utility.yul\":3436:3441   */\n  dup2\n    /* \"#utility.yul\":3433:3468   */\n  eq\n    /* \"#utility.yul\":3423:3486   */\n  tag_101\n  jumpi\n    /* \"#utility.yul\":3482:3483   */\n  0x00\n    /* \"#utility.yul\":3479:3480   */\n  dup1\n    /* \"#utility.yul\":3472:3484   */\n  revert\n    /* \"#utility.yul\":3423:3486   */\ntag_101:\n    /* \"#utility.yul\":3370:3492   */\n  pop\n  jump\t// out\n    /* \"#utility.yul\":3498:3641   */\ntag_49:\n    /* \"#utility.yul\":3555:3560   */\n  0x00\n    /* \"#utility.yul\":3586:3592   */\n  dup2\n    /* \"#utility.yul\":3580:3593   */\n  mload\n    /* \"#utility.yul\":3571:3593   */\n  swap1\n  pop\n    /* \"#utility.yul\":3602:3635   */\n  tag_103\n    /* \"#utility.yul\":3629:3634   */\n  dup2\n    /* \"#utility.yul\":3602:3635   */\n  tag_48\n  jump\t// in\ntag_103:\n    /* \"#utility.yul\":3498:3641   */\n  swap3\n  swap2\n  pop\n  pop\n  jump\t// out\n    /* \"#utility.yul\":3647:4357   */\ntag_3:\n    /* \"#utility.yul\":3751:3757   */\n  0x00\n    /* \"#utility.yul\":3759:3765   */\n  dup1\n    /* \"#utility.yul\":3808:3810   */\n  0x40\n    /* \"#utility.yul\":3796:3805   */\n  dup4\n    /* \"#utility.yul\":3787:3794   */\n  dup6\n    /* \"#utility.yul\":3783:3806   */\n  sub\n    /* \"#utility.yul\":3779:3811   */\n  slt\n    /* \"#utility.yul\":3776:3895   */\n  iszero\n  tag_105\n  jumpi\n    /* \"#utility.yul\":3814:3893   */\n  tag_106\n  tag_32\n  jump\t// in\ntag_106:\n    /* \"#utility.yul\":3776:3895   */\ntag_105:\n    /* \"#utility.yul\":3955:3956   */\n  0x00\n    /* \"#utility.yul\":3944:3953   */\n  dup4\n    /* \"#utility.yul\":3940:3957   */\n  add\n    /* \"#utility.yul\":3934:3958   */\n  mload\n    /* \"#utility.yul\":3985:4003   */\n  0xffffffffffffffff\n    /* \"#utility.yul\":3977:3983   */\n  dup2\n    /* \"#utility.yul\":3974:4004   */\n  gt\n    /* \"#utility.yul\":3971:4088   */\n  iszero\n  tag_107\n  jumpi\n    /* \"#utility.yul\":4007:4086   */\n  tag_108\n  tag_33\n  jump\t// in\ntag_108:\n    /* \"#utility.yul\":3971:4088   */\ntag_107:\n    /* \"#utility.yul\":4112:4201   */\n  tag_109\n    /* \"#utility.yul\":4193:4200   */\n  dup6\n    /* \"#utility.yul\":4184:4190   */\n  dup3\n    /* \"#utility.yul\":4173:4182   */\n  dup7\n    /* \"#utility.yul\":4169:4191   */\n  add\n    /* \"#utility.yul\":4112:4201   */\n  tag_46\n  jump\t// in\ntag_109:\n    /* \"#utility.yul\":4102:4201   */\n  swap3\n  pop\n    /* \"#utility.yul\":3905:4211   */\n  pop\n    /* \"#utility.yul\":4250:4252   */\n  0x20\n    /* \"#utility.yul\":4276:4340   */\n  tag_110\n    /* \"#utility.yul\":4332:4339   */\n  dup6\n    /* \"#utility.yul\":4323:4329   */\n  dup3\n    /* \"#utility.yul\":4312:4321   */\n  dup7\n    /* \"#utility.yul\":4308:4330   */\n  add\n    /* \"#utility.yul\":4276:4340   */\n  tag_49\n  jump\t// in\ntag_110:\n    /* \"#utility.yul\":4266:4340   */\n  swap2\n  pop\n    /* \"#utility.yul\":4221:4350   */\n  pop\n    /* \"#utility.yul\":3647:4357   */\n  swap3\n  pop\n  swap3\n  swap1\n  pop\n  jump\t// out\n    /* \"#utility.yul\":4363:4532   */\ntag_50:\n    /* \"#utility.yul\":4447:4458   */\n  0x00\n    /* \"#utility.yul\":4481:4487   */\n  dup3\n    /* \"#utility.yul\":4476:4479   */\n  dup3\n    /* \"#utility.yul\":4469:4488   */\n  mstore\n    /* \"#utility.yul\":4521:4525   */\n  0x20\n    /* \"#utility.yul\":4516:4519   */\n  dup3\n    /* \"#utility.yul\":4512:4526   */\n  add\n    /* \"#utility.yul\":4497:4526   */\n  swap1\n  pop\n    /* \"#utility.yul\":4363:4532   */\n  swap3\n  swap2\n  pop\n  pop\n  jump\t// out\n    /* \"#utility.yul\":4538:4694   */\ntag_51:\n    /* \"#utility.yul\":4678:4686   */\n  0x4451353030300000000000000000000000000000000000000000000000000000\n    /* \"#utility.yul\":4674:4675   */\n  0x00\n    /* \"#utility.yul\":4666:4672   */\n  dup3\n    /* \"#utility.yul\":4662:4676   */\n  add\n    /* \"#utility.yul\":4655:4687   */\n  mstore\n    /* \"#utility.yul\":4538:4694   */\n  pop\n  jump\t// out\n    /* \"#utility.yul\":4700:5065   */\ntag_52:\n    /* \"#utility.yul\":4842:4845   */\n  0x00\n    /* \"#utility.yul\":4863:4929   */\n  tag_114\n    /* \"#utility.yul\":4927:4928   */\n  0x06\n    /* \"#utility.yul\":4922:4925   */\n  dup4\n    /* \"#utility.yul\":4863:4929   */\n  tag_50\n  jump\t// in\ntag_114:\n    /* \"#utility.yul\":4856:4929   */\n  swap2\n  pop\n    /* \"#utility.yul\":4938:5031   */\n  tag_115\n    /* \"#utility.yul\":5027:5030   */\n  dup3\n    /* \"#utility.yul\":4938:5031   */\n  tag_51\n  jump\t// in\ntag_115:\n    /* \"#utility.yul\":5056:5058   */\n  0x20\n    /* \"#utility.yul\":5051:5054   */\n  dup3\n    /* \"#utility.yul\":5047:5059   */\n  add\n    /* \"#utility.yul\":5040:5059   */\n  swap1\n  pop\n    /* \"#utility.yul\":4700:5065   */\n  swap2\n  swap1\n  pop\n  jump\t// out\n    /* \"#utility.yul\":5071:5490   */\ntag_12:\n    /* \"#utility.yul\":5237:5241   */\n  0x00\n    /* \"#utility.yul\":5275:5277   */\n  0x20\n    /* \"#utility.yul\":5264:5273   */\n  dup3\n    /* \"#utility.yul\":5260:5278   */\n  add\n    /* \"#utility.yul\":5252:5278   */\n  swap1\n  pop\n    /* \"#utility.yul\":5324:5333   */\n  dup2\n    /* \"#utility.yul\":5318:5322   */\n  dup2\n    /* \"#utility.yul\":5314:5334   */\n  sub\n    /* \"#utility.yul\":5310:5311   */\n  0x00\n    /* \"#utility.yul\":5299:5308   */\n  dup4\n    /* \"#utility.yul\":5295:5312   */\n  add\n    /* \"#utility.yul\":5288:5335   */\n  mstore\n    /* \"#utility.yul\":5352:5483   */\n  tag_117\n    /* \"#utility.yul\":5478:5482   */\n  dup2\n    /* \"#utility.yul\":5352:5483   */\n  tag_52\n  jump\t// in\ntag_117:\n    /* \"#utility.yul\":5344:5483   */\n  swap1\n  pop\n    /* \"#utility.yul\":5071:5490   */\n  swap2\n  swap1\n  pop\n  jump\t// out\n    /* \"#utility.yul\":5496:5652   */\ntag_53:\n    /* \"#utility.yul\":5636:5644   */\n  0x4451353030310000000000000000000000000000000000000000000000000000\n    /* \"#utility.yul\":5632:5633   */\n  0x00\n    /* \"#utility.yul\":5624:5630   */\n  dup3\n    /* \"#utility.yul\":5620:5634   */\n  add\n    /* \"#utility.yul\":5613:5645   */\n  mstore\n    /* \"#utility.yul\":5496:5652   */\n  pop\n  jump\t// out\n    /* \"#utility.yul\":5658:6023   */\ntag_54:\n    /* \"#utility.yul\":5800:5803   */\n  0x00\n    /* \"#utility.yul\":5821:5887   */\n  tag_120\n    /* \"#utility.yul\":5885:5886   */\n  0x06\n    /* \"#utility.yul\":5880:5883   */\n  dup4\n    /* \"#utility.yul\":5821:5887   */\n  tag_50\n  jump\t// in\ntag_120:\n    /* \"#utility.yul\":5814:5887   */\n  swap2\n  pop\n    /* \"#utility.yul\":5896:5989   */\n  tag_121\n    /* \"#utility.yul\":5985:5988   */\n  dup3\n    /* \"#utility.yul\":5896:5989   */\n  tag_53\n  jump\t// in\ntag_121:\n    /* \"#utility.yul\":6014:6016   */\n  0x20\n    /* \"#utility.yul\":6009:6012   */\n  dup3\n    /* \"#utility.yul\":6005:6017   */\n  add\n    /* \"#utility.yul\":5998:6017   */\n  swap1\n  pop\n    /* \"#utility.yul\":5658:6023   */\n  swap2\n  swap1\n  pop\n  jump\t// out\n    /* \"#utility.yul\":6029:6448   */\ntag_15:\n    /* \"#utility.yul\":6195:6199   */\n  0x00\n    /* \"#utility.yul\":6233:6235   */\n  0x20\n    /* \"#utility.yul\":6222:6231   */\n  dup3\n    /* \"#utility.yul\":6218:6236   */\n  add\n    /* \"#utility.yul\":6210:6236   */\n  swap1\n  pop\n    /* \"#utility.yul\":6282:6291   */\n  dup2\n    /* \"#utility.yul\":6276:6280   */\n  dup2\n    /* \"#utility.yul\":6272:6292   */\n  sub\n    /* \"#utility.yul\":6268:6269   */\n  0x00\n    /* \"#utility.yul\":6257:6266   */\n  dup4\n    /* \"#utility.yul\":6253:6270   */\n  add\n    /* \"#utility.yul\":6246:6293   */\n  mstore\n    /* \"#utility.yul\":6310:6441   */\n  tag_123\n    /* \"#utility.yul\":6436:6440   */\n  dup2\n    /* \"#utility.yul\":6310:6441   */\n  tag_54\n  jump\t// in\ntag_123:\n    /* \"#utility.yul\":6302:6441   */\n  swap1\n  pop\n    /* \"#utility.yul\":6029:6448   */\n  swap2\n  swap1\n  pop\n  jump\t// out\n    /* \"#utility.yul\":6454:6610   */\ntag_55:\n    /* \"#utility.yul\":6594:6602   */\n  0x4451353030320000000000000000000000000000000000000000000000000000\n    /* \"#utility.yul\":6590:6591   */\n  0x00\n    /* \"#utility.yul\":6582:6588   */\n  dup3\n    /* \"#utility.yul\":6578:6592   */\n  add\n    /* \"#utility.yul\":6571:6603   */\n  mstore\n    /* \"#utility.yul\":6454:6610   */\n  pop\n  jump\t// out\n    /* \"#utility.yul\":6616:6981   */\ntag_56:\n    /* \"#utility.yul\":6758:6761   */\n  0x00\n    /* \"#utility.yul\":6779:6845   */\n  tag_126\n    /* \"#utility.yul\":6843:6844   */\n  0x06\n    /* \"#utility.yul\":6838:6841   */\n  dup4\n    /* \"#utility.yul\":6779:6845   */\n  tag_50\n  jump\t// in\ntag_126:\n    /* \"#utility.yul\":6772:6845   */\n  swap2\n  pop\n    /* \"#utility.yul\":6854:6947   */\n  tag_127\n    /* \"#utility.yul\":6943:6946   */\n  dup3\n    /* \"#utility.yul\":6854:6947   */\n  tag_55\n  jump\t// in\ntag_127:\n    /* \"#utility.yul\":6972:6974   */\n  0x20\n    /* \"#utility.yul\":6967:6970   */\n  dup3\n    /* \"#utility.yul\":6963:6975   */\n  add\n    /* \"#utility.yul\":6956:6975   */\n  swap1\n  pop\n    /* \"#utility.yul\":6616:6981   */\n  swap2\n  swap1\n  pop\n  jump\t// out\n    /* \"#utility.yul\":6987:7406   */\ntag_18:\n    /* \"#utility.yul\":7153:7157   */\n  0x00\n    /* \"#utility.yul\":7191:7193   */\n  0x20\n    /* \"#utility.yul\":7180:7189   */\n  dup3\n    /* \"#utility.yul\":7176:7194   */\n  add\n    /* \"#utility.yul\":7168:7194   */\n  swap1\n  pop\n    /* \"#utility.yul\":7240:7249   */\n  dup2\n    /* \"#utility.yul\":7234:7238   */\n  dup2\n    /* \"#utility.yul\":7230:7250   */\n  sub\n    /* \"#utility.yul\":7226:7227   */\n  0x00\n    /* \"#utility.yul\":7215:7224   */\n  dup4\n    /* \"#utility.yul\":7211:7228   */\n  add\n    /* \"#utility.yul\":7204:7251   */\n  mstore\n    /* \"#utility.yul\":7268:7399   */\n  tag_129\n    /* \"#utility.yul\":7394:7398   */\n  dup2\n    /* \"#utility.yul\":7268:7399   */\n  tag_56\n  jump\t// in\ntag_129:\n    /* \"#utility.yul\":7260:7399   */\n  swap1\n  pop\n    /* \"#utility.yul\":6987:7406   */\n  swap2\n  swap1\n  pop\n  jump\t// out\n    /* \"#utility.yul\":7412:7592   */\ntag_24:\n    /* \"#utility.yul\":7460:7537   */\n  0x4e487b7100000000000000000000000000000000000000000000000000000000\n    /* \"#utility.yul\":7457:7458   */\n  0x00\n    /* \"#utility.yul\":7450:7538   */\n  mstore\n    /* \"#utility.yul\":7557:7561   */\n  0x32\n    /* \"#utility.yul\":7554:7555   */\n  0x04\n    /* \"#utility.yul\":7547:7562   */\n  mstore\n    /* \"#utility.yul\":7581:7585   */\n  0x24\n    /* \"#utility.yul\":7578:7579   */\n  0x00\n    /* \"#utility.yul\":7571:7586   */\n  revert\n    /* \"#utility.yul\":7598:7754   */\ntag_57:\n    /* \"#utility.yul\":7738:7746   */\n  0x4451353030330000000000000000000000000000000000000000000000000000\n    /* \"#utility.yul\":7734:7735   */\n  0x00\n    /* \"#utility.yul\":7726:7732   */\n  dup3\n    /* \"#utility.yul\":7722:7736   */\n  add\n    /* \"#utility.yul\":7715:7747   */\n  mstore\n    /* \"#utility.yul\":7598:7754   */\n  pop\n  jump\t// out\n    /* \"#utility.yul\":7760:8125   */\ntag_58:\n    /* \"#utility.yul\":7902:7905   */\n  0x00\n    /* \"#utility.yul\":7923:7989   */\n  tag_133\n    /* \"#utility.yul\":7987:7988   */\n  0x06\n    /* \"#utility.yul\":7982:7985   */\n  dup4\n    /* \"#utility.yul\":7923:7989   */\n  tag_50\n  jump\t// in\ntag_133:\n    /* \"#utility.yul\":7916:7989   */\n  swap2\n  pop\n    /* \"#utility.yul\":7998:8091   */\n  tag_134\n    /* \"#utility.yul\":8087:8090   */\n  dup3\n    /* \"#utility.yul\":7998:8091   */\n  tag_57\n  jump\t// in\ntag_134:\n    /* \"#utility.yul\":8116:8118   */\n  0x20\n    /* \"#utility.yul\":8111:8114   */\n  dup3\n    /* \"#utility.yul\":8107:8119   */\n  add\n    /* \"#utility.yul\":8100:8119   */\n  swap1\n  pop\n    /* \"#utility.yul\":7760:8125   */\n  swap2\n  swap1\n  pop\n  jump\t// out\n    /* \"#utility.yul\":8131:8550   */\ntag_29:\n    /* \"#utility.yul\":8297:8301   */\n  0x00\n    /* \"#utility.yul\":8335:8337   */\n  0x20\n    /* \"#utility.yul\":8324:8333   */\n  dup3\n    /* \"#utility.yul\":8320:8338   */\n  add\n    /* \"#utility.yul\":8312:8338   */\n  swap1\n  pop\n    /* \"#utility.yul\":8384:8393   */\n  dup2\n    /* \"#utility.yul\":8378:8382   */\n  dup2\n    /* \"#utility.yul\":8374:8394   */\n  sub\n    /* \"#utility.yul\":8370:8371   */\n  0x00\n    /* \"#utility.yul\":8359:8368   */\n  dup4\n    /* \"#utility.yul\":8355:8372   */\n  add\n    /* \"#utility.yul\":8348:8395   */\n  mstore\n    /* \"#utility.yul\":8412:8543   */\n  tag_136\n    /* \"#utility.yul\":8538:8542   */\n  dup2\n    /* \"#utility.yul\":8412:8543   */\n  tag_58\n  jump\t// in\ntag_136:\n    /* \"#utility.yul\":8404:8543   */\n  swap1\n  pop\n    /* \"#utility.yul\":8131:8550   */\n  swap2\n  swap1\n  pop\n  jump\t// out\n    /* \"contracts/weekly-tasks/level2/t2/MultisigWallet.sol\":135:4509  contract MultisigWallet{... */\ntag_8:\n  dataSize(sub_0)\n  dup1\n  dataOffset(sub_0)\n  0x00\n  codecopy\n  0x00\n  return\nstop\n\nsub_0: assembly {\n        /* \"contracts/weekly-tasks/level2/t2/MultisigWallet.sol\":135:4509  contract MultisigWallet{... */\n      mstore(0x40, 0x80)\n      jumpi(tag_1, lt(calldatasize, 0x04))\n      shr(0xe0, calldataload(0x00))\n      dup1\n      0xa67dd509\n      gt\n      tag_10\n      jumpi\n      dup1\n      0xa67dd509\n      eq\n      tag_6\n      jumpi\n      dup1\n      0xaffed0e0\n      eq\n      tag_7\n      jumpi\n      dup1\n      0xd01aa318\n      eq\n      tag_8\n      jumpi\n      dup1\n      0xed516d51\n      eq\n      tag_9\n      jumpi\n      jump(tag_1)\n    tag_10:\n      dup1\n      0x025e7c27\n      eq\n      tag_2\n      jumpi\n      dup1\n      0x0db02622\n      eq\n      tag_3\n      jumpi\n      dup1\n      0x2f54bf6e\n      eq\n      tag_4\n      jumpi\n      dup1\n      0x42cde4e8\n      eq\n      tag_5\n      jumpi\n    tag_1:\n      0x00\n      dup1\n      revert\n        /* \"contracts/weekly-tasks/level2/t2/MultisigWallet.sol\":165:188  address[] public owners */\n    tag_2:\n      callvalue\n      dup1\n      iszero\n      tag_11\n      jumpi\n      0x00\n      dup1\n      revert\n    tag_11:\n      pop\n      tag_12\n      0x04\n      dup1\n      calldatasize\n      sub\n      dup2\n      add\n      swap1\n      tag_13\n      swap2\n      swap1\n      tag_14\n      jump\t// in\n    tag_13:\n      tag_15\n      jump\t// in\n    tag_12:\n      mload(0x40)\n      tag_16\n      swap2\n      swap1\n      tag_17\n      jump\t// in\n    tag_16:\n      mload(0x40)\n      dup1\n      swap2\n      sub\n      swap1\n      return\n        /* \"contracts/weekly-tasks/level2/t2/MultisigWallet.sol\":309:334  uint256 public ownerCount */\n    tag_3:\n      callvalue\n      dup1\n      iszero\n      tag_18\n      jumpi\n      0x00\n      dup1\n      revert\n    tag_18:\n      pop\n      tag_19\n      tag_20\n      jump\t// in\n    tag_19:\n      mload(0x40)\n      tag_21\n      swap2\n      swap1\n      tag_22\n      jump\t// in\n    tag_21:\n      mload(0x40)\n      dup1\n      swap2\n      sub\n      swap1\n      return\n        /* \"contracts/weekly-tasks/level2/t2/MultisigWallet.sol\":220:257  mapping(address=>bool) public isOwner */\n    tag_4:\n      callvalue\n      dup1\n      iszero\n      tag_23\n      jumpi\n      0x00\n      dup1\n      revert\n    tag_23:\n      pop\n      tag_24\n      0x04\n      dup1\n      calldatasize\n      sub\n      dup2\n      add\n      swap1\n      tag_25\n      swap2\n      swap1\n      tag_26\n      jump\t// in\n    tag_25:\n      tag_27\n      jump\t// in\n    tag_24:\n      mload(0x40)\n      tag_28\n      swap2\n      swap1\n      tag_29\n      jump\t// in\n    tag_28:\n      mload(0x40)\n      dup1\n      swap2\n      sub\n      swap1\n      return\n        /* \"contracts/weekly-tasks/level2/t2/MultisigWallet.sol\":365:389  uint256 public threshold */\n    tag_5:\n      callvalue\n      dup1\n      iszero\n      tag_30\n      jumpi\n      0x00\n      dup1\n      revert\n    tag_30:\n      pop\n      tag_31\n      tag_32\n      jump\t// in\n    tag_31:\n      mload(0x40)\n      tag_33\n      swap2\n      swap1\n      tag_22\n      jump\t// in\n    tag_33:\n      mload(0x40)\n      dup1\n      swap2\n      sub\n      swap1\n      return\n        /* \"contracts/weekly-tasks/level2/t2/MultisigWallet.sol\":4239:4506  function encodeTransactionData(address to,uint256 value,bytes memory data,uint256 _nonce,uint256 chainid)... */\n    tag_6:\n      callvalue\n      dup1\n      iszero\n      tag_34\n      jumpi\n      0x00\n      dup1\n      revert\n    tag_34:\n      pop\n      tag_35\n      0x04\n      dup1\n      calldatasize\n      sub\n      dup2\n      add\n      swap1\n      tag_36\n      swap2\n      swap1\n      tag_37\n      jump\t// in\n    tag_36:\n      tag_38\n      jump\t// in\n    tag_35:\n      mload(0x40)\n      tag_39\n      swap2\n      swap1\n      tag_40\n      jump\t// in\n    tag_39:\n      mload(0x40)\n      dup1\n      swap2\n      sub\n      swap1\n      return\n        /* \"contracts/weekly-tasks/level2/t2/MultisigWallet.sol\":472:492  uint256 public nonce */\n    tag_7:\n      callvalue\n      dup1\n      iszero\n      tag_41\n      jumpi\n      0x00\n      dup1\n      revert\n    tag_41:\n      pop\n      tag_42\n      tag_43\n      jump\t// in\n    tag_42:\n      mload(0x40)\n      tag_44\n      swap2\n      swap1\n      tag_22\n      jump\t// in\n    tag_44:\n      mload(0x40)\n      dup1\n      swap2\n      sub\n      swap1\n      return\n        /* \"contracts/weekly-tasks/level2/t2/MultisigWallet.sol\":2075:2559  function execTransaction(address to,uint256 value,bytes memory data,bytes memory signatures) ... */\n    tag_8:\n      tag_45\n      0x04\n      dup1\n      calldatasize\n      sub\n      dup2\n      add\n      swap1\n      tag_46\n      swap2\n      swap1\n      tag_47\n      jump\t// in\n    tag_46:\n      tag_48\n      jump\t// in\n    tag_45:\n      mload(0x40)\n      tag_49\n      swap2\n      swap1\n      tag_29\n      jump\t// in\n    tag_49:\n      mload(0x40)\n      dup1\n      swap2\n      sub\n      swap1\n      return\n        /* \"contracts/weekly-tasks/level2/t2/MultisigWallet.sol\":2779:3474  function checkSignatures(bytes32 dataHash, bytes memory signatures) public view{... */\n    tag_9:\n      callvalue\n      dup1\n      iszero\n      tag_50\n      jumpi\n      0x00\n      dup1\n      revert\n    tag_50:\n      pop\n      tag_51\n      0x04\n      dup1\n      calldatasize\n      sub\n      dup2\n      add\n      swap1\n      tag_52\n      swap2\n      swap1\n      tag_53\n      jump\t// in\n    tag_52:\n      tag_54\n      jump\t// in\n    tag_51:\n      stop\n        /* \"contracts/weekly-tasks/level2/t2/MultisigWallet.sol\":165:188  address[] public owners */\n    tag_15:\n      0x00\n      dup2\n      dup2\n      sload\n      dup2\n      lt\n      tag_55\n      jumpi\n      0x00\n      dup1\n      revert\n    tag_55:\n      swap1\n      0x00\n      mstore\n      keccak256(0x00, 0x20)\n      add\n      0x00\n      swap2\n      pop\n      sload\n      swap1\n      0x0100\n      exp\n      swap1\n      div\n      0xffffffffffffffffffffffffffffffffffffffff\n      and\n      dup2\n      jump\t// out\n        /* \"contracts/weekly-tasks/level2/t2/MultisigWallet.sol\":309:334  uint256 public ownerCount */\n    tag_20:\n      sload(0x02)\n      dup2\n      jump\t// out\n        /* \"contracts/weekly-tasks/level2/t2/MultisigWallet.sol\":220:257  mapping(address=>bool) public isOwner */\n    tag_27:\n      mstore(0x20, 0x01)\n      dup1\n      0x00\n      mstore\n      keccak256(0x00, 0x40)\n      0x00\n      swap2\n      pop\n      sload\n      swap1\n      0x0100\n      exp\n      swap1\n      div\n      0xff\n      and\n      dup2\n      jump\t// out\n        /* \"contracts/weekly-tasks/level2/t2/MultisigWallet.sol\":365:389  uint256 public threshold */\n    tag_32:\n      sload(0x03)\n      dup2\n      jump\t// out\n        /* \"contracts/weekly-tasks/level2/t2/MultisigWallet.sol\":4239:4506  function encodeTransactionData(address to,uint256 value,bytes memory data,uint256 _nonce,uint256 chainid)... */\n    tag_38:\n        /* \"contracts/weekly-tasks/level2/t2/MultisigWallet.sol\":4370:4377  bytes32 */\n      0x00\n        /* \"contracts/weekly-tasks/level2/t2/MultisigWallet.sol\":4389:4407  bytes32 safeTxHash */\n      dup1\n        /* \"contracts/weekly-tasks/level2/t2/MultisigWallet.sol\":4429:4431  to */\n      dup7\n        /* \"contracts/weekly-tasks/level2/t2/MultisigWallet.sol\":4432:4437  value */\n      dup7\n        /* \"contracts/weekly-tasks/level2/t2/MultisigWallet.sol\":4448:4452  data */\n      dup7\n        /* \"contracts/weekly-tasks/level2/t2/MultisigWallet.sol\":4438:4453  keccak256(data) */\n      dup1\n      mload\n      swap1\n      0x20\n      add\n      keccak256\n        /* \"contracts/weekly-tasks/level2/t2/MultisigWallet.sol\":4454:4460  _nonce */\n      dup7\n        /* \"contracts/weekly-tasks/level2/t2/MultisigWallet.sol\":4461:4468  chainid */\n      dup7\n        /* \"contracts/weekly-tasks/level2/t2/MultisigWallet.sol\":4418:4469  abi.encode(to,value,keccak256(data),_nonce,chainid) */\n      add(0x20, mload(0x40))\n      tag_58\n      swap6\n      swap5\n      swap4\n      swap3\n      swap2\n      swap1\n      tag_59\n      jump\t// in\n    tag_58:\n      mload(0x40)\n      0x20\n      dup2\n      dup4\n      sub\n      sub\n      dup2\n      mstore\n      swap1\n      0x40\n      mstore\n        /* \"contracts/weekly-tasks/level2/t2/MultisigWallet.sol\":4408:4470  keccak256(abi.encode(to,value,keccak256(data),_nonce,chainid)) */\n      dup1\n      mload\n      swap1\n      0x20\n      add\n      keccak256\n        /* \"contracts/weekly-tasks/level2/t2/MultisigWallet.sol\":4389:4470  bytes32 safeTxHash=keccak256(abi.encode(to,value,keccak256(data),_nonce,chainid)) */\n      swap1\n      pop\n        /* \"contracts/weekly-tasks/level2/t2/MultisigWallet.sol\":4488:4498  safeTxHash */\n      dup1\n        /* \"contracts/weekly-tasks/level2/t2/MultisigWallet.sol\":4481:4498  return safeTxHash */\n      swap2\n      pop\n      pop\n        /* \"contracts/weekly-tasks/level2/t2/MultisigWallet.sol\":4239:4506  function encodeTransactionData(address to,uint256 value,bytes memory data,uint256 _nonce,uint256 chainid)... */\n      swap6\n      swap5\n      pop\n      pop\n      pop\n      pop\n      pop\n      jump\t// out\n        /* \"contracts/weekly-tasks/level2/t2/MultisigWallet.sol\":472:492  uint256 public nonce */\n    tag_43:\n      sload(0x04)\n      dup2\n      jump\t// out\n        /* \"contracts/weekly-tasks/level2/t2/MultisigWallet.sol\":2075:2559  function execTransaction(address to,uint256 value,bytes memory data,bytes memory signatures) ... */\n    tag_48:\n        /* \"contracts/weekly-tasks/level2/t2/MultisigWallet.sol\":2205:2217  bool success */\n      0x00\n        /* \"contracts/weekly-tasks/level2/t2/MultisigWallet.sol\":2229:2243  bytes32 txHash */\n      dup1\n        /* \"contracts/weekly-tasks/level2/t2/MultisigWallet.sol\":2244:2304  encodeTransactionData(to, value, data, nonce, block.chainid) */\n      tag_61\n        /* \"contracts/weekly-tasks/level2/t2/MultisigWallet.sol\":2266:2268  to */\n      dup7\n        /* \"contracts/weekly-tasks/level2/t2/MultisigWallet.sol\":2270:2275  value */\n      dup7\n        /* \"contracts/weekly-tasks/level2/t2/MultisigWallet.sol\":2277:2281  data */\n      dup7\n        /* \"contracts/weekly-tasks/level2/t2/MultisigWallet.sol\":2283:2288  nonce */\n      sload(0x04)\n        /* \"contracts/weekly-tasks/level2/t2/MultisigWallet.sol\":2290:2303  block.chainid */\n      chainid\n        /* \"contracts/weekly-tasks/level2/t2/MultisigWallet.sol\":2244:2265  encodeTransactionData */\n      tag_38\n        /* \"contracts/weekly-tasks/level2/t2/MultisigWallet.sol\":2244:2304  encodeTransactionData(to, value, data, nonce, block.chainid) */\n      jump\t// in\n    tag_61:\n        /* \"contracts/weekly-tasks/level2/t2/MultisigWallet.sol\":2229:2304  bytes32 txHash=encodeTransactionData(to, value, data, nonce, block.chainid) */\n      swap1\n      pop\n        /* \"contracts/weekly-tasks/level2/t2/MultisigWallet.sol\":2315:2320  nonce */\n      0x04\n      0x00\n        /* \"contracts/weekly-tasks/level2/t2/MultisigWallet.sol\":2315:2322  nonce++ */\n      dup2\n      sload\n      dup1\n      swap3\n      swap2\n      swap1\n      tag_62\n      swap1\n      tag_63\n      jump\t// in\n    tag_62:\n      swap2\n      swap1\n      pop\n      sstore\n      pop\n        /* \"contracts/weekly-tasks/level2/t2/MultisigWallet.sol\":2333:2368  checkSignatures(txHash, signatures) */\n      tag_64\n        /* \"contracts/weekly-tasks/level2/t2/MultisigWallet.sol\":2349:2355  txHash */\n      dup2\n        /* \"contracts/weekly-tasks/level2/t2/MultisigWallet.sol\":2357:2367  signatures */\n      dup5\n        /* \"contracts/weekly-tasks/level2/t2/MultisigWallet.sol\":2333:2348  checkSignatures */\n      tag_54\n        /* \"contracts/weekly-tasks/level2/t2/MultisigWallet.sol\":2333:2368  checkSignatures(txHash, signatures) */\n      jump\t// in\n    tag_64:\n        /* \"contracts/weekly-tasks/level2/t2/MultisigWallet.sol\":2390:2392  to */\n      dup6\n        /* \"contracts/weekly-tasks/level2/t2/MultisigWallet.sol\":2390:2397  to.call */\n      0xffffffffffffffffffffffffffffffffffffffff\n      and\n        /* \"contracts/weekly-tasks/level2/t2/MultisigWallet.sol\":2404:2409  value */\n      dup6\n        /* \"contracts/weekly-tasks/level2/t2/MultisigWallet.sol\":2411:2415  data */\n      dup6\n        /* \"contracts/weekly-tasks/level2/t2/MultisigWallet.sol\":2390:2416  to.call{value:value}(data) */\n      mload(0x40)\n      tag_65\n      swap2\n      swap1\n      tag_66\n      jump\t// in\n    tag_65:\n      0x00\n      mload(0x40)\n      dup1\n      dup4\n      sub\n      dup2\n      dup6\n      dup8\n      gas\n      call\n      swap3\n      pop\n      pop\n      pop\n      returndatasize\n      dup1\n      0x00\n      dup2\n      eq\n      tag_69\n      jumpi\n      mload(0x40)\n      swap2\n      pop\n      and(add(returndatasize, 0x3f), not(0x1f))\n      dup3\n      add\n      0x40\n      mstore\n      returndatasize\n      dup3\n      mstore\n      returndatasize\n      0x00\n      0x20\n      dup5\n      add\n      returndatacopy\n      jump(tag_68)\n    tag_69:\n      0x60\n      swap2\n      pop\n    tag_68:\n      pop\n        /* \"contracts/weekly-tasks/level2/t2/MultisigWallet.sol\":2379:2416  (success,)=to.call{value:value}(data) */\n      pop\n      dup1\n      swap3\n      pop\n      pop\n        /* \"contracts/weekly-tasks/level2/t2/MultisigWallet.sol\":2468:2475  success */\n      dup2\n        /* \"contracts/weekly-tasks/level2/t2/MultisigWallet.sol\":2465:2551  if(success) emit ExecutionSuccess(txHash);... */\n      iszero\n      tag_70\n      jumpi\n        /* \"contracts/weekly-tasks/level2/t2/MultisigWallet.sol\":2482:2506  ExecutionSuccess(txHash) */\n      0xdc29884a71d2bb98d3c53dc09718be05c7bfd142b7773a5c5cf2517629290ac0\n        /* \"contracts/weekly-tasks/level2/t2/MultisigWallet.sol\":2499:2505  txHash */\n      dup2\n        /* \"contracts/weekly-tasks/level2/t2/MultisigWallet.sol\":2482:2506  ExecutionSuccess(txHash) */\n      mload(0x40)\n      tag_71\n      swap2\n      swap1\n      tag_40\n      jump\t// in\n    tag_71:\n      mload(0x40)\n      dup1\n      swap2\n      sub\n      swap1\n      log1\n        /* \"contracts/weekly-tasks/level2/t2/MultisigWallet.sol\":2465:2551  if(success) emit ExecutionSuccess(txHash);... */\n      jump(tag_72)\n    tag_70:\n        /* \"contracts/weekly-tasks/level2/t2/MultisigWallet.sol\":2527:2551  ExecutionFailure(txHash) */\n      0xdbe42d02a4e07d7eeff2874efe172540c93b297d206f6d691c9782a257323e32\n        /* \"contracts/weekly-tasks/level2/t2/MultisigWallet.sol\":2544:2550  txHash */\n      dup2\n        /* \"contracts/weekly-tasks/level2/t2/MultisigWallet.sol\":2527:2551  ExecutionFailure(txHash) */\n      mload(0x40)\n      tag_73\n      swap2\n      swap1\n      tag_40\n      jump\t// in\n    tag_73:\n      mload(0x40)\n      dup1\n      swap2\n      sub\n      swap1\n      log1\n        /* \"contracts/weekly-tasks/level2/t2/MultisigWallet.sol\":2465:2551  if(success) emit ExecutionSuccess(txHash);... */\n    tag_72:\n        /* \"contracts/weekly-tasks/level2/t2/MultisigWallet.sol\":2218:2559  {... */\n      pop\n        /* \"contracts/weekly-tasks/level2/t2/MultisigWallet.sol\":2075:2559  function execTransaction(address to,uint256 value,bytes memory data,bytes memory signatures) ... */\n      swap5\n      swap4\n      pop\n      pop\n      pop\n      pop\n      jump\t// out\n        /* \"contracts/weekly-tasks/level2/t2/MultisigWallet.sol\":2779:3474  function checkSignatures(bytes32 dataHash, bytes memory signatures) public view{... */\n    tag_54:\n        /* \"contracts/weekly-tasks/level2/t2/MultisigWallet.sol\":2869:2887  uint256 _threshold */\n      0x00\n        /* \"contracts/weekly-tasks/level2/t2/MultisigWallet.sol\":2888:2897  threshold */\n      sload(0x03)\n        /* \"contracts/weekly-tasks/level2/t2/MultisigWallet.sol\":2869:2897  uint256 _threshold=threshold */\n      swap1\n      pop\n        /* \"contracts/weekly-tasks/level2/t2/MultisigWallet.sol\":2927:2928  0 */\n      0x00\n        /* \"contracts/weekly-tasks/level2/t2/MultisigWallet.sol\":2916:2926  _threshold */\n      dup2\n        /* \"contracts/weekly-tasks/level2/t2/MultisigWallet.sol\":2916:2928  _threshold>0 */\n      gt\n        /* \"contracts/weekly-tasks/level2/t2/MultisigWallet.sol\":2908:2938  require(_threshold>0,\"DQ5005\") */\n      tag_75\n      jumpi\n      mload(0x40)\n      0x08c379a000000000000000000000000000000000000000000000000000000000\n      dup2\n      mstore\n      0x04\n      add\n      tag_76\n      swap1\n      tag_77\n      jump\t// in\n    tag_76:\n      mload(0x40)\n      dup1\n      swap2\n      sub\n      swap1\n      revert\n    tag_75:\n        /* \"contracts/weekly-tasks/level2/t2/MultisigWallet.sol\":2987:2989  65 */\n      0x41\n        /* \"contracts/weekly-tasks/level2/t2/MultisigWallet.sol\":2976:2986  _threshold */\n      dup2\n        /* \"contracts/weekly-tasks/level2/t2/MultisigWallet.sol\":2976:2989  _threshold*65 */\n      tag_78\n      swap2\n      swap1\n      tag_79\n      jump\t// in\n    tag_78:\n        /* \"contracts/weekly-tasks/level2/t2/MultisigWallet.sol\":2957:2967  signatures */\n      dup3\n        /* \"contracts/weekly-tasks/level2/t2/MultisigWallet.sol\":2957:2974  signatures.length */\n      mload\n        /* \"contracts/weekly-tasks/level2/t2/MultisigWallet.sol\":2957:2989  signatures.length>=_threshold*65 */\n      lt\n      iszero\n        /* \"contracts/weekly-tasks/level2/t2/MultisigWallet.sol\":2949:2999  require(signatures.length>=_threshold*65,\"DQ5006\") */\n      tag_80\n      jumpi\n      mload(0x40)\n      0x08c379a000000000000000000000000000000000000000000000000000000000\n      dup2\n      mstore\n      0x04\n      add\n      tag_81\n      swap1\n      tag_82\n      jump\t// in\n    tag_81:\n      mload(0x40)\n      dup1\n      swap2\n      sub\n      swap1\n      revert\n    tag_80:\n        /* \"contracts/weekly-tasks/level2/t2/MultisigWallet.sol\":3010:3027  address lastOwner */\n      0x00\n        /* \"contracts/weekly-tasks/level2/t2/MultisigWallet.sol\":3049:3068  address curentOwner */\n      dup1\n        /* \"contracts/weekly-tasks/level2/t2/MultisigWallet.sol\":3079:3088  bytes32 r */\n      dup1\n        /* \"contracts/weekly-tasks/level2/t2/MultisigWallet.sol\":3099:3108  bytes32 s */\n      0x00\n        /* \"contracts/weekly-tasks/level2/t2/MultisigWallet.sol\":3119:3126  uint8 v */\n      dup1\n        /* \"contracts/weekly-tasks/level2/t2/MultisigWallet.sol\":3141:3150  uint256 i */\n      0x00\n        /* \"contracts/weekly-tasks/level2/t2/MultisigWallet.sol\":3137:3467  for(uint256 i=0;i<_threshold;i++){... */\n    tag_83:\n        /* \"contracts/weekly-tasks/level2/t2/MultisigWallet.sol\":3155:3165  _threshold */\n      dup7\n        /* \"contracts/weekly-tasks/level2/t2/MultisigWallet.sol\":3153:3154  i */\n      dup2\n        /* \"contracts/weekly-tasks/level2/t2/MultisigWallet.sol\":3153:3165  i<_threshold */\n      lt\n        /* \"contracts/weekly-tasks/level2/t2/MultisigWallet.sol\":3137:3467  for(uint256 i=0;i<_threshold;i++){... */\n      iszero\n      tag_84\n      jumpi\n        /* \"contracts/weekly-tasks/level2/t2/MultisigWallet.sol\":3193:3222  signatureSplit(signatures, i) */\n      tag_86\n        /* \"contracts/weekly-tasks/level2/t2/MultisigWallet.sol\":3208:3218  signatures */\n      dup9\n        /* \"contracts/weekly-tasks/level2/t2/MultisigWallet.sol\":3220:3221  i */\n      dup3\n        /* \"contracts/weekly-tasks/level2/t2/MultisigWallet.sol\":3193:3207  signatureSplit */\n      tag_87\n        /* \"contracts/weekly-tasks/level2/t2/MultisigWallet.sol\":3193:3222  signatureSplit(signatures, i) */\n      jump\t// in\n    tag_86:\n        /* \"contracts/weekly-tasks/level2/t2/MultisigWallet.sol\":3185:3222  (v,r,s)=signatureSplit(signatures, i) */\n      dup1\n      swap6\n      pop\n      dup2\n      swap7\n      pop\n      dup3\n      swap5\n      pop\n      pop\n      pop\n      pop\n        /* \"contracts/weekly-tasks/level2/t2/MultisigWallet.sol\":3249:3341  ecrecover(keccak256(abi.encodePacked(\"\\x19Ethereum Signed Message:\\n32\",dataHash)), v, r, s) */\n      0x01\n        /* \"contracts/weekly-tasks/level2/t2/MultisigWallet.sol\":3321:3329  dataHash */\n      dup10\n        /* \"contracts/weekly-tasks/level2/t2/MultisigWallet.sol\":3269:3330  abi.encodePacked(\"\\x19Ethereum Signed Message:\\n32\",dataHash) */\n      add(0x20, mload(0x40))\n      tag_88\n      swap2\n      swap1\n      tag_89\n      jump\t// in\n    tag_88:\n      mload(0x40)\n      0x20\n      dup2\n      dup4\n      sub\n      sub\n      dup2\n      mstore\n      swap1\n      0x40\n      mstore\n        /* \"contracts/weekly-tasks/level2/t2/MultisigWallet.sol\":3259:3331  keccak256(abi.encodePacked(\"\\x19Ethereum Signed Message:\\n32\",dataHash)) */\n      dup1\n      mload\n      swap1\n      0x20\n      add\n      keccak256\n        /* \"contracts/weekly-tasks/level2/t2/MultisigWallet.sol\":3333:3334  v */\n      dup4\n        /* \"contracts/weekly-tasks/level2/t2/MultisigWallet.sol\":3336:3337  r */\n      dup7\n        /* \"contracts/weekly-tasks/level2/t2/MultisigWallet.sol\":3339:3340  s */\n      dup7\n        /* \"contracts/weekly-tasks/level2/t2/MultisigWallet.sol\":3249:3341  ecrecover(keccak256(abi.encodePacked(\"\\x19Ethereum Signed Message:\\n32\",dataHash)), v, r, s) */\n      mload(0x40)\n      0x00\n      dup2\n      mstore\n      0x20\n      add\n      0x40\n      mstore\n      mload(0x40)\n      tag_90\n      swap5\n      swap4\n      swap3\n      swap2\n      swap1\n      tag_91\n      jump\t// in\n    tag_90:\n      0x20\n      mload(0x40)\n      0x20\n      dup2\n      sub\n      swap1\n      dup1\n      dup5\n      sub\n      swap1\n      dup6\n      gas\n      staticcall\n      iszero\n      dup1\n      iszero\n      tag_93\n      jumpi\n      returndatasize\n      0x00\n      dup1\n      returndatacopy\n      revert(0x00, returndatasize)\n    tag_93:\n      pop\n      pop\n      pop\n      mload(sub(mload(0x40), 0x20))\n        /* \"contracts/weekly-tasks/level2/t2/MultisigWallet.sol\":3237:3341  curentOwner=ecrecover(keccak256(abi.encodePacked(\"\\x19Ethereum Signed Message:\\n32\",dataHash)), v, r, s) */\n      swap5\n      pop\n        /* \"contracts/weekly-tasks/level2/t2/MultisigWallet.sol\":3376:3385  lastOwner */\n      dup6\n        /* \"contracts/weekly-tasks/level2/t2/MultisigWallet.sol\":3364:3385  curentOwner>lastOwner */\n      0xffffffffffffffffffffffffffffffffffffffff\n      and\n        /* \"contracts/weekly-tasks/level2/t2/MultisigWallet.sol\":3364:3375  curentOwner */\n      dup6\n        /* \"contracts/weekly-tasks/level2/t2/MultisigWallet.sol\":3364:3385  curentOwner>lastOwner */\n      0xffffffffffffffffffffffffffffffffffffffff\n      and\n      gt\n        /* \"contracts/weekly-tasks/level2/t2/MultisigWallet.sol\":3364:3409  curentOwner>lastOwner && isOwner[curentOwner] */\n      dup1\n      iszero\n      tag_94\n      jumpi\n      pop\n        /* \"contracts/weekly-tasks/level2/t2/MultisigWallet.sol\":3389:3396  isOwner */\n      0x01\n        /* \"contracts/weekly-tasks/level2/t2/MultisigWallet.sol\":3389:3409  isOwner[curentOwner] */\n      0x00\n        /* \"contracts/weekly-tasks/level2/t2/MultisigWallet.sol\":3397:3408  curentOwner */\n      dup7\n        /* \"contracts/weekly-tasks/level2/t2/MultisigWallet.sol\":3389:3409  isOwner[curentOwner] */\n      0xffffffffffffffffffffffffffffffffffffffff\n      and\n      0xffffffffffffffffffffffffffffffffffffffff\n      and\n      dup2\n      mstore\n      0x20\n      add\n      swap1\n      dup2\n      mstore\n      0x20\n      add\n      0x00\n      keccak256\n      0x00\n      swap1\n      sload\n      swap1\n      0x0100\n      exp\n      swap1\n      div\n      0xff\n      and\n        /* \"contracts/weekly-tasks/level2/t2/MultisigWallet.sol\":3364:3409  curentOwner>lastOwner && isOwner[curentOwner] */\n    tag_94:\n        /* \"contracts/weekly-tasks/level2/t2/MultisigWallet.sol\":3356:3419  require(curentOwner>lastOwner && isOwner[curentOwner],\"DQ5007\") */\n      tag_95\n      jumpi\n      mload(0x40)\n      0x08c379a000000000000000000000000000000000000000000000000000000000\n      dup2\n      mstore\n      0x04\n      add\n      tag_96\n      swap1\n      tag_97\n      jump\t// in\n    tag_96:\n      mload(0x40)\n      dup1\n      swap2\n      sub\n      swap1\n      revert\n    tag_95:\n        /* \"contracts/weekly-tasks/level2/t2/MultisigWallet.sol\":3444:3455  curentOwner */\n      dup5\n        /* \"contracts/weekly-tasks/level2/t2/MultisigWallet.sol\":3434:3455  lastOwner=curentOwner */\n      swap6\n      pop\n        /* \"contracts/weekly-tasks/level2/t2/MultisigWallet.sol\":3166:3169  i++ */\n      dup1\n      dup1\n      0x01\n      add\n      swap2\n      pop\n      pop\n        /* \"contracts/weekly-tasks/level2/t2/MultisigWallet.sol\":3137:3467  for(uint256 i=0;i<_threshold;i++){... */\n      jump(tag_83)\n    tag_84:\n      pop\n        /* \"contracts/weekly-tasks/level2/t2/MultisigWallet.sol\":2858:3474  {... */\n      pop\n      pop\n      pop\n      pop\n      pop\n      pop\n        /* \"contracts/weekly-tasks/level2/t2/MultisigWallet.sol\":2779:3474  function checkSignatures(bytes32 dataHash, bytes memory signatures) public view{... */\n      pop\n      pop\n      jump\t// out\n        /* \"contracts/weekly-tasks/level2/t2/MultisigWallet.sol\":3610:4000  function signatureSplit(bytes memory signatures,uint256 pos) internal pure returns(uint8 v,bytes32 r,bytes32 s){... */\n    tag_87:\n        /* \"contracts/weekly-tasks/level2/t2/MultisigWallet.sol\":3693:3700  uint8 v */\n      0x00\n        /* \"contracts/weekly-tasks/level2/t2/MultisigWallet.sol\":3701:3710  bytes32 r */\n      dup1\n        /* \"contracts/weekly-tasks/level2/t2/MultisigWallet.sol\":3711:3720  bytes32 s */\n      0x00\n        /* \"contracts/weekly-tasks/level2/t2/MultisigWallet.sol\":3782:3785  pos */\n      dup4\n        /* \"contracts/weekly-tasks/level2/t2/MultisigWallet.sol\":3777:3781  0x41 */\n      0x41\n        /* \"contracts/weekly-tasks/level2/t2/MultisigWallet.sol\":3773:3786  mul(0x41,pos) */\n      mul\n        /* \"contracts/weekly-tasks/level2/t2/MultisigWallet.sol\":3841:3845  0x20 */\n      0x20\n        /* \"contracts/weekly-tasks/level2/t2/MultisigWallet.sol\":3828:3840  signaturePos */\n      dup2\n        /* \"contracts/weekly-tasks/level2/t2/MultisigWallet.sol\":3824:3846  add(signaturePos,0x20) */\n      add\n        /* \"contracts/weekly-tasks/level2/t2/MultisigWallet.sol\":3813:3823  signatures */\n      dup7\n        /* \"contracts/weekly-tasks/level2/t2/MultisigWallet.sol\":3809:3847  add(signatures,add(signaturePos,0x20)) */\n      add\n        /* \"contracts/weekly-tasks/level2/t2/MultisigWallet.sol\":3803:3848  mload(add(signatures,add(signaturePos,0x20))) */\n      mload\n        /* \"contracts/weekly-tasks/level2/t2/MultisigWallet.sol\":3800:3848  r:=mload(add(signatures,add(signaturePos,0x20))) */\n      swap3\n      pop\n        /* \"contracts/weekly-tasks/level2/t2/MultisigWallet.sol\":3903:3907  0x40 */\n      0x40\n        /* \"contracts/weekly-tasks/level2/t2/MultisigWallet.sol\":3890:3902  signaturePos */\n      dup2\n        /* \"contracts/weekly-tasks/level2/t2/MultisigWallet.sol\":3886:3908  add(signaturePos,0x40) */\n      add\n        /* \"contracts/weekly-tasks/level2/t2/MultisigWallet.sol\":3875:3885  signatures */\n      dup7\n        /* \"contracts/weekly-tasks/level2/t2/MultisigWallet.sol\":3871:3909  add(signatures,add(signaturePos,0x40)) */\n      add\n        /* \"contracts/weekly-tasks/level2/t2/MultisigWallet.sol\":3865:3910  mload(add(signatures,add(signaturePos,0x40))) */\n      mload\n        /* \"contracts/weekly-tasks/level2/t2/MultisigWallet.sol\":3862:3910  s:=mload(add(signatures,add(signaturePos,0x40))) */\n      swap2\n      pop\n        /* \"contracts/weekly-tasks/level2/t2/MultisigWallet.sol\":3977:3981  0xff */\n      0xff\n        /* \"contracts/weekly-tasks/level2/t2/MultisigWallet.sol\":3969:3973  0x41 */\n      0x41\n        /* \"contracts/weekly-tasks/level2/t2/MultisigWallet.sol\":3956:3968  signaturePos */\n      dup3\n        /* \"contracts/weekly-tasks/level2/t2/MultisigWallet.sol\":3952:3974  add(signaturePos,0x41) */\n      add\n        /* \"contracts/weekly-tasks/level2/t2/MultisigWallet.sol\":3941:3951  signatures */\n      dup8\n        /* \"contracts/weekly-tasks/level2/t2/MultisigWallet.sol\":3937:3975  add(signatures,add(signaturePos,0x41)) */\n      add\n        /* \"contracts/weekly-tasks/level2/t2/MultisigWallet.sol\":3931:3976  mload(add(signatures,add(signaturePos,0x41))) */\n      mload\n        /* \"contracts/weekly-tasks/level2/t2/MultisigWallet.sol\":3927:3982  and(mload(add(signatures,add(signaturePos,0x41))),0xff) */\n      and\n        /* \"contracts/weekly-tasks/level2/t2/MultisigWallet.sol\":3924:3982  v:=and(mload(add(signatures,add(signaturePos,0x41))),0xff) */\n      swap4\n      pop\n        /* \"contracts/weekly-tasks/level2/t2/MultisigWallet.sol\":3740:3993  {... */\n      pop\n        /* \"contracts/weekly-tasks/level2/t2/MultisigWallet.sol\":3610:4000  function signatureSplit(bytes memory signatures,uint256 pos) internal pure returns(uint8 v,bytes32 r,bytes32 s){... */\n      swap3\n      pop\n      swap3\n      pop\n      swap3\n      jump\t// out\n        /* \"#utility.yul\":7:82   */\n    tag_99:\n        /* \"#utility.yul\":40:46   */\n      0x00\n        /* \"#utility.yul\":73:75   */\n      0x40\n        /* \"#utility.yul\":67:76   */\n      mload\n        /* \"#utility.yul\":57:76   */\n      swap1\n      pop\n        /* \"#utility.yul\":7:82   */\n      swap1\n      jump\t// out\n        /* \"#utility.yul\":88:205   */\n    tag_100:\n        /* \"#utility.yul\":197:198   */\n      0x00\n        /* \"#utility.yul\":194:195   */\n      dup1\n        /* \"#utility.yul\":187:199   */\n      revert\n        /* \"#utility.yul\":211:328   */\n    tag_101:\n        /* \"#utility.yul\":320:321   */\n      0x00\n        /* \"#utility.yul\":317:318   */\n      dup1\n        /* \"#utility.yul\":310:322   */\n      revert\n        /* \"#utility.yul\":334:411   */\n    tag_102:\n        /* \"#utility.yul\":371:378   */\n      0x00\n        /* \"#utility.yul\":400:405   */\n      dup2\n        /* \"#utility.yul\":389:405   */\n      swap1\n      pop\n        /* \"#utility.yul\":334:411   */\n      swap2\n      swap1\n      pop\n      jump\t// out\n        /* \"#utility.yul\":417:539   */\n    tag_103:\n        /* \"#utility.yul\":490:514   */\n      tag_152\n        /* \"#utility.yul\":508:513   */\n      dup2\n        /* \"#utility.yul\":490:514   */\n      tag_102\n      jump\t// in\n    tag_152:\n        /* \"#utility.yul\":483:488   */\n      dup2\n        /* \"#utility.yul\":480:515   */\n      eq\n        /* \"#utility.yul\":470:533   */\n      tag_153\n      jumpi\n        /* \"#utility.yul\":529:530   */\n      0x00\n        /* \"#utility.yul\":526:527   */\n      dup1\n        /* \"#utility.yul\":519:531   */\n      revert\n        /* \"#utility.yul\":470:533   */\n    tag_153:\n        /* \"#utility.yul\":417:539   */\n      pop\n      jump\t// out\n        /* \"#utility.yul\":545:684   */\n    tag_104:\n        /* \"#utility.yul\":591:596   */\n      0x00\n        /* \"#utility.yul\":629:635   */\n      dup2\n        /* \"#utility.yul\":616:636   */\n      calldataload\n        /* \"#utility.yul\":607:636   */\n      swap1\n      pop\n        /* \"#utility.yul\":645:678   */\n      tag_155\n        /* \"#utility.yul\":672:677   */\n      dup2\n        /* \"#utility.yul\":645:678   */\n      tag_103\n      jump\t// in\n    tag_155:\n        /* \"#utility.yul\":545:684   */\n      swap3\n      swap2\n      pop\n      pop\n      jump\t// out\n        /* \"#utility.yul\":690:1019   */\n    tag_14:\n        /* \"#utility.yul\":749:755   */\n      0x00\n        /* \"#utility.yul\":798:800   */\n      0x20\n        /* \"#utility.yul\":786:795   */\n      dup3\n        /* \"#utility.yul\":777:784   */\n      dup5\n        /* \"#utility.yul\":773:796   */\n      sub\n        /* \"#utility.yul\":769:801   */\n      slt\n        /* \"#utility.yul\":766:885   */\n      iszero\n      tag_157\n      jumpi\n        /* \"#utility.yul\":804:883   */\n      tag_158\n      tag_100\n      jump\t// in\n    tag_158:\n        /* \"#utility.yul\":766:885   */\n    tag_157:\n        /* \"#utility.yul\":924:925   */\n      0x00\n        /* \"#utility.yul\":949:1002   */\n      tag_159\n        /* \"#utility.yul\":994:1001   */\n      dup5\n        /* \"#utility.yul\":985:991   */\n      dup3\n        /* \"#utility.yul\":974:983   */\n      dup6\n        /* \"#utility.yul\":970:992   */\n      add\n        /* \"#utility.yul\":949:1002   */\n      tag_104\n      jump\t// in\n    tag_159:\n        /* \"#utility.yul\":939:1002   */\n      swap2\n      pop\n        /* \"#utility.yul\":895:1012   */\n      pop\n        /* \"#utility.yul\":690:1019   */\n      swap3\n      swap2\n      pop\n      pop\n      jump\t// out\n        /* \"#utility.yul\":1025:1151   */\n    tag_105:\n        /* \"#utility.yul\":1062:1069   */\n      0x00\n        /* \"#utility.yul\":1102:1144   */\n      0xffffffffffffffffffffffffffffffffffffffff\n        /* \"#utility.yul\":1095:1100   */\n      dup3\n        /* \"#utility.yul\":1091:1145   */\n      and\n        /* \"#utility.yul\":1080:1145   */\n      swap1\n      pop\n        /* \"#utility.yul\":1025:1151   */\n      swap2\n      swap1\n      pop\n      jump\t// out\n        /* \"#utility.yul\":1157:1253   */\n    tag_106:\n        /* \"#utility.yul\":1194:1201   */\n      0x00\n        /* \"#utility.yul\":1223:1247   */\n      tag_162\n        /* \"#utility.yul\":1241:1246   */\n      dup3\n        /* \"#utility.yul\":1223:1247   */\n      tag_105\n      jump\t// in\n    tag_162:\n        /* \"#utility.yul\":1212:1247   */\n      swap1\n      pop\n        /* \"#utility.yul\":1157:1253   */\n      swap2\n      swap1\n      pop\n      jump\t// out\n        /* \"#utility.yul\":1259:1377   */\n    tag_107:\n        /* \"#utility.yul\":1346:1370   */\n      tag_164\n        /* \"#utility.yul\":1364:1369   */\n      dup2\n        /* \"#utility.yul\":1346:1370   */\n      tag_106\n      jump\t// in\n    tag_164:\n        /* \"#utility.yul\":1341:1344   */\n      dup3\n        /* \"#utility.yul\":1334:1371   */\n      mstore\n        /* \"#utility.yul\":1259:1377   */\n      pop\n      pop\n      jump\t// out\n        /* \"#utility.yul\":1383:1605   */\n    tag_17:\n        /* \"#utility.yul\":1476:1480   */\n      0x00\n        /* \"#utility.yul\":1514:1516   */\n      0x20\n        /* \"#utility.yul\":1503:1512   */\n      dup3\n        /* \"#utility.yul\":1499:1517   */\n      add\n        /* \"#utility.yul\":1491:1517   */\n      swap1\n      pop\n        /* \"#utility.yul\":1527:1598   */\n      tag_166\n        /* \"#utility.yul\":1595:1596   */\n      0x00\n        /* \"#utility.yul\":1584:1593   */\n      dup4\n        /* \"#utility.yul\":1580:1597   */\n      add\n        /* \"#utility.yul\":1571:1577   */\n      dup5\n        /* \"#utility.yul\":1527:1598   */\n      tag_107\n      jump\t// in\n    tag_166:\n        /* \"#utility.yul\":1383:1605   */\n      swap3\n      swap2\n      pop\n      pop\n      jump\t// out\n        /* \"#utility.yul\":1611:1729   */\n    tag_108:\n        /* \"#utility.yul\":1698:1722   */\n      tag_168\n        /* \"#utility.yul\":1716:1721   */\n      dup2\n        /* \"#utility.yul\":1698:1722   */\n      tag_102\n      jump\t// in\n    tag_168:\n        /* \"#utility.yul\":1693:1696   */\n      dup3\n        /* \"#utility.yul\":1686:1723   */\n      mstore\n        /* \"#utility.yul\":1611:1729   */\n      pop\n      pop\n      jump\t// out\n        /* \"#utility.yul\":1735:1957   */\n    tag_22:\n        /* \"#utility.yul\":1828:1832   */\n      0x00\n        /* \"#utility.yul\":1866:1868   */\n      0x20\n        /* \"#utility.yul\":1855:1864   */\n      dup3\n        /* \"#utility.yul\":1851:1869   */\n      add\n        /* \"#utility.yul\":1843:1869   */\n      swap1\n      pop\n        /* \"#utility.yul\":1879:1950   */\n      tag_170\n        /* \"#utility.yul\":1947:1948   */\n      0x00\n        /* \"#utility.yul\":1936:1945   */\n      dup4\n        /* \"#utility.yul\":1932:1949   */\n      add\n        /* \"#utility.yul\":1923:1929   */\n      dup5\n        /* \"#utility.yul\":1879:1950   */\n      tag_108\n      jump\t// in\n    tag_170:\n        /* \"#utility.yul\":1735:1957   */\n      swap3\n      swap2\n      pop\n      pop\n      jump\t// out\n        /* \"#utility.yul\":1963:2085   */\n    tag_109:\n        /* \"#utility.yul\":2036:2060   */\n      tag_172\n        /* \"#utility.yul\":2054:2059   */\n      dup2\n        /* \"#utility.yul\":2036:2060   */\n      tag_106\n      jump\t// in\n    tag_172:\n        /* \"#utility.yul\":2029:2034   */\n      dup2\n        /* \"#utility.yul\":2026:2061   */\n      eq\n        /* \"#utility.yul\":2016:2079   */\n      tag_173\n      jumpi\n        /* \"#utility.yul\":2075:2076   */\n      0x00\n        /* \"#utility.yul\":2072:2073   */\n      dup1\n        /* \"#utility.yul\":2065:2077   */\n      revert\n        /* \"#utility.yul\":2016:2079   */\n    tag_173:\n        /* \"#utility.yul\":1963:2085   */\n      pop\n      jump\t// out\n        /* \"#utility.yul\":2091:2230   */\n    tag_110:\n        /* \"#utility.yul\":2137:2142   */\n      0x00\n        /* \"#utility.yul\":2175:2181   */\n      dup2\n        /* \"#utility.yul\":2162:2182   */\n      calldataload\n        /* \"#utility.yul\":2153:2182   */\n      swap1\n      pop\n        /* \"#utility.yul\":2191:2224   */\n      tag_175\n        /* \"#utility.yul\":2218:2223   */\n      dup2\n        /* \"#utility.yul\":2191:2224   */\n      tag_109\n      jump\t// in\n    tag_175:\n        /* \"#utility.yul\":2091:2230   */\n      swap3\n      swap2\n      pop\n      pop\n      jump\t// out\n        /* \"#utility.yul\":2236:2565   */\n    tag_26:\n        /* \"#utility.yul\":2295:2301   */\n      0x00\n        /* \"#utility.yul\":2344:2346   */\n      0x20\n        /* \"#utility.yul\":2332:2341   */\n      dup3\n        /* \"#utility.yul\":2323:2330   */\n      dup5\n        /* \"#utility.yul\":2319:2342   */\n      sub\n        /* \"#utility.yul\":2315:2347   */\n      slt\n        /* \"#utility.yul\":2312:2431   */\n      iszero\n      tag_177\n      jumpi\n        /* \"#utility.yul\":2350:2429   */\n      tag_178\n      tag_100\n      jump\t// in\n    tag_178:\n        /* \"#utility.yul\":2312:2431   */\n    tag_177:\n        /* \"#utility.yul\":2470:2471   */\n      0x00\n        /* \"#utility.yul\":2495:2548   */\n      tag_179\n        /* \"#utility.yul\":2540:2547   */\n      dup5\n        /* \"#utility.yul\":2531:2537   */\n      dup3\n        /* \"#utility.yul\":2520:2529   */\n      dup6\n        /* \"#utility.yul\":2516:2538   */\n      add\n        /* \"#utility.yul\":2495:2548   */\n      tag_110\n      jump\t// in\n    tag_179:\n        /* \"#utility.yul\":2485:2548   */\n      swap2\n      pop\n        /* \"#utility.yul\":2441:2558   */\n      pop\n        /* \"#utility.yul\":2236:2565   */\n      swap3\n      swap2\n      pop\n      pop\n      jump\t// out\n        /* \"#utility.yul\":2571:2661   */\n    tag_111:\n        /* \"#utility.yul\":2605:2612   */\n      0x00\n        /* \"#utility.yul\":2648:2653   */\n      dup2\n        /* \"#utility.yul\":2641:2654   */\n      iszero\n        /* \"#utility.yul\":2634:2655   */\n      iszero\n        /* \"#utility.yul\":2623:2655   */\n      swap1\n      pop\n        /* \"#utility.yul\":2571:2661   */\n      swap2\n      swap1\n      pop\n      jump\t// out\n        /* \"#utility.yul\":2667:2776   */\n    tag_112:\n        /* \"#utility.yul\":2748:2769   */\n      tag_182\n        /* \"#utility.yul\":2763:2768   */\n      dup2\n        /* \"#utility.yul\":2748:2769   */\n      tag_111\n      jump\t// in\n    tag_182:\n        /* \"#utility.yul\":2743:2746   */\n      dup3\n        /* \"#utility.yul\":2736:2770   */\n      mstore\n        /* \"#utility.yul\":2667:2776   */\n      pop\n      pop\n      jump\t// out\n        /* \"#utility.yul\":2782:2992   */\n    tag_29:\n        /* \"#utility.yul\":2869:2873   */\n      0x00\n        /* \"#utility.yul\":2907:2909   */\n      0x20\n        /* \"#utility.yul\":2896:2905   */\n      dup3\n        /* \"#utility.yul\":2892:2910   */\n      add\n        /* \"#utility.yul\":2884:2910   */\n      swap1\n      pop\n        /* \"#utility.yul\":2920:2985   */\n      tag_184\n        /* \"#utility.yul\":2982:2983   */\n      0x00\n        /* \"#utility.yul\":2971:2980   */\n      dup4\n        /* \"#utility.yul\":2967:2984   */\n      add\n        /* \"#utility.yul\":2958:2964   */\n      dup5\n        /* \"#utility.yul\":2920:2985   */\n      tag_112\n      jump\t// in\n    tag_184:\n        /* \"#utility.yul\":2782:2992   */\n      swap3\n      swap2\n      pop\n      pop\n      jump\t// out\n        /* \"#utility.yul\":2998:3115   */\n    tag_113:\n        /* \"#utility.yul\":3107:3108   */\n      0x00\n        /* \"#utility.yul\":3104:3105   */\n      dup1\n        /* \"#utility.yul\":3097:3109   */\n      revert\n        /* \"#utility.yul\":3121:3238   */\n    tag_114:\n        /* \"#utility.yul\":3230:3231   */\n      0x00\n        /* \"#utility.yul\":3227:3228   */\n      dup1\n        /* \"#utility.yul\":3220:3232   */\n      revert\n        /* \"#utility.yul\":3244:3346   */\n    tag_115:\n        /* \"#utility.yul\":3285:3291   */\n      0x00\n        /* \"#utility.yul\":3336:3338   */\n      0x1f\n        /* \"#utility.yul\":3332:3339   */\n      not\n        /* \"#utility.yul\":3327:3329   */\n      0x1f\n        /* \"#utility.yul\":3320:3325   */\n      dup4\n        /* \"#utility.yul\":3316:3330   */\n      add\n        /* \"#utility.yul\":3312:3340   */\n      and\n        /* \"#utility.yul\":3302:3340   */\n      swap1\n      pop\n        /* \"#utility.yul\":3244:3346   */\n      swap2\n      swap1\n      pop\n      jump\t// out\n        /* \"#utility.yul\":3352:3532   */\n    tag_116:\n        /* \"#utility.yul\":3400:3477   */\n      0x4e487b7100000000000000000000000000000000000000000000000000000000\n        /* \"#utility.yul\":3397:3398   */\n      0x00\n        /* \"#utility.yul\":3390:3478   */\n      mstore\n        /* \"#utility.yul\":3497:3501   */\n      0x41\n        /* \"#utility.yul\":3494:3495   */\n      0x04\n        /* \"#utility.yul\":3487:3502   */\n      mstore\n        /* \"#utility.yul\":3521:3525   */\n      0x24\n        /* \"#utility.yul\":3518:3519   */\n      0x00\n        /* \"#utility.yul\":3511:3526   */\n      revert\n        /* \"#utility.yul\":3538:3819   */\n    tag_117:\n        /* \"#utility.yul\":3621:3648   */\n      tag_190\n        /* \"#utility.yul\":3643:3647   */\n      dup3\n        /* \"#utility.yul\":3621:3648   */\n      tag_115\n      jump\t// in\n    tag_190:\n        /* \"#utility.yul\":3613:3619   */\n      dup2\n        /* \"#utility.yul\":3609:3649   */\n      add\n        /* \"#utility.yul\":3751:3757   */\n      dup2\n        /* \"#utility.yul\":3739:3749   */\n      dup2\n        /* \"#utility.yul\":3736:3758   */\n      lt\n        /* \"#utility.yul\":3715:3733   */\n      0xffffffffffffffff\n        /* \"#utility.yul\":3703:3713   */\n      dup3\n        /* \"#utility.yul\":3700:3734   */\n      gt\n        /* \"#utility.yul\":3697:3759   */\n      or\n        /* \"#utility.yul\":3694:3782   */\n      iszero\n      tag_191\n      jumpi\n        /* \"#utility.yul\":3762:3780   */\n      tag_192\n      tag_116\n      jump\t// in\n    tag_192:\n        /* \"#utility.yul\":3694:3782   */\n    tag_191:\n        /* \"#utility.yul\":3802:3812   */\n      dup1\n        /* \"#utility.yul\":3798:3800   */\n      0x40\n        /* \"#utility.yul\":3791:3813   */\n      mstore\n        /* \"#utility.yul\":3581:3819   */\n      pop\n        /* \"#utility.yul\":3538:3819   */\n      pop\n      pop\n      jump\t// out\n        /* \"#utility.yul\":3825:3954   */\n    tag_118:\n        /* \"#utility.yul\":3859:3865   */\n      0x00\n        /* \"#utility.yul\":3886:3906   */\n      tag_194\n      tag_99\n      jump\t// in\n    tag_194:\n        /* \"#utility.yul\":3876:3906   */\n      swap1\n      pop\n        /* \"#utility.yul\":3915:3948   */\n      tag_195\n        /* \"#utility.yul\":3943:3947   */\n      dup3\n        /* \"#utility.yul\":3935:3941   */\n      dup3\n        /* \"#utility.yul\":3915:3948   */\n      tag_117\n      jump\t// in\n    tag_195:\n        /* \"#utility.yul\":3825:3954   */\n      swap2\n      swap1\n      pop\n      jump\t// out\n        /* \"#utility.yul\":3960:4267   */\n    tag_119:\n        /* \"#utility.yul\":4021:4025   */\n      0x00\n        /* \"#utility.yul\":4111:4129   */\n      0xffffffffffffffff\n        /* \"#utility.yul\":4103:4109   */\n      dup3\n        /* \"#utility.yul\":4100:4130   */\n      gt\n        /* \"#utility.yul\":4097:4153   */\n      iszero\n      tag_197\n      jumpi\n        /* \"#utility.yul\":4133:4151   */\n      tag_198\n      tag_116\n      jump\t// in\n    tag_198:\n        /* \"#utility.yul\":4097:4153   */\n    tag_197:\n        /* \"#utility.yul\":4171:4200   */\n      tag_199\n        /* \"#utility.yul\":4193:4199   */\n      dup3\n        /* \"#utility.yul\":4171:4200   */\n      tag_115\n      jump\t// in\n    tag_199:\n        /* \"#utility.yul\":4163:4200   */\n      swap1\n      pop\n        /* \"#utility.yul\":4255:4259   */\n      0x20\n        /* \"#utility.yul\":4249:4253   */\n      dup2\n        /* \"#utility.yul\":4245:4260   */\n      add\n        /* \"#utility.yul\":4237:4260   */\n      swap1\n      pop\n        /* \"#utility.yul\":3960:4267   */\n      swap2\n      swap1\n      pop\n      jump\t// out\n        /* \"#utility.yul\":4273:4421   */\n    tag_120:\n        /* \"#utility.yul\":4371:4377   */\n      dup3\n        /* \"#utility.yul\":4366:4369   */\n      dup2\n        /* \"#utility.yul\":4361:4364   */\n      dup4\n        /* \"#utility.yul\":4348:4378   */\n      calldatacopy\n        /* \"#utility.yul\":4412:4413   */\n      0x00\n        /* \"#utility.yul\":4403:4409   */\n      dup4\n        /* \"#utility.yul\":4398:4401   */\n      dup4\n        /* \"#utility.yul\":4394:4410   */\n      add\n        /* \"#utility.yul\":4387:4414   */\n      mstore\n        /* \"#utility.yul\":4273:4421   */\n      pop\n      pop\n      pop\n      jump\t// out\n        /* \"#utility.yul\":4427:4850   */\n    tag_121:\n        /* \"#utility.yul\":4504:4509   */\n      0x00\n        /* \"#utility.yul\":4529:4594   */\n      tag_202\n        /* \"#utility.yul\":4545:4593   */\n      tag_203\n        /* \"#utility.yul\":4586:4592   */\n      dup5\n        /* \"#utility.yul\":4545:4593   */\n      tag_119\n      jump\t// in\n    tag_203:\n        /* \"#utility.yul\":4529:4594   */\n      tag_118\n      jump\t// in\n    tag_202:\n        /* \"#utility.yul\":4520:4594   */\n      swap1\n      pop\n        /* \"#utility.yul\":4617:4623   */\n      dup3\n        /* \"#utility.yul\":4610:4615   */\n      dup2\n        /* \"#utility.yul\":4603:4624   */\n      mstore\n        /* \"#utility.yul\":4655:4659   */\n      0x20\n        /* \"#utility.yul\":4648:4653   */\n      dup2\n        /* \"#utility.yul\":4644:4660   */\n      add\n        /* \"#utility.yul\":4693:4696   */\n      dup5\n        /* \"#utility.yul\":4684:4690   */\n      dup5\n        /* \"#utility.yul\":4679:4682   */\n      dup5\n        /* \"#utility.yul\":4675:4691   */\n      add\n        /* \"#utility.yul\":4672:4697   */\n      gt\n        /* \"#utility.yul\":4669:4781   */\n      iszero\n      tag_204\n      jumpi\n        /* \"#utility.yul\":4700:4779   */\n      tag_205\n      tag_114\n      jump\t// in\n    tag_205:\n        /* \"#utility.yul\":4669:4781   */\n    tag_204:\n        /* \"#utility.yul\":4790:4844   */\n      tag_206\n        /* \"#utility.yul\":4837:4843   */\n      dup5\n        /* \"#utility.yul\":4832:4835   */\n      dup3\n        /* \"#utility.yul\":4827:4830   */\n      dup6\n        /* \"#utility.yul\":4790:4844   */\n      tag_120\n      jump\t// in\n    tag_206:\n        /* \"#utility.yul\":4510:4850   */\n      pop\n        /* \"#utility.yul\":4427:4850   */\n      swap4\n      swap3\n      pop\n      pop\n      pop\n      jump\t// out\n        /* \"#utility.yul\":4869:5207   */\n    tag_122:\n        /* \"#utility.yul\":4924:4929   */\n      0x00\n        /* \"#utility.yul\":4973:4976   */\n      dup3\n        /* \"#utility.yul\":4966:4970   */\n      0x1f\n        /* \"#utility.yul\":4958:4964   */\n      dup4\n        /* \"#utility.yul\":4954:4971   */\n      add\n        /* \"#utility.yul\":4950:4977   */\n      slt\n        /* \"#utility.yul\":4940:5062   */\n      tag_208\n      jumpi\n        /* \"#utility.yul\":4981:5060   */\n      tag_209\n      tag_113\n      jump\t// in\n    tag_209:\n        /* \"#utility.yul\":4940:5062   */\n    tag_208:\n        /* \"#utility.yul\":5098:5104   */\n      dup2\n        /* \"#utility.yul\":5085:5105   */\n      calldataload\n        /* \"#utility.yul\":5123:5201   */\n      tag_210\n        /* \"#utility.yul\":5197:5200   */\n      dup5\n        /* \"#utility.yul\":5189:5195   */\n      dup3\n        /* \"#utility.yul\":5182:5186   */\n      0x20\n        /* \"#utility.yul\":5174:5180   */\n      dup7\n        /* \"#utility.yul\":5170:5187   */\n      add\n        /* \"#utility.yul\":5123:5201   */\n      tag_121\n      jump\t// in\n    tag_210:\n        /* \"#utility.yul\":5114:5201   */\n      swap2\n      pop\n        /* \"#utility.yul\":4930:5207   */\n      pop\n        /* \"#utility.yul\":4869:5207   */\n      swap3\n      swap2\n      pop\n      pop\n      jump\t// out\n        /* \"#utility.yul\":5213:6302   */\n    tag_37:\n        /* \"#utility.yul\":5317:5323   */\n      0x00\n        /* \"#utility.yul\":5325:5331   */\n      dup1\n        /* \"#utility.yul\":5333:5339   */\n      0x00\n        /* \"#utility.yul\":5341:5347   */\n      dup1\n        /* \"#utility.yul\":5349:5355   */\n      0x00\n        /* \"#utility.yul\":5398:5401   */\n      0xa0\n        /* \"#utility.yul\":5386:5395   */\n      dup7\n        /* \"#utility.yul\":5377:5384   */\n      dup9\n        /* \"#utility.yul\":5373:5396   */\n      sub\n        /* \"#utility.yul\":5369:5402   */\n      slt\n        /* \"#utility.yul\":5366:5486   */\n      iszero\n      tag_212\n      jumpi\n        /* \"#utility.yul\":5405:5484   */\n      tag_213\n      tag_100\n      jump\t// in\n    tag_213:\n        /* \"#utility.yul\":5366:5486   */\n    tag_212:\n        /* \"#utility.yul\":5525:5526   */\n      0x00\n        /* \"#utility.yul\":5550:5603   */\n      tag_214\n        /* \"#utility.yul\":5595:5602   */\n      dup9\n        /* \"#utility.yul\":5586:5592   */\n      dup3\n        /* \"#utility.yul\":5575:5584   */\n      dup10\n        /* \"#utility.yul\":5571:5593   */\n      add\n        /* \"#utility.yul\":5550:5603   */\n      tag_110\n      jump\t// in\n    tag_214:\n        /* \"#utility.yul\":5540:5603   */\n      swap6\n      pop\n        /* \"#utility.yul\":5496:5613   */\n      pop\n        /* \"#utility.yul\":5652:5654   */\n      0x20\n        /* \"#utility.yul\":5678:5731   */\n      tag_215\n        /* \"#utility.yul\":5723:5730   */\n      dup9\n        /* \"#utility.yul\":5714:5720   */\n      dup3\n        /* \"#utility.yul\":5703:5712   */\n      dup10\n        /* \"#utility.yul\":5699:5721   */\n      add\n        /* \"#utility.yul\":5678:5731   */\n      tag_104\n      jump\t// in\n    tag_215:\n        /* \"#utility.yul\":5668:5731   */\n      swap5\n      pop\n        /* \"#utility.yul\":5623:5741   */\n      pop\n        /* \"#utility.yul\":5808:5810   */\n      0x40\n        /* \"#utility.yul\":5797:5806   */\n      dup7\n        /* \"#utility.yul\":5793:5811   */\n      add\n        /* \"#utility.yul\":5780:5812   */\n      calldataload\n        /* \"#utility.yul\":5839:5857   */\n      0xffffffffffffffff\n        /* \"#utility.yul\":5831:5837   */\n      dup2\n        /* \"#utility.yul\":5828:5858   */\n      gt\n        /* \"#utility.yul\":5825:5942   */\n      iszero\n      tag_216\n      jumpi\n        /* \"#utility.yul\":5861:5940   */\n      tag_217\n      tag_101\n      jump\t// in\n    tag_217:\n        /* \"#utility.yul\":5825:5942   */\n    tag_216:\n        /* \"#utility.yul\":5966:6028   */\n      tag_218\n        /* \"#utility.yul\":6020:6027   */\n      dup9\n        /* \"#utility.yul\":6011:6017   */\n      dup3\n        /* \"#utility.yul\":6000:6009   */\n      dup10\n        /* \"#utility.yul\":5996:6018   */\n      add\n        /* \"#utility.yul\":5966:6028   */\n      tag_122\n      jump\t// in\n    tag_218:\n        /* \"#utility.yul\":5956:6028   */\n      swap4\n      pop\n        /* \"#utility.yul\":5751:6038   */\n      pop\n        /* \"#utility.yul\":6077:6079   */\n      0x60\n        /* \"#utility.yul\":6103:6156   */\n      tag_219\n        /* \"#utility.yul\":6148:6155   */\n      dup9\n        /* \"#utility.yul\":6139:6145   */\n      dup3\n        /* \"#utility.yul\":6128:6137   */\n      dup10\n        /* \"#utility.yul\":6124:6146   */\n      add\n        /* \"#utility.yul\":6103:6156   */\n      tag_104\n      jump\t// in\n    tag_219:\n        /* \"#utility.yul\":6093:6156   */\n      swap3\n      pop\n        /* \"#utility.yul\":6048:6166   */\n      pop\n        /* \"#utility.yul\":6205:6208   */\n      0x80\n        /* \"#utility.yul\":6232:6285   */\n      tag_220\n        /* \"#utility.yul\":6277:6284   */\n      dup9\n        /* \"#utility.yul\":6268:6274   */\n      dup3\n        /* \"#utility.yul\":6257:6266   */\n      dup10\n        /* \"#utility.yul\":6253:6275   */\n      add\n        /* \"#utility.yul\":6232:6285   */\n      tag_104\n      jump\t// in\n    tag_220:\n        /* \"#utility.yul\":6222:6285   */\n      swap2\n      pop\n        /* \"#utility.yul\":6176:6295   */\n      pop\n        /* \"#utility.yul\":5213:6302   */\n      swap3\n      swap6\n      pop\n      swap3\n      swap6\n      swap1\n      swap4\n      pop\n      jump\t// out\n        /* \"#utility.yul\":6308:6385   */\n    tag_123:\n        /* \"#utility.yul\":6345:6352   */\n      0x00\n        /* \"#utility.yul\":6374:6379   */\n      dup2\n        /* \"#utility.yul\":6363:6379   */\n      swap1\n      pop\n        /* \"#utility.yul\":6308:6385   */\n      swap2\n      swap1\n      pop\n      jump\t// out\n        /* \"#utility.yul\":6391:6509   */\n    tag_124:\n        /* \"#utility.yul\":6478:6502   */\n      tag_223\n        /* \"#utility.yul\":6496:6501   */\n      dup2\n        /* \"#utility.yul\":6478:6502   */\n      tag_123\n      jump\t// in\n    tag_223:\n        /* \"#utility.yul\":6473:6476   */\n      dup3\n        /* \"#utility.yul\":6466:6503   */\n      mstore\n        /* \"#utility.yul\":6391:6509   */\n      pop\n      pop\n      jump\t// out\n        /* \"#utility.yul\":6515:6737   */\n    tag_40:\n        /* \"#utility.yul\":6608:6612   */\n      0x00\n        /* \"#utility.yul\":6646:6648   */\n      0x20\n        /* \"#utility.yul\":6635:6644   */\n      dup3\n        /* \"#utility.yul\":6631:6649   */\n      add\n        /* \"#utility.yul\":6623:6649   */\n      swap1\n      pop\n        /* \"#utility.yul\":6659:6730   */\n      tag_225\n        /* \"#utility.yul\":6727:6728   */\n      0x00\n        /* \"#utility.yul\":6716:6725   */\n      dup4\n        /* \"#utility.yul\":6712:6729   */\n      add\n        /* \"#utility.yul\":6703:6709   */\n      dup5\n        /* \"#utility.yul\":6659:6730   */\n      tag_124\n      jump\t// in\n    tag_225:\n        /* \"#utility.yul\":6515:6737   */\n      swap3\n      swap2\n      pop\n      pop\n      jump\t// out\n        /* \"#utility.yul\":6743:7864   */\n    tag_47:\n        /* \"#utility.yul\":6847:6853   */\n      0x00\n        /* \"#utility.yul\":6855:6861   */\n      dup1\n        /* \"#utility.yul\":6863:6869   */\n      0x00\n        /* \"#utility.yul\":6871:6877   */\n      dup1\n        /* \"#utility.yul\":6920:6923   */\n      0x80\n        /* \"#utility.yul\":6908:6917   */\n      dup6\n        /* \"#utility.yul\":6899:6906   */\n      dup8\n        /* \"#utility.yul\":6895:6918   */\n      sub\n        /* \"#utility.yul\":6891:6924   */\n      slt\n        /* \"#utility.yul\":6888:7008   */\n      iszero\n      tag_227\n      jumpi\n        /* \"#utility.yul\":6927:7006   */\n      tag_228\n      tag_100\n      jump\t// in\n    tag_228:\n        /* \"#utility.yul\":6888:7008   */\n    tag_227:\n        /* \"#utility.yul\":7047:7048   */\n      0x00\n        /* \"#utility.yul\":7072:7125   */\n      tag_229\n        /* \"#utility.yul\":7117:7124   */\n      dup8\n        /* \"#utility.yul\":7108:7114   */\n      dup3\n        /* \"#utility.yul\":7097:7106   */\n      dup9\n        /* \"#utility.yul\":7093:7115   */\n      add\n        /* \"#utility.yul\":7072:7125   */\n      tag_110\n      jump\t// in\n    tag_229:\n        /* \"#utility.yul\":7062:7125   */\n      swap5\n      pop\n        /* \"#utility.yul\":7018:7135   */\n      pop\n        /* \"#utility.yul\":7174:7176   */\n      0x20\n        /* \"#utility.yul\":7200:7253   */\n      tag_230\n        /* \"#utility.yul\":7245:7252   */\n      dup8\n        /* \"#utility.yul\":7236:7242   */\n      dup3\n        /* \"#utility.yul\":7225:7234   */\n      dup9\n        /* \"#utility.yul\":7221:7243   */\n      add\n        /* \"#utility.yul\":7200:7253   */\n      tag_104\n      jump\t// in\n    tag_230:\n        /* \"#utility.yul\":7190:7253   */\n      swap4\n      pop\n        /* \"#utility.yul\":7145:7263   */\n      pop\n        /* \"#utility.yul\":7330:7332   */\n      0x40\n        /* \"#utility.yul\":7319:7328   */\n      dup6\n        /* \"#utility.yul\":7315:7333   */\n      add\n        /* \"#utility.yul\":7302:7334   */\n      calldataload\n        /* \"#utility.yul\":7361:7379   */\n      0xffffffffffffffff\n        /* \"#utility.yul\":7353:7359   */\n      dup2\n        /* \"#utility.yul\":7350:7380   */\n      gt\n        /* \"#utility.yul\":7347:7464   */\n      iszero\n      tag_231\n      jumpi\n        /* \"#utility.yul\":7383:7462   */\n      tag_232\n      tag_101\n      jump\t// in\n    tag_232:\n        /* \"#utility.yul\":7347:7464   */\n    tag_231:\n        /* \"#utility.yul\":7488:7550   */\n      tag_233\n        /* \"#utility.yul\":7542:7549   */\n      dup8\n        /* \"#utility.yul\":7533:7539   */\n      dup3\n        /* \"#utility.yul\":7522:7531   */\n      dup9\n        /* \"#utility.yul\":7518:7540   */\n      add\n        /* \"#utility.yul\":7488:7550   */\n      tag_122\n      jump\t// in\n    tag_233:\n        /* \"#utility.yul\":7478:7550   */\n      swap3\n      pop\n        /* \"#utility.yul\":7273:7560   */\n      pop\n        /* \"#utility.yul\":7627:7629   */\n      0x60\n        /* \"#utility.yul\":7616:7625   */\n      dup6\n        /* \"#utility.yul\":7612:7630   */\n      add\n        /* \"#utility.yul\":7599:7631   */\n      calldataload\n        /* \"#utility.yul\":7658:7676   */\n      0xffffffffffffffff\n        /* \"#utility.yul\":7650:7656   */\n      dup2\n        /* \"#utility.yul\":7647:7677   */\n      gt\n        /* \"#utility.yul\":7644:7761   */\n      iszero\n      tag_234\n      jumpi\n        /* \"#utility.yul\":7680:7759   */\n      tag_235\n      tag_101\n      jump\t// in\n    tag_235:\n        /* \"#utility.yul\":7644:7761   */\n    tag_234:\n        /* \"#utility.yul\":7785:7847   */\n      tag_236\n        /* \"#utility.yul\":7839:7846   */\n      dup8\n        /* \"#utility.yul\":7830:7836   */\n      dup3\n        /* \"#utility.yul\":7819:7828   */\n      dup9\n        /* \"#utility.yul\":7815:7837   */\n      add\n        /* \"#utility.yul\":7785:7847   */\n      tag_122\n      jump\t// in\n    tag_236:\n        /* \"#utility.yul\":7775:7847   */\n      swap2\n      pop\n        /* \"#utility.yul\":7570:7857   */\n      pop\n        /* \"#utility.yul\":6743:7864   */\n      swap3\n      swap6\n      swap2\n      swap5\n      pop\n      swap3\n      pop\n      jump\t// out\n        /* \"#utility.yul\":7870:7992   */\n    tag_125:\n        /* \"#utility.yul\":7943:7967   */\n      tag_238\n        /* \"#utility.yul\":7961:7966   */\n      dup2\n        /* \"#utility.yul\":7943:7967   */\n      tag_123\n      jump\t// in\n    tag_238:\n        /* \"#utility.yul\":7936:7941   */\n      dup2\n        /* \"#utility.yul\":7933:7968   */\n      eq\n        /* \"#utility.yul\":7923:7986   */\n      tag_239\n      jumpi\n        /* \"#utility.yul\":7982:7983   */\n      0x00\n        /* \"#utility.yul\":7979:7980   */\n      dup1\n        /* \"#utility.yul\":7972:7984   */\n      revert\n        /* \"#utility.yul\":7923:7986   */\n    tag_239:\n        /* \"#utility.yul\":7870:7992   */\n      pop\n      jump\t// out\n        /* \"#utility.yul\":7998:8137   */\n    tag_126:\n        /* \"#utility.yul\":8044:8049   */\n      0x00\n        /* \"#utility.yul\":8082:8088   */\n      dup2\n        /* \"#utility.yul\":8069:8089   */\n      calldataload\n        /* \"#utility.yul\":8060:8089   */\n      swap1\n      pop\n        /* \"#utility.yul\":8098:8131   */\n      tag_241\n        /* \"#utility.yul\":8125:8130   */\n      dup2\n        /* \"#utility.yul\":8098:8131   */\n      tag_125\n      jump\t// in\n    tag_241:\n        /* \"#utility.yul\":7998:8137   */\n      swap3\n      swap2\n      pop\n      pop\n      jump\t// out\n        /* \"#utility.yul\":8143:8795   */\n    tag_53:\n        /* \"#utility.yul\":8220:8226   */\n      0x00\n        /* \"#utility.yul\":8228:8234   */\n      dup1\n        /* \"#utility.yul\":8277:8279   */\n      0x40\n        /* \"#utility.yul\":8265:8274   */\n      dup4\n        /* \"#utility.yul\":8256:8263   */\n      dup6\n        /* \"#utility.yul\":8252:8275   */\n      sub\n        /* \"#utility.yul\":8248:8280   */\n      slt\n        /* \"#utility.yul\":8245:8364   */\n      iszero\n      tag_243\n      jumpi\n        /* \"#utility.yul\":8283:8362   */\n      tag_244\n      tag_100\n      jump\t// in\n    tag_244:\n        /* \"#utility.yul\":8245:8364   */\n    tag_243:\n        /* \"#utility.yul\":8403:8404   */\n      0x00\n        /* \"#utility.yul\":8428:8481   */\n      tag_245\n        /* \"#utility.yul\":8473:8480   */\n      dup6\n        /* \"#utility.yul\":8464:8470   */\n      dup3\n        /* \"#utility.yul\":8453:8462   */\n      dup7\n        /* \"#utility.yul\":8449:8471   */\n      add\n        /* \"#utility.yul\":8428:8481   */\n      tag_126\n      jump\t// in\n    tag_245:\n        /* \"#utility.yul\":8418:8481   */\n      swap3\n      pop\n        /* \"#utility.yul\":8374:8491   */\n      pop\n        /* \"#utility.yul\":8558:8560   */\n      0x20\n        /* \"#utility.yul\":8547:8556   */\n      dup4\n        /* \"#utility.yul\":8543:8561   */\n      add\n        /* \"#utility.yul\":8530:8562   */\n      calldataload\n        /* \"#utility.yul\":8589:8607   */\n      0xffffffffffffffff\n        /* \"#utility.yul\":8581:8587   */\n      dup2\n        /* \"#utility.yul\":8578:8608   */\n      gt\n        /* \"#utility.yul\":8575:8692   */\n      iszero\n      tag_246\n      jumpi\n        /* \"#utility.yul\":8611:8690   */\n      tag_247\n      tag_101\n      jump\t// in\n    tag_247:\n        /* \"#utility.yul\":8575:8692   */\n    tag_246:\n        /* \"#utility.yul\":8716:8778   */\n      tag_248\n        /* \"#utility.yul\":8770:8777   */\n      dup6\n        /* \"#utility.yul\":8761:8767   */\n      dup3\n        /* \"#utility.yul\":8750:8759   */\n      dup7\n        /* \"#utility.yul\":8746:8768   */\n      add\n        /* \"#utility.yul\":8716:8778   */\n      tag_122\n      jump\t// in\n    tag_248:\n        /* \"#utility.yul\":8706:8778   */\n      swap2\n      pop\n        /* \"#utility.yul\":8501:8788   */\n      pop\n        /* \"#utility.yul\":8143:8795   */\n      swap3\n      pop\n      swap3\n      swap1\n      pop\n      jump\t// out\n        /* \"#utility.yul\":8801:9465   */\n    tag_59:\n        /* \"#utility.yul\":9006:9010   */\n      0x00\n        /* \"#utility.yul\":9044:9047   */\n      0xa0\n        /* \"#utility.yul\":9033:9042   */\n      dup3\n        /* \"#utility.yul\":9029:9048   */\n      add\n        /* \"#utility.yul\":9021:9048   */\n      swap1\n      pop\n        /* \"#utility.yul\":9058:9129   */\n      tag_250\n        /* \"#utility.yul\":9126:9127   */\n      0x00\n        /* \"#utility.yul\":9115:9124   */\n      dup4\n        /* \"#utility.yul\":9111:9128   */\n      add\n        /* \"#utility.yul\":9102:9108   */\n      dup9\n        /* \"#utility.yul\":9058:9129   */\n      tag_107\n      jump\t// in\n    tag_250:\n        /* \"#utility.yul\":9139:9211   */\n      tag_251\n        /* \"#utility.yul\":9207:9209   */\n      0x20\n        /* \"#utility.yul\":9196:9205   */\n      dup4\n        /* \"#utility.yul\":9192:9210   */\n      add\n        /* \"#utility.yul\":9183:9189   */\n      dup8\n        /* \"#utility.yul\":9139:9211   */\n      tag_108\n      jump\t// in\n    tag_251:\n        /* \"#utility.yul\":9221:9293   */\n      tag_252\n        /* \"#utility.yul\":9289:9291   */\n      0x40\n        /* \"#utility.yul\":9278:9287   */\n      dup4\n        /* \"#utility.yul\":9274:9292   */\n      add\n        /* \"#utility.yul\":9265:9271   */\n      dup7\n        /* \"#utility.yul\":9221:9293   */\n      tag_124\n      jump\t// in\n    tag_252:\n        /* \"#utility.yul\":9303:9375   */\n      tag_253\n        /* \"#utility.yul\":9371:9373   */\n      0x60\n        /* \"#utility.yul\":9360:9369   */\n      dup4\n        /* \"#utility.yul\":9356:9374   */\n      add\n        /* \"#utility.yul\":9347:9353   */\n      dup6\n        /* \"#utility.yul\":9303:9375   */\n      tag_108\n      jump\t// in\n    tag_253:\n        /* \"#utility.yul\":9385:9458   */\n      tag_254\n        /* \"#utility.yul\":9453:9456   */\n      0x80\n        /* \"#utility.yul\":9442:9451   */\n      dup4\n        /* \"#utility.yul\":9438:9457   */\n      add\n        /* \"#utility.yul\":9429:9435   */\n      dup5\n        /* \"#utility.yul\":9385:9458   */\n      tag_108\n      jump\t// in\n    tag_254:\n        /* \"#utility.yul\":8801:9465   */\n      swap7\n      swap6\n      pop\n      pop\n      pop\n      pop\n      pop\n      pop\n      jump\t// out\n        /* \"#utility.yul\":9471:9651   */\n    tag_127:\n        /* \"#utility.yul\":9519:9596   */\n      0x4e487b7100000000000000000000000000000000000000000000000000000000\n        /* \"#utility.yul\":9516:9517   */\n      0x00\n        /* \"#utility.yul\":9509:9597   */\n      mstore\n        /* \"#utility.yul\":9616:9620   */\n      0x11\n        /* \"#utility.yul\":9613:9614   */\n      0x04\n        /* \"#utility.yul\":9606:9621   */\n      mstore\n        /* \"#utility.yul\":9640:9644   */\n      0x24\n        /* \"#utility.yul\":9637:9638   */\n      0x00\n        /* \"#utility.yul\":9630:9645   */\n      revert\n        /* \"#utility.yul\":9657:9890   */\n    tag_63:\n        /* \"#utility.yul\":9696:9699   */\n      0x00\n        /* \"#utility.yul\":9719:9743   */\n      tag_257\n        /* \"#utility.yul\":9737:9742   */\n      dup3\n        /* \"#utility.yul\":9719:9743   */\n      tag_102\n      jump\t// in\n    tag_257:\n        /* \"#utility.yul\":9710:9743   */\n      swap2\n      pop\n        /* \"#utility.yul\":9765:9831   */\n      0xffffffffffffffffffffffffffffffffffffffffffffffffffffffffffffffff\n        /* \"#utility.yul\":9758:9763   */\n      dup3\n        /* \"#utility.yul\":9755:9832   */\n      sub\n        /* \"#utility.yul\":9752:9855   */\n      tag_258\n      jumpi\n        /* \"#utility.yul\":9835:9853   */\n      tag_259\n      tag_127\n      jump\t// in\n    tag_259:\n        /* \"#utility.yul\":9752:9855   */\n    tag_258:\n        /* \"#utility.yul\":9882:9883   */\n      0x01\n        /* \"#utility.yul\":9875:9880   */\n      dup3\n        /* \"#utility.yul\":9871:9884   */\n      add\n        /* \"#utility.yul\":9864:9884   */\n      swap1\n      pop\n        /* \"#utility.yul\":9657:9890   */\n      swap2\n      swap1\n      pop\n      jump\t// out\n        /* \"#utility.yul\":9896:9994   */\n    tag_128:\n        /* \"#utility.yul\":9947:9953   */\n      0x00\n        /* \"#utility.yul\":9981:9986   */\n      dup2\n        /* \"#utility.yul\":9975:9987   */\n      mload\n        /* \"#utility.yul\":9965:9987   */\n      swap1\n      pop\n        /* \"#utility.yul\":9896:9994   */\n      swap2\n      swap1\n      pop\n      jump\t// out\n        /* \"#utility.yul\":10000:10147   */\n    tag_129:\n        /* \"#utility.yul\":10101:10112   */\n      0x00\n        /* \"#utility.yul\":10138:10141   */\n      dup2\n        /* \"#utility.yul\":10123:10141   */\n      swap1\n      pop\n        /* \"#utility.yul\":10000:10147   */\n      swap3\n      swap2\n      pop\n      pop\n      jump\t// out\n        /* \"#utility.yul\":10153:10292   */\n    tag_130:\n        /* \"#utility.yul\":10242:10248   */\n      dup3\n        /* \"#utility.yul\":10237:10240   */\n      dup2\n        /* \"#utility.yul\":10232:10235   */\n      dup4\n        /* \"#utility.yul\":10226:10249   */\n      mcopy\n        /* \"#utility.yul\":10283:10284   */\n      0x00\n        /* \"#utility.yul\":10274:10280   */\n      dup4\n        /* \"#utility.yul\":10269:10272   */\n      dup4\n        /* \"#utility.yul\":10265:10281   */\n      add\n        /* \"#utility.yul\":10258:10285   */\n      mstore\n        /* \"#utility.yul\":10153:10292   */\n      pop\n      pop\n      pop\n      jump\t// out\n        /* \"#utility.yul\":10298:10684   */\n    tag_131:\n        /* \"#utility.yul\":10402:10405   */\n      0x00\n        /* \"#utility.yul\":10430:10468   */\n      tag_264\n        /* \"#utility.yul\":10462:10467   */\n      dup3\n        /* \"#utility.yul\":10430:10468   */\n      tag_128\n      jump\t// in\n    tag_264:\n        /* \"#utility.yul\":10484:10572   */\n      tag_265\n        /* \"#utility.yul\":10565:10571   */\n      dup2\n        /* \"#utility.yul\":10560:10563   */\n      dup6\n        /* \"#utility.yul\":10484:10572   */\n      tag_129\n      jump\t// in\n    tag_265:\n        /* \"#utility.yul\":10477:10572   */\n      swap4\n      pop\n        /* \"#utility.yul\":10581:10646   */\n      tag_266\n        /* \"#utility.yul\":10639:10645   */\n      dup2\n        /* \"#utility.yul\":10634:10637   */\n      dup6\n        /* \"#utility.yul\":10627:10631   */\n      0x20\n        /* \"#utility.yul\":10620:10625   */\n      dup7\n        /* \"#utility.yul\":10616:10632   */\n      add\n        /* \"#utility.yul\":10581:10646   */\n      tag_130\n      jump\t// in\n    tag_266:\n        /* \"#utility.yul\":10671:10677   */\n      dup1\n        /* \"#utility.yul\":10666:10669   */\n      dup5\n        /* \"#utility.yul\":10662:10678   */\n      add\n        /* \"#utility.yul\":10655:10678   */\n      swap2\n      pop\n        /* \"#utility.yul\":10406:10684   */\n      pop\n        /* \"#utility.yul\":10298:10684   */\n      swap3\n      swap2\n      pop\n      pop\n      jump\t// out\n        /* \"#utility.yul\":10690:10961   */\n    tag_66:\n        /* \"#utility.yul\":10820:10823   */\n      0x00\n        /* \"#utility.yul\":10842:10935   */\n      tag_268\n        /* \"#utility.yul\":10931:10934   */\n      dup3\n        /* \"#utility.yul\":10922:10928   */\n      dup5\n        /* \"#utility.yul\":10842:10935   */\n      tag_131\n      jump\t// in\n    tag_268:\n        /* \"#utility.yul\":10835:10935   */\n      swap2\n      pop\n        /* \"#utility.yul\":10952:10955   */\n      dup2\n        /* \"#utility.yul\":10945:10955   */\n      swap1\n      pop\n        /* \"#utility.yul\":10690:10961   */\n      swap3\n      swap2\n      pop\n      pop\n      jump\t// out\n        /* \"#utility.yul\":10967:11136   */\n    tag_132:\n        /* \"#utility.yul\":11051:11062   */\n      0x00\n        /* \"#utility.yul\":11085:11091   */\n      dup3\n        /* \"#utility.yul\":11080:11083   */\n      dup3\n        /* \"#utility.yul\":11073:11092   */\n      mstore\n        /* \"#utility.yul\":11125:11129   */\n      0x20\n        /* \"#utility.yul\":11120:11123   */\n      dup3\n        /* \"#utility.yul\":11116:11130   */\n      add\n        /* \"#utility.yul\":11101:11130   */\n      swap1\n      pop\n        /* \"#utility.yul\":10967:11136   */\n      swap3\n      swap2\n      pop\n      pop\n      jump\t// out\n        /* \"#utility.yul\":11142:11298   */\n    tag_133:\n        /* \"#utility.yul\":11282:11290   */\n      0x4451353030350000000000000000000000000000000000000000000000000000\n        /* \"#utility.yul\":11278:11279   */\n      0x00\n        /* \"#utility.yul\":11270:11276   */\n      dup3\n        /* \"#utility.yul\":11266:11280   */\n      add\n        /* \"#utility.yul\":11259:11291   */\n      mstore\n        /* \"#utility.yul\":11142:11298   */\n      pop\n      jump\t// out\n        /* \"#utility.yul\":11304:11669   */\n    tag_134:\n        /* \"#utility.yul\":11446:11449   */\n      0x00\n        /* \"#utility.yul\":11467:11533   */\n      tag_272\n        /* \"#utility.yul\":11531:11532   */\n      0x06\n        /* \"#utility.yul\":11526:11529   */\n      dup4\n        /* \"#utility.yul\":11467:11533   */\n      tag_132\n      jump\t// in\n    tag_272:\n        /* \"#utility.yul\":11460:11533   */\n      swap2\n      pop\n        /* \"#utility.yul\":11542:11635   */\n      tag_273\n        /* \"#utility.yul\":11631:11634   */\n      dup3\n        /* \"#utility.yul\":11542:11635   */\n      tag_133\n      jump\t// in\n    tag_273:\n        /* \"#utility.yul\":11660:11662   */\n      0x20\n        /* \"#utility.yul\":11655:11658   */\n      dup3\n        /* \"#utility.yul\":11651:11663   */\n      add\n        /* \"#utility.yul\":11644:11663   */\n      swap1\n      pop\n        /* \"#utility.yul\":11304:11669   */\n      swap2\n      swap1\n      pop\n      jump\t// out\n        /* \"#utility.yul\":11675:12094   */\n    tag_77:\n        /* \"#utility.yul\":11841:11845   */\n      0x00\n        /* \"#utility.yul\":11879:11881   */\n      0x20\n        /* \"#utility.yul\":11868:11877   */\n      dup3\n        /* \"#utility.yul\":11864:11882   */\n      add\n        /* \"#utility.yul\":11856:11882   */\n      swap1\n      pop\n        /* \"#utility.yul\":11928:11937   */\n      dup2\n        /* \"#utility.yul\":11922:11926   */\n      dup2\n        /* \"#utility.yul\":11918:11938   */\n      sub\n        /* \"#utility.yul\":11914:11915   */\n      0x00\n        /* \"#utility.yul\":11903:11912   */\n      dup4\n        /* \"#utility.yul\":11899:11916   */\n      add\n        /* \"#utility.yul\":11892:11939   */\n      mstore\n        /* \"#utility.yul\":11956:12087   */\n      tag_275\n        /* \"#utility.yul\":12082:12086   */\n      dup2\n        /* \"#utility.yul\":11956:12087   */\n      tag_134\n      jump\t// in\n    tag_275:\n        /* \"#utility.yul\":11948:12087   */\n      swap1\n      pop\n        /* \"#utility.yul\":11675:12094   */\n      swap2\n      swap1\n      pop\n      jump\t// out\n        /* \"#utility.yul\":12100:12510   */\n    tag_79:\n        /* \"#utility.yul\":12140:12147   */\n      0x00\n        /* \"#utility.yul\":12163:12183   */\n      tag_277\n        /* \"#utility.yul\":12181:12182   */\n      dup3\n        /* \"#utility.yul\":12163:12183   */\n      tag_102\n      jump\t// in\n    tag_277:\n        /* \"#utility.yul\":12158:12183   */\n      swap2\n      pop\n        /* \"#utility.yul\":12197:12217   */\n      tag_278\n        /* \"#utility.yul\":12215:12216   */\n      dup4\n        /* \"#utility.yul\":12197:12217   */\n      tag_102\n      jump\t// in\n    tag_278:\n        /* \"#utility.yul\":12192:12217   */\n      swap3\n      pop\n        /* \"#utility.yul\":12252:12253   */\n      dup3\n        /* \"#utility.yul\":12249:12250   */\n      dup3\n        /* \"#utility.yul\":12245:12254   */\n      mul\n        /* \"#utility.yul\":12274:12304   */\n      tag_279\n        /* \"#utility.yul\":12292:12303   */\n      dup2\n        /* \"#utility.yul\":12274:12304   */\n      tag_102\n      jump\t// in\n    tag_279:\n        /* \"#utility.yul\":12263:12304   */\n      swap2\n      pop\n        /* \"#utility.yul\":12453:12454   */\n      dup3\n        /* \"#utility.yul\":12444:12451   */\n      dup3\n        /* \"#utility.yul\":12440:12455   */\n      div\n        /* \"#utility.yul\":12437:12438   */\n      dup5\n        /* \"#utility.yul\":12434:12456   */\n      eq\n        /* \"#utility.yul\":12414:12415   */\n      dup4\n        /* \"#utility.yul\":12407:12416   */\n      iszero\n        /* \"#utility.yul\":12387:12470   */\n      or\n        /* \"#utility.yul\":12364:12503   */\n      tag_280\n      jumpi\n        /* \"#utility.yul\":12483:12501   */\n      tag_281\n      tag_127\n      jump\t// in\n    tag_281:\n        /* \"#utility.yul\":12364:12503   */\n    tag_280:\n        /* \"#utility.yul\":12148:12510   */\n      pop\n        /* \"#utility.yul\":12100:12510   */\n      swap3\n      swap2\n      pop\n      pop\n      jump\t// out\n        /* \"#utility.yul\":12516:12672   */\n    tag_135:\n        /* \"#utility.yul\":12656:12664   */\n      0x4451353030360000000000000000000000000000000000000000000000000000\n        /* \"#utility.yul\":12652:12653   */\n      0x00\n        /* \"#utility.yul\":12644:12650   */\n      dup3\n        /* \"#utility.yul\":12640:12654   */\n      add\n        /* \"#utility.yul\":12633:12665   */\n      mstore\n        /* \"#utility.yul\":12516:12672   */\n      pop\n      jump\t// out\n        /* \"#utility.yul\":12678:13043   */\n    tag_136:\n        /* \"#utility.yul\":12820:12823   */\n      0x00\n        /* \"#utility.yul\":12841:12907   */\n      tag_284\n        /* \"#utility.yul\":12905:12906   */\n      0x06\n        /* \"#utility.yul\":12900:12903   */\n      dup4\n        /* \"#utility.yul\":12841:12907   */\n      tag_132\n      jump\t// in\n    tag_284:\n        /* \"#utility.yul\":12834:12907   */\n      swap2\n      pop\n        /* \"#utility.yul\":12916:13009   */\n      tag_285\n        /* \"#utility.yul\":13005:13008   */\n      dup3\n        /* \"#utility.yul\":12916:13009   */\n      tag_135\n      jump\t// in\n    tag_285:\n        /* \"#utility.yul\":13034:13036   */\n      0x20\n        /* \"#utility.yul\":13029:13032   */\n      dup3\n        /* \"#utility.yul\":13025:13037   */\n      add\n        /* \"#utility.yul\":13018:13037   */\n      swap1\n      pop\n        /* \"#utility.yul\":12678:13043   */\n      swap2\n      swap1\n      pop\n      jump\t// out\n        /* \"#utility.yul\":13049:13468   */\n    tag_82:\n        /* \"#utility.yul\":13215:13219   */\n      0x00\n        /* \"#utility.yul\":13253:13255   */\n      0x20\n        /* \"#utility.yul\":13242:13251   */\n      dup3\n        /* \"#utility.yul\":13238:13256   */\n      add\n        /* \"#utility.yul\":13230:13256   */\n      swap1\n      pop\n        /* \"#utility.yul\":13302:13311   */\n      dup2\n        /* \"#utility.yul\":13296:13300   */\n      dup2\n        /* \"#utility.yul\":13292:13312   */\n      sub\n        /* \"#utility.yul\":13288:13289   */\n      0x00\n        /* \"#utility.yul\":13277:13286   */\n      dup4\n        /* \"#utility.yul\":13273:13290   */\n      add\n        /* \"#utility.yul\":13266:13313   */\n      mstore\n        /* \"#utility.yul\":13330:13461   */\n      tag_287\n        /* \"#utility.yul\":13456:13460   */\n      dup2\n        /* \"#utility.yul\":13330:13461   */\n      tag_136\n      jump\t// in\n    tag_287:\n        /* \"#utility.yul\":13322:13461   */\n      swap1\n      pop\n        /* \"#utility.yul\":13049:13468   */\n      swap2\n      swap1\n      pop\n      jump\t// out\n        /* \"#utility.yul\":13474:13622   */\n    tag_137:\n        /* \"#utility.yul\":13576:13587   */\n      0x00\n        /* \"#utility.yul\":13613:13616   */\n      dup2\n        /* \"#utility.yul\":13598:13616   */\n      swap1\n      pop\n        /* \"#utility.yul\":13474:13622   */\n      swap3\n      swap2\n      pop\n      pop\n      jump\t// out\n        /* \"#utility.yul\":13628:13842   */\n    tag_138:\n        /* \"#utility.yul\":13768:13834   */\n      0x19457468657265756d205369676e6564204d6573736167653a0a333200000000\n        /* \"#utility.yul\":13764:13765   */\n      0x00\n        /* \"#utility.yul\":13756:13762   */\n      dup3\n        /* \"#utility.yul\":13752:13766   */\n      add\n        /* \"#utility.yul\":13745:13835   */\n      mstore\n        /* \"#utility.yul\":13628:13842   */\n      pop\n      jump\t// out\n        /* \"#utility.yul\":13848:14250   */\n    tag_139:\n        /* \"#utility.yul\":14008:14011   */\n      0x00\n        /* \"#utility.yul\":14029:14114   */\n      tag_291\n        /* \"#utility.yul\":14111:14113   */\n      0x1c\n        /* \"#utility.yul\":14106:14109   */\n      dup4\n        /* \"#utility.yul\":14029:14114   */\n      tag_137\n      jump\t// in\n    tag_291:\n        /* \"#utility.yul\":14022:14114   */\n      swap2\n      pop\n        /* \"#utility.yul\":14123:14216   */\n      tag_292\n        /* \"#utility.yul\":14212:14215   */\n      dup3\n        /* \"#utility.yul\":14123:14216   */\n      tag_138\n      jump\t// in\n    tag_292:\n        /* \"#utility.yul\":14241:14243   */\n      0x1c\n        /* \"#utility.yul\":14236:14239   */\n      dup3\n        /* \"#utility.yul\":14232:14244   */\n      add\n        /* \"#utility.yul\":14225:14244   */\n      swap1\n      pop\n        /* \"#utility.yul\":13848:14250   */\n      swap2\n      swap1\n      pop\n      jump\t// out\n        /* \"#utility.yul\":14256:14335   */\n    tag_140:\n        /* \"#utility.yul\":14295:14302   */\n      0x00\n        /* \"#utility.yul\":14324:14329   */\n      dup2\n        /* \"#utility.yul\":14313:14329   */\n      swap1\n      pop\n        /* \"#utility.yul\":14256:14335   */\n      swap2\n      swap1\n      pop\n      jump\t// out\n        /* \"#utility.yul\":14341:14498   */\n    tag_141:\n        /* \"#utility.yul\":14446:14491   */\n      tag_295\n        /* \"#utility.yul\":14466:14490   */\n      tag_296\n        /* \"#utility.yul\":14484:14489   */\n      dup3\n        /* \"#utility.yul\":14466:14490   */\n      tag_123\n      jump\t// in\n    tag_296:\n        /* \"#utility.yul\":14446:14491   */\n      tag_140\n      jump\t// in\n    tag_295:\n        /* \"#utility.yul\":14441:14444   */\n      dup3\n        /* \"#utility.yul\":14434:14492   */\n      mstore\n        /* \"#utility.yul\":14341:14498   */\n      pop\n      pop\n      jump\t// out\n        /* \"#utility.yul\":14504:15026   */\n    tag_89:\n        /* \"#utility.yul\":14717:14720   */\n      0x00\n        /* \"#utility.yul\":14739:14887   */\n      tag_298\n        /* \"#utility.yul\":14883:14886   */\n      dup3\n        /* \"#utility.yul\":14739:14887   */\n      tag_139\n      jump\t// in\n    tag_298:\n        /* \"#utility.yul\":14732:14887   */\n      swap2\n      pop\n        /* \"#utility.yul\":14897:14972   */\n      tag_299\n        /* \"#utility.yul\":14968:14971   */\n      dup3\n        /* \"#utility.yul\":14959:14965   */\n      dup5\n        /* \"#utility.yul\":14897:14972   */\n      tag_141\n      jump\t// in\n    tag_299:\n        /* \"#utility.yul\":14997:14999   */\n      0x20\n        /* \"#utility.yul\":14992:14995   */\n      dup3\n        /* \"#utility.yul\":14988:15000   */\n      add\n        /* \"#utility.yul\":14981:15000   */\n      swap2\n      pop\n        /* \"#utility.yul\":15017:15020   */\n      dup2\n        /* \"#utility.yul\":15010:15020   */\n      swap1\n      pop\n        /* \"#utility.yul\":14504:15026   */\n      swap3\n      swap2\n      pop\n      pop\n      jump\t// out\n        /* \"#utility.yul\":15032:15118   */\n    tag_142:\n        /* \"#utility.yul\":15067:15074   */\n      0x00\n        /* \"#utility.yul\":15107:15111   */\n      0xff\n        /* \"#utility.yul\":15100:15105   */\n      dup3\n        /* \"#utility.yul\":15096:15112   */\n      and\n        /* \"#utility.yul\":15085:15112   */\n      swap1\n      pop\n        /* \"#utility.yul\":15032:15118   */\n      swap2\n      swap1\n      pop\n      jump\t// out\n        /* \"#utility.yul\":15124:15236   */\n    tag_143:\n        /* \"#utility.yul\":15207:15229   */\n      tag_302\n        /* \"#utility.yul\":15223:15228   */\n      dup2\n        /* \"#utility.yul\":15207:15229   */\n      tag_142\n      jump\t// in\n    tag_302:\n        /* \"#utility.yul\":15202:15205   */\n      dup3\n        /* \"#utility.yul\":15195:15230   */\n      mstore\n        /* \"#utility.yul\":15124:15236   */\n      pop\n      pop\n      jump\t// out\n        /* \"#utility.yul\":15242:15787   */\n    tag_91:\n        /* \"#utility.yul\":15415:15419   */\n      0x00\n        /* \"#utility.yul\":15453:15456   */\n      0x80\n        /* \"#utility.yul\":15442:15451   */\n      dup3\n        /* \"#utility.yul\":15438:15457   */\n      add\n        /* \"#utility.yul\":15430:15457   */\n      swap1\n      pop\n        /* \"#utility.yul\":15467:15538   */\n      tag_304\n        /* \"#utility.yul\":15535:15536   */\n      0x00\n        /* \"#utility.yul\":15524:15533   */\n      dup4\n        /* \"#utility.yul\":15520:15537   */\n      add\n        /* \"#utility.yul\":15511:15517   */\n      dup8\n        /* \"#utility.yul\":15467:15538   */\n      tag_124\n      jump\t// in\n    tag_304:\n        /* \"#utility.yul\":15548:15616   */\n      tag_305\n        /* \"#utility.yul\":15612:15614   */\n      0x20\n        /* \"#utility.yul\":15601:15610   */\n      dup4\n        /* \"#utility.yul\":15597:15615   */\n      add\n        /* \"#utility.yul\":15588:15594   */\n      dup7\n        /* \"#utility.yul\":15548:15616   */\n      tag_143\n      jump\t// in\n    tag_305:\n        /* \"#utility.yul\":15626:15698   */\n      tag_306\n        /* \"#utility.yul\":15694:15696   */\n      0x40\n        /* \"#utility.yul\":15683:15692   */\n      dup4\n        /* \"#utility.yul\":15679:15697   */\n      add\n        /* \"#utility.yul\":15670:15676   */\n      dup6\n        /* \"#utility.yul\":15626:15698   */\n      tag_124\n      jump\t// in\n    tag_306:\n        /* \"#utility.yul\":15708:15780   */\n      tag_307\n        /* \"#utility.yul\":15776:15778   */\n      0x60\n        /* \"#utility.yul\":15765:15774   */\n      dup4\n        /* \"#utility.yul\":15761:15779   */\n      add\n        /* \"#utility.yul\":15752:15758   */\n      dup5\n        /* \"#utility.yul\":15708:15780   */\n      tag_124\n      jump\t// in\n    tag_307:\n        /* \"#utility.yul\":15242:15787   */\n      swap6\n      swap5\n      pop\n      pop\n      pop\n      pop\n      pop\n      jump\t// out\n        /* \"#utility.yul\":15793:15949   */\n    tag_144:\n        /* \"#utility.yul\":15933:15941   */\n      0x4451353030370000000000000000000000000000000000000000000000000000\n        /* \"#utility.yul\":15929:15930   */\n      0x00\n        /* \"#utility.yul\":15921:15927   */\n      dup3\n        /* \"#utility.yul\":15917:15931   */\n      add\n        /* \"#utility.yul\":15910:15942   */\n      mstore\n        /* \"#utility.yul\":15793:15949   */\n      pop\n      jump\t// out\n        /* \"#utility.yul\":15955:16320   */\n    tag_145:\n        /* \"#utility.yul\":16097:16100   */\n      0x00\n        /* \"#utility.yul\":16118:16184   */\n      tag_310\n        /* \"#utility.yul\":16182:16183   */\n      0x06\n        /* \"#utility.yul\":16177:16180   */\n      dup4\n        /* \"#utility.yul\":16118:16184   */\n      tag_132\n      jump\t// in\n    tag_310:\n        /* \"#utility.yul\":16111:16184   */\n      swap2\n      pop\n        /* \"#utility.yul\":16193:16286   */\n      tag_311\n        /* \"#utility.yul\":16282:16285   */\n      dup3\n        /* \"#utility.yul\":16193:16286   */\n      tag_144\n      jump\t// in\n    tag_311:\n        /* \"#utility.yul\":16311:16313   */\n      0x20\n        /* \"#utility.yul\":16306:16309   */\n      dup3\n        /* \"#utility.yul\":16302:16314   */\n      add\n        /* \"#utility.yul\":16295:16314   */\n      swap1\n      pop\n        /* \"#utility.yul\":15955:16320   */\n      swap2\n      swap1\n      pop\n      jump\t// out\n        /* \"#utility.yul\":16326:16745   */\n    tag_97:\n        /* \"#utility.yul\":16492:16496   */\n      0x00\n        /* \"#utility.yul\":16530:16532   */\n      0x20\n        /* \"#utility.yul\":16519:16528   */\n      dup3\n        /* \"#utility.yul\":16515:16533   */\n      add\n        /* \"#utility.yul\":16507:16533   */\n      swap1\n      pop\n        /* \"#utility.yul\":16579:16588   */\n      dup2\n        /* \"#utility.yul\":16573:16577   */\n      dup2\n        /* \"#utility.yul\":16569:16589   */\n      sub\n        /* \"#utility.yul\":16565:16566   */\n      0x00\n        /* \"#utility.yul\":16554:16563   */\n      dup4\n        /* \"#utility.yul\":16550:16567   */\n      add\n        /* \"#utility.yul\":16543:16590   */\n      mstore\n        /* \"#utility.yul\":16607:16738   */\n      tag_313\n        /* \"#utility.yul\":16733:16737   */\n      dup2\n        /* \"#utility.yul\":16607:16738   */\n      tag_145\n      jump\t// in\n    tag_313:\n        /* \"#utility.yul\":16599:16738   */\n      swap1\n      pop\n        /* \"#utility.yul\":16326:16745   */\n      swap2\n      swap1\n      pop\n      jump\t// out\n\n    auxdata: 0xa2646970667358221220b3904cfb132ab20dd4218f6b98d5856667e6f829211b28e5d5ab70eaff1115fe64736f6c634300081a0033\n}\n",
				"bytecode": {
					"linkReferences": {},
					"object": "608060405234801561000f575f80fd5b506040516115cb3803806115cb833981810160405281019061003191906104fa565b610041828261004860201b60201c565b5050610731565b5f6003541461008c576040517f08c379a0000000000000000000000000000000000000000000000000000000008152600401610083906105ae565b60405180910390fd5b81518111156100d0576040517f08c379a00000000000000000000000000000000000000000000000000000000081526004016100c790610616565b60405180910390fd5b6001811015610114576040517f08c379a000000000000000000000000000000000000000000000000000000000815260040161010b9061067e565b60405180910390fd5b5f5b82518110156102f8575f8382815181106101335761013261069c565b5b602002602001015190505f73ffffffffffffffffffffffffffffffffffffffff168173ffffffffffffffffffffffffffffffffffffffff16141580156101a557503073ffffffffffffffffffffffffffffffffffffffff168173ffffffffffffffffffffffffffffffffffffffff1614155b80156101f8575060015f8273ffffffffffffffffffffffffffffffffffffffff1673ffffffffffffffffffffffffffffffffffffffff1681526020019081526020015f205f9054906101000a900460ff16155b610237576040517f08c379a000000000000000000000000000000000000000000000000000000000815260040161022e90610713565b60405180910390fd5b5f81908060018154018082558091505060019003905f5260205f20015f9091909190916101000a81548173ffffffffffffffffffffffffffffffffffffffff021916908373ffffffffffffffffffffffffffffffffffffffff1602179055506001805f8373ffffffffffffffffffffffffffffffffffffffff1673ffffffffffffffffffffffffffffffffffffffff1681526020019081526020015f205f6101000a81548160ff021916908315150217905550508080600101915050610116565b508151600281905550806003819055505050565b5f604051905090565b5f80fd5b5f80fd5b5f80fd5b5f601f19601f8301169050919050565b7f4e487b71000000000000000000000000000000000000000000000000000000005f52604160045260245ffd5b61036782610321565b810181811067ffffffffffffffff8211171561038657610385610331565b5b80604052505050565b5f61039861030c565b90506103a4828261035e565b919050565b5f67ffffffffffffffff8211156103c3576103c2610331565b5b602082029050602081019050919050565b5f80fd5b5f73ffffffffffffffffffffffffffffffffffffffff82169050919050565b5f610401826103d8565b9050919050565b610411816103f7565b811461041b575f80fd5b50565b5f8151905061042c81610408565b92915050565b5f61044461043f846103a9565b61038f565b90508083825260208201905060208402830185811115610467576104666103d4565b5b835b81811015610490578061047c888261041e565b845260208401935050602081019050610469565b5050509392505050565b5f82601f8301126104ae576104ad61031d565b5b81516104be848260208601610432565b91505092915050565b5f819050919050565b6104d9816104c7565b81146104e3575f80fd5b50565b5f815190506104f4816104d0565b92915050565b5f80604083850312156105105761050f610315565b5b5f83015167ffffffffffffffff81111561052d5761052c610319565b5b6105398582860161049a565b925050602061054a858286016104e6565b9150509250929050565b5f82825260208201905092915050565b7f44513530303000000000000000000000000000000000000000000000000000005f82015250565b5f610598600683610554565b91506105a382610564565b602082019050919050565b5f6020820190508181035f8301526105c58161058c565b9050919050565b7f44513530303100000000000000000000000000000000000000000000000000005f82015250565b5f610600600683610554565b915061060b826105cc565b602082019050919050565b5f6020820190508181035f83015261062d816105f4565b9050919050565b7f44513530303200000000000000000000000000000000000000000000000000005f82015250565b5f610668600683610554565b915061067382610634565b602082019050919050565b5f6020820190508181035f8301526106958161065c565b9050919050565b7f4e487b71000000000000000000000000000000000000000000000000000000005f52603260045260245ffd5b7f44513530303300000000000000000000000000000000000000000000000000005f82015250565b5f6106fd600683610554565b9150610708826106c9565b602082019050919050565b5f6020820190508181035f83015261072a816106f1565b9050919050565b610e8d8061073e5f395ff3fe60806040526004361061007a575f3560e01c8063a67dd5091161004d578063a67dd5091461014a578063affed0e014610186578063d01aa318146101b0578063ed516d51146101e05761007a565b8063025e7c271461007e5780630db02622146100ba5780632f54bf6e146100e457806342cde4e814610120575b5f80fd5b348015610089575f80fd5b506100a4600480360381019061009f9190610657565b610208565b6040516100b191906106c1565b60405180910390f35b3480156100c5575f80fd5b506100ce610242565b6040516100db91906106e9565b60405180910390f35b3480156100ef575f80fd5b5061010a6004803603810190610105919061072c565b610248565b6040516101179190610771565b60405180910390f35b34801561012b575f80fd5b50610134610265565b60405161014191906106e9565b60405180910390f35b348015610155575f80fd5b50610170600480360381019061016b91906108c6565b61026b565b60405161017d9190610971565b60405180910390f35b348015610191575f80fd5b5061019a6102b2565b6040516101a791906106e9565b60405180910390f35b6101ca60048036038101906101c5919061098a565b6102b8565b6040516101d79190610771565b60405180910390f35b3480156101eb575f80fd5b5061020660048036038101906102019190610a50565b6103da565b005b5f8181548110610216575f80fd5b905f5260205f20015f915054906101000a900473ffffffffffffffffffffffffffffffffffffffff1681565b60025481565b6001602052805f5260405f205f915054906101000a900460ff1681565b60035481565b5f8086868680519060200120868660405160200161028d959493929190610aaa565b6040516020818303038152906040528051906020012090508091505095945050505050565b60045481565b5f806102c98686866004544661026b565b905060045f8154809291906102dd90610b28565b91905055506102ec81846103da565b8573ffffffffffffffffffffffffffffffffffffffff1685856040516103129190610bc1565b5f6040518083038185875af1925050503d805f811461034c576040519150601f19603f3d011682016040523d82523d5f602084013e610351565b606091505b5050809250508115610399577fdc29884a71d2bb98d3c53dc09718be05c7bfd142b7773a5c5cf2517629290ac08160405161038c9190610971565b60405180910390a16103d1565b7fdbe42d02a4e07d7eeff2874efe172540c93b297d206f6d691c9782a257323e32816040516103c89190610971565b60405180910390a15b50949350505050565b5f60035490505f8111610422576040517f08c379a000000000000000000000000000000000000000000000000000000000815260040161041990610c31565b60405180910390fd5b60418161042f9190610c4f565b82511015610472576040517f08c379a000000000000000000000000000000000000000000000000000000000815260040161046990610cda565b60405180910390fd5b5f80805f805f5b868110156105db5761048b88826105e6565b8095508196508294505050506001896040516020016104aa9190610d6c565b604051602081830303815290604052805190602001208386866040515f81526020016040526040516104df9493929190610dac565b6020604051602081039080840390855afa1580156104ff573d5f803e3d5ffd5b5050506020604051035194508573ffffffffffffffffffffffffffffffffffffffff168573ffffffffffffffffffffffffffffffffffffffff1611801561058c575060015f8673ffffffffffffffffffffffffffffffffffffffff1673ffffffffffffffffffffffffffffffffffffffff1681526020019081526020015f205f9054906101000a900460ff165b6105cb576040517f08c379a00000000000000000000000000000000000000000000000000000000081526004016105c290610e39565b60405180910390fd5b8495508080600101915050610479565b505050505050505050565b5f805f8360410260208101860151925060408101860151915060ff60418201870151169350509250925092565b5f604051905090565b5f80fd5b5f80fd5b5f819050919050565b61063681610624565b8114610640575f80fd5b50565b5f813590506106518161062d565b92915050565b5f6020828403121561066c5761066b61061c565b5b5f61067984828501610643565b91505092915050565b5f73ffffffffffffffffffffffffffffffffffffffff82169050919050565b5f6106ab82610682565b9050919050565b6106bb816106a1565b82525050565b5f6020820190506106d45f8301846106b2565b92915050565b6106e381610624565b82525050565b5f6020820190506106fc5f8301846106da565b92915050565b61070b816106a1565b8114610715575f80fd5b50565b5f8135905061072681610702565b92915050565b5f602082840312156107415761074061061c565b5b5f61074e84828501610718565b91505092915050565b5f8115159050919050565b61076b81610757565b82525050565b5f6020820190506107845f830184610762565b92915050565b5f80fd5b5f80fd5b5f601f19601f8301169050919050565b7f4e487b71000000000000000000000000000000000000000000000000000000005f52604160045260245ffd5b6107d882610792565b810181811067ffffffffffffffff821117156107f7576107f66107a2565b5b80604052505050565b5f610809610613565b905061081582826107cf565b919050565b5f67ffffffffffffffff821115610834576108336107a2565b5b61083d82610792565b9050602081019050919050565b828183375f83830152505050565b5f61086a6108658461081a565b610800565b9050828152602081018484840111156108865761088561078e565b5b61089184828561084a565b509392505050565b5f82601f8301126108ad576108ac61078a565b5b81356108bd848260208601610858565b91505092915050565b5f805f805f60a086880312156108df576108de61061c565b5b5f6108ec88828901610718565b95505060206108fd88828901610643565b945050604086013567ffffffffffffffff81111561091e5761091d610620565b5b61092a88828901610899565b935050606061093b88828901610643565b925050608061094c88828901610643565b9150509295509295909350565b5f819050919050565b61096b81610959565b82525050565b5f6020820190506109845f830184610962565b92915050565b5f805f80608085870312156109a2576109a161061c565b5b5f6109af87828801610718565b94505060206109c087828801610643565b935050604085013567ffffffffffffffff8111156109e1576109e0610620565b5b6109ed87828801610899565b925050606085013567ffffffffffffffff811115610a0e57610a0d610620565b5b610a1a87828801610899565b91505092959194509250565b610a2f81610959565b8114610a39575f80fd5b50565b5f81359050610a4a81610a26565b92915050565b5f8060408385031215610a6657610a6561061c565b5b5f610a7385828601610a3c565b925050602083013567ffffffffffffffff811115610a9457610a93610620565b5b610aa085828601610899565b9150509250929050565b5f60a082019050610abd5f8301886106b2565b610aca60208301876106da565b610ad76040830186610962565b610ae460608301856106da565b610af160808301846106da565b9695505050505050565b7f4e487b71000000000000000000000000000000000000000000000000000000005f52601160045260245ffd5b5f610b3282610624565b91507fffffffffffffffffffffffffffffffffffffffffffffffffffffffffffffffff8203610b6457610b63610afb565b5b600182019050919050565b5f81519050919050565b5f81905092915050565b8281835e5f83830152505050565b5f610b9b82610b6f565b610ba58185610b79565b9350610bb5818560208601610b83565b80840191505092915050565b5f610bcc8284610b91565b915081905092915050565b5f82825260208201905092915050565b7f44513530303500000000000000000000000000000000000000000000000000005f82015250565b5f610c1b600683610bd7565b9150610c2682610be7565b602082019050919050565b5f6020820190508181035f830152610c4881610c0f565b9050919050565b5f610c5982610624565b9150610c6483610624565b9250828202610c7281610624565b91508282048414831517610c8957610c88610afb565b5b5092915050565b7f44513530303600000000000000000000000000000000000000000000000000005f82015250565b5f610cc4600683610bd7565b9150610ccf82610c90565b602082019050919050565b5f6020820190508181035f830152610cf181610cb8565b9050919050565b5f81905092915050565b7f19457468657265756d205369676e6564204d6573736167653a0a3332000000005f82015250565b5f610d36601c83610cf8565b9150610d4182610d02565b601c82019050919050565b5f819050919050565b610d66610d6182610959565b610d4c565b82525050565b5f610d7682610d2a565b9150610d828284610d55565b60208201915081905092915050565b5f60ff82169050919050565b610da681610d91565b82525050565b5f608082019050610dbf5f830187610962565b610dcc6020830186610d9d565b610dd96040830185610962565b610de66060830184610962565b95945050505050565b7f44513530303700000000000000000000000000000000000000000000000000005f82015250565b5f610e23600683610bd7565b9150610e2e82610def565b602082019050919050565b5f6020820190508181035f830152610e5081610e17565b905091905056fea2646970667358221220b3904cfb132ab20dd4218f6b98d5856667e6f829211b28e5d5ab70eaff1115fe64736f6c634300081a0033",
					"opcodes": "PUSH1 0x80 PUSH1 0x40 MSTORE CALLVALUE DUP1 ISZERO PUSH2 0xF JUMPI PUSH0 DUP1 REVERT JUMPDEST POP PUSH1 0x40 MLOAD PUSH2 0x15CB CODESIZE SUB DUP1 PUSH2 0x15CB DUP4 CODECOPY DUP2 DUP2 ADD PUSH1 0x40 MSTORE DUP2 ADD SWAP1 PUSH2 0x31 SWAP2 SWAP1 PUSH2 0x4FA JUMP JUMPDEST PUSH2 0x41 DUP3 DUP3 PUSH2 0x48 PUSH1 0x20 SHL PUSH1 0x20 SHR JUMP JUMPDEST POP POP PUSH2 0x731 JUMP JUMPDEST PUSH0 PUSH1 0x3 SLOAD EQ PUSH2 0x8C JUMPI PUSH1 0x40 MLOAD PUSH32 0x8C379A000000000000000000000000000000000000000000000000000000000 DUP2 MSTORE PUSH1 0x4 ADD PUSH2 0x83 SWAP1 PUSH2 0x5AE JUMP JUMPDEST PUSH1 0x40 MLOAD DUP1 SWAP2 SUB SWAP1 REVERT JUMPDEST DUP2 MLOAD DUP2 GT ISZERO PUSH2 0xD0 JUMPI PUSH1 0x40 MLOAD PUSH32 0x8C379A000000000000000000000000000000000000000000000000000000000 DUP2 MSTORE PUSH1 0x4 ADD PUSH2 0xC7 SWAP1 PUSH2 0x616 JUMP JUMPDEST PUSH1 0x40 MLOAD DUP1 SWAP2 SUB SWAP1 REVERT JUMPDEST PUSH1 0x1 DUP2 LT ISZERO PUSH2 0x114 JUMPI PUSH1 0x40 MLOAD PUSH32 0x8C379A000000000000000000000000000000000000000000000000000000000 DUP2 MSTORE PUSH1 0x4 ADD PUSH2 0x10B SWAP1 PUSH2 0x67E JUMP JUMPDEST PUSH1 0x40 MLOAD DUP1 SWAP2 SUB SWAP1 REVERT JUMPDEST PUSH0 JUMPDEST DUP3 MLOAD DUP2 LT ISZERO PUSH2 0x2F8 JUMPI PUSH0 DUP4 DUP3 DUP2 MLOAD DUP2 LT PUSH2 0x133 JUMPI PUSH2 0x132 PUSH2 0x69C JUMP JUMPDEST JUMPDEST PUSH1 0x20 MUL PUSH1 0x20 ADD ADD MLOAD SWAP1 POP PUSH0 PUSH20 0xFFFFFFFFFFFFFFFFFFFFFFFFFFFFFFFFFFFFFFFF AND DUP2 PUSH20 0xFFFFFFFFFFFFFFFFFFFFFFFFFFFFFFFFFFFFFFFF AND EQ ISZERO DUP1 ISZERO PUSH2 0x1A5 JUMPI POP ADDRESS PUSH20 0xFFFFFFFFFFFFFFFFFFFFFFFFFFFFFFFFFFFFFFFF AND DUP2 PUSH20 0xFFFFFFFFFFFFFFFFFFFFFFFFFFFFFFFFFFFFFFFF AND EQ ISZERO JUMPDEST DUP1 ISZERO PUSH2 0x1F8 JUMPI POP PUSH1 0x1 PUSH0 DUP3 PUSH20 0xFFFFFFFFFFFFFFFFFFFFFFFFFFFFFFFFFFFFFFFF AND PUSH20 0xFFFFFFFFFFFFFFFFFFFFFFFFFFFFFFFFFFFFFFFF AND DUP2 MSTORE PUSH1 0x20 ADD SWAP1 DUP2 MSTORE PUSH1 0x20 ADD PUSH0 KECCAK256 PUSH0 SWAP1 SLOAD SWAP1 PUSH2 0x100 EXP SWAP1 DIV PUSH1 0xFF AND ISZERO JUMPDEST PUSH2 0x237 JUMPI PUSH1 0x40 MLOAD PUSH32 0x8C379A000000000000000000000000000000000000000000000000000000000 DUP2 MSTORE PUSH1 0x4 ADD PUSH2 0x22E SWAP1 PUSH2 0x713 JUMP JUMPDEST PUSH1 0x40 MLOAD DUP1 SWAP2 SUB SWAP1 REVERT JUMPDEST PUSH0 DUP2 SWAP1 DUP1 PUSH1 0x1 DUP2 SLOAD ADD DUP1 DUP3 SSTORE DUP1 SWAP2 POP POP PUSH1 0x1 SWAP1 SUB SWAP1 PUSH0 MSTORE PUSH1 0x20 PUSH0 KECCAK256 ADD PUSH0 SWAP1 SWAP2 SWAP1 SWAP2 SWAP1 SWAP2 PUSH2 0x100 EXP DUP2 SLOAD DUP2 PUSH20 0xFFFFFFFFFFFFFFFFFFFFFFFFFFFFFFFFFFFFFFFF MUL NOT AND SWAP1 DUP4 PUSH20 0xFFFFFFFFFFFFFFFFFFFFFFFFFFFFFFFFFFFFFFFF AND MUL OR SWAP1 SSTORE POP PUSH1 0x1 DUP1 PUSH0 DUP4 PUSH20 0xFFFFFFFFFFFFFFFFFFFFFFFFFFFFFFFFFFFFFFFF AND PUSH20 0xFFFFFFFFFFFFFFFFFFFFFFFFFFFFFFFFFFFFFFFF AND DUP2 MSTORE PUSH1 0x20 ADD SWAP1 DUP2 MSTORE PUSH1 0x20 ADD PUSH0 KECCAK256 PUSH0 PUSH2 0x100 EXP DUP2 SLOAD DUP2 PUSH1 0xFF MUL NOT AND SWAP1 DUP4 ISZERO ISZERO MUL OR SWAP1 SSTORE POP POP DUP1 DUP1 PUSH1 0x1 ADD SWAP2 POP POP PUSH2 0x116 JUMP JUMPDEST POP DUP2 MLOAD PUSH1 0x2 DUP2 SWAP1 SSTORE POP DUP1 PUSH1 0x3 DUP2 SWAP1 SSTORE POP POP POP JUMP JUMPDEST PUSH0 PUSH1 0x40 MLOAD SWAP1 POP SWAP1 JUMP JUMPDEST PUSH0 DUP1 REVERT JUMPDEST PUSH0 DUP1 REVERT JUMPDEST PUSH0 DUP1 REVERT JUMPDEST PUSH0 PUSH1 0x1F NOT PUSH1 0x1F DUP4 ADD AND SWAP1 POP SWAP2 SWAP1 POP JUMP JUMPDEST PUSH32 0x4E487B7100000000000000000000000000000000000000000000000000000000 PUSH0 MSTORE PUSH1 0x41 PUSH1 0x4 MSTORE PUSH1 0x24 PUSH0 REVERT JUMPDEST PUSH2 0x367 DUP3 PUSH2 0x321 JUMP JUMPDEST DUP2 ADD DUP2 DUP2 LT PUSH8 0xFFFFFFFFFFFFFFFF DUP3 GT OR ISZERO PUSH2 0x386 JUMPI PUSH2 0x385 PUSH2 0x331 JUMP JUMPDEST JUMPDEST DUP1 PUSH1 0x40 MSTORE POP POP POP JUMP JUMPDEST PUSH0 PUSH2 0x398 PUSH2 0x30C JUMP JUMPDEST SWAP1 POP PUSH2 0x3A4 DUP3 DUP3 PUSH2 0x35E JUMP JUMPDEST SWAP2 SWAP1 POP JUMP JUMPDEST PUSH0 PUSH8 0xFFFFFFFFFFFFFFFF DUP3 GT ISZERO PUSH2 0x3C3 JUMPI PUSH2 0x3C2 PUSH2 0x331 JUMP JUMPDEST JUMPDEST PUSH1 0x20 DUP3 MUL SWAP1 POP PUSH1 0x20 DUP2 ADD SWAP1 POP SWAP2 SWAP1 POP JUMP JUMPDEST PUSH0 DUP1 REVERT JUMPDEST PUSH0 PUSH20 0xFFFFFFFFFFFFFFFFFFFFFFFFFFFFFFFFFFFFFFFF DUP3 AND SWAP1 POP SWAP2 SWAP1 POP JUMP JUMPDEST PUSH0 PUSH2 0x401 DUP3 PUSH2 0x3D8 JUMP JUMPDEST SWAP1 POP SWAP2 SWAP1 POP JUMP JUMPDEST PUSH2 0x411 DUP2 PUSH2 0x3F7 JUMP JUMPDEST DUP2 EQ PUSH2 0x41B JUMPI PUSH0 DUP1 REVERT JUMPDEST POP JUMP JUMPDEST PUSH0 DUP2 MLOAD SWAP1 POP PUSH2 0x42C DUP2 PUSH2 0x408 JUMP JUMPDEST SWAP3 SWAP2 POP POP JUMP JUMPDEST PUSH0 PUSH2 0x444 PUSH2 0x43F DUP5 PUSH2 0x3A9 JUMP JUMPDEST PUSH2 0x38F JUMP JUMPDEST SWAP1 POP DUP1 DUP4 DUP3 MSTORE PUSH1 0x20 DUP3 ADD SWAP1 POP PUSH1 0x20 DUP5 MUL DUP4 ADD DUP6 DUP2 GT ISZERO PUSH2 0x467 JUMPI PUSH2 0x466 PUSH2 0x3D4 JUMP JUMPDEST JUMPDEST DUP4 JUMPDEST DUP2 DUP2 LT ISZERO PUSH2 0x490 JUMPI DUP1 PUSH2 0x47C DUP9 DUP3 PUSH2 0x41E JUMP JUMPDEST DUP5 MSTORE PUSH1 0x20 DUP5 ADD SWAP4 POP POP PUSH1 0x20 DUP2 ADD SWAP1 POP PUSH2 0x469 JUMP JUMPDEST POP POP POP SWAP4 SWAP3 POP POP POP JUMP JUMPDEST PUSH0 DUP3 PUSH1 0x1F DUP4 ADD SLT PUSH2 0x4AE JUMPI PUSH2 0x4AD PUSH2 0x31D JUMP JUMPDEST JUMPDEST DUP2 MLOAD PUSH2 0x4BE DUP5 DUP3 PUSH1 0x20 DUP7 ADD PUSH2 0x432 JUMP JUMPDEST SWAP2 POP POP SWAP3 SWAP2 POP POP JUMP JUMPDEST PUSH0 DUP2 SWAP1 POP SWAP2 SWAP1 POP JUMP JUMPDEST PUSH2 0x4D9 DUP2 PUSH2 0x4C7 JUMP JUMPDEST DUP2 EQ PUSH2 0x4E3 JUMPI PUSH0 DUP1 REVERT JUMPDEST POP JUMP JUMPDEST PUSH0 DUP2 MLOAD SWAP1 POP PUSH2 0x4F4 DUP2 PUSH2 0x4D0 JUMP JUMPDEST SWAP3 SWAP2 POP POP JUMP JUMPDEST PUSH0 DUP1 PUSH1 0x40 DUP4 DUP6 SUB SLT ISZERO PUSH2 0x510 JUMPI PUSH2 0x50F PUSH2 0x315 JUMP JUMPDEST JUMPDEST PUSH0 DUP4 ADD MLOAD PUSH8 0xFFFFFFFFFFFFFFFF DUP2 GT ISZERO PUSH2 0x52D JUMPI PUSH2 0x52C PUSH2 0x319 JUMP JUMPDEST JUMPDEST PUSH2 0x539 DUP6 DUP3 DUP7 ADD PUSH2 0x49A JUMP JUMPDEST SWAP3 POP POP PUSH1 0x20 PUSH2 0x54A DUP6 DUP3 DUP7 ADD PUSH2 0x4E6 JUMP JUMPDEST SWAP2 POP POP SWAP3 POP SWAP3 SWAP1 POP JUMP JUMPDEST PUSH0 DUP3 DUP3 MSTORE PUSH1 0x20 DUP3 ADD SWAP1 POP SWAP3 SWAP2 POP POP JUMP JUMPDEST PUSH32 0x4451353030300000000000000000000000000000000000000000000000000000 PUSH0 DUP3 ADD MSTORE POP JUMP JUMPDEST PUSH0 PUSH2 0x598 PUSH1 0x6 DUP4 PUSH2 0x554 JUMP JUMPDEST SWAP2 POP PUSH2 0x5A3 DUP3 PUSH2 0x564 JUMP JUMPDEST PUSH1 0x20 DUP3 ADD SWAP1 POP SWAP2 SWAP1 POP JUMP JUMPDEST PUSH0 PUSH1 0x20 DUP3 ADD SWAP1 POP DUP2 DUP2 SUB PUSH0 DUP4 ADD MSTORE PUSH2 0x5C5 DUP2 PUSH2 0x58C JUMP JUMPDEST SWAP1 POP SWAP2 SWAP1 POP JUMP JUMPDEST PUSH32 0x4451353030310000000000000000000000000000000000000000000000000000 PUSH0 DUP3 ADD MSTORE POP JUMP JUMPDEST PUSH0 PUSH2 0x600 PUSH1 0x6 DUP4 PUSH2 0x554 JUMP JUMPDEST SWAP2 POP PUSH2 0x60B DUP3 PUSH2 0x5CC JUMP JUMPDEST PUSH1 0x20 DUP3 ADD SWAP1 POP SWAP2 SWAP1 POP JUMP JUMPDEST PUSH0 PUSH1 0x20 DUP3 ADD SWAP1 POP DUP2 DUP2 SUB PUSH0 DUP4 ADD MSTORE PUSH2 0x62D DUP2 PUSH2 0x5F4 JUMP JUMPDEST SWAP1 POP SWAP2 SWAP1 POP JUMP JUMPDEST PUSH32 0x4451353030320000000000000000000000000000000000000000000000000000 PUSH0 DUP3 ADD MSTORE POP JUMP JUMPDEST PUSH0 PUSH2 0x668 PUSH1 0x6 DUP4 PUSH2 0x554 JUMP JUMPDEST SWAP2 POP PUSH2 0x673 DUP3 PUSH2 0x634 JUMP JUMPDEST PUSH1 0x20 DUP3 ADD SWAP1 POP SWAP2 SWAP1 POP JUMP JUMPDEST PUSH0 PUSH1 0x20 DUP3 ADD SWAP1 POP DUP2 DUP2 SUB PUSH0 DUP4 ADD MSTORE PUSH2 0x695 DUP2 PUSH2 0x65C JUMP JUMPDEST SWAP1 POP SWAP2 SWAP1 POP JUMP JUMPDEST PUSH32 0x4E487B7100000000000000000000000000000000000000000000000000000000 PUSH0 MSTORE PUSH1 0x32 PUSH1 0x4 MSTORE PUSH1 0x24 PUSH0 REVERT JUMPDEST PUSH32 0x4451353030330000000000000000000000000000000000000000000000000000 PUSH0 DUP3 ADD MSTORE POP JUMP JUMPDEST PUSH0 PUSH2 0x6FD PUSH1 0x6 DUP4 PUSH2 0x554 JUMP JUMPDEST SWAP2 POP PUSH2 0x708 DUP3 PUSH2 0x6C9 JUMP JUMPDEST PUSH1 0x20 DUP3 ADD SWAP1 POP SWAP2 SWAP1 POP JUMP JUMPDEST PUSH0 PUSH1 0x20 DUP3 ADD SWAP1 POP DUP2 DUP2 SUB PUSH0 DUP4 ADD MSTORE PUSH2 0x72A DUP2 PUSH2 0x6F1 JUMP JUMPDEST SWAP1 POP SWAP2 SWAP1 POP JUMP JUMPDEST PUSH2 0xE8D DUP1 PUSH2 0x73E PUSH0 CODECOPY PUSH0 RETURN INVALID PUSH1 0x80 PUSH1 0x40 MSTORE PUSH1 0x4 CALLDATASIZE LT PUSH2 0x7A JUMPI PUSH0 CALLDATALOAD PUSH1 0xE0 SHR DUP1 PUSH4 0xA67DD509 GT PUSH2 0x4D JUMPI DUP1 PUSH4 0xA67DD509 EQ PUSH2 0x14A JUMPI DUP1 PUSH4 0xAFFED0E0 EQ PUSH2 0x186 JUMPI DUP1 PUSH4 0xD01AA318 EQ PUSH2 0x1B0 JUMPI DUP1 PUSH4 0xED516D51 EQ PUSH2 0x1E0 JUMPI PUSH2 0x7A JUMP JUMPDEST DUP1 PUSH4 0x25E7C27 EQ PUSH2 0x7E JUMPI DUP1 PUSH4 0xDB02622 EQ PUSH2 0xBA JUMPI DUP1 PUSH4 0x2F54BF6E EQ PUSH2 0xE4 JUMPI DUP1 PUSH4 0x42CDE4E8 EQ PUSH2 0x120 JUMPI JUMPDEST PUSH0 DUP1 REVERT JUMPDEST CALLVALUE DUP1 ISZERO PUSH2 0x89 JUMPI PUSH0 DUP1 REVERT JUMPDEST POP PUSH2 0xA4 PUSH1 0x4 DUP1 CALLDATASIZE SUB DUP2 ADD SWAP1 PUSH2 0x9F SWAP2 SWAP1 PUSH2 0x657 JUMP JUMPDEST PUSH2 0x208 JUMP JUMPDEST PUSH1 0x40 MLOAD PUSH2 0xB1 SWAP2 SWAP1 PUSH2 0x6C1 JUMP JUMPDEST PUSH1 0x40 MLOAD DUP1 SWAP2 SUB SWAP1 RETURN JUMPDEST CALLVALUE DUP1 ISZERO PUSH2 0xC5 JUMPI PUSH0 DUP1 REVERT JUMPDEST POP PUSH2 0xCE PUSH2 0x242 JUMP JUMPDEST PUSH1 0x40 MLOAD PUSH2 0xDB SWAP2 SWAP1 PUSH2 0x6E9 JUMP JUMPDEST PUSH1 0x40 MLOAD DUP1 SWAP2 SUB SWAP1 RETURN JUMPDEST CALLVALUE DUP1 ISZERO PUSH2 0xEF JUMPI PUSH0 DUP1 REVERT JUMPDEST POP PUSH2 0x10A PUSH1 0x4 DUP1 CALLDATASIZE SUB DUP2 ADD SWAP1 PUSH2 0x105 SWAP2 SWAP1 PUSH2 0x72C JUMP JUMPDEST PUSH2 0x248 JUMP JUMPDEST PUSH1 0x40 MLOAD PUSH2 0x117 SWAP2 SWAP1 PUSH2 0x771 JUMP JUMPDEST PUSH1 0x40 MLOAD DUP1 SWAP2 SUB SWAP1 RETURN JUMPDEST CALLVALUE DUP1 ISZERO PUSH2 0x12B JUMPI PUSH0 DUP1 REVERT JUMPDEST POP PUSH2 0x134 PUSH2 0x265 JUMP JUMPDEST PUSH1 0x40 MLOAD PUSH2 0x141 SWAP2 SWAP1 PUSH2 0x6E9 JUMP JUMPDEST PUSH1 0x40 MLOAD DUP1 SWAP2 SUB SWAP1 RETURN JUMPDEST CALLVALUE DUP1 ISZERO PUSH2 0x155 JUMPI PUSH0 DUP1 REVERT JUMPDEST POP PUSH2 0x170 PUSH1 0x4 DUP1 CALLDATASIZE SUB DUP2 ADD SWAP1 PUSH2 0x16B SWAP2 SWAP1 PUSH2 0x8C6 JUMP JUMPDEST PUSH2 0x26B JUMP JUMPDEST PUSH1 0x40 MLOAD PUSH2 0x17D SWAP2 SWAP1 PUSH2 0x971 JUMP JUMPDEST PUSH1 0x40 MLOAD DUP1 SWAP2 SUB SWAP1 RETURN JUMPDEST CALLVALUE DUP1 ISZERO PUSH2 0x191 JUMPI PUSH0 DUP1 REVERT JUMPDEST POP PUSH2 0x19A PUSH2 0x2B2 JUMP JUMPDEST PUSH1 0x40 MLOAD PUSH2 0x1A7 SWAP2 SWAP1 PUSH2 0x6E9 JUMP JUMPDEST PUSH1 0x40 MLOAD DUP1 SWAP2 SUB SWAP1 RETURN JUMPDEST PUSH2 0x1CA PUSH1 0x4 DUP1 CALLDATASIZE SUB DUP2 ADD SWAP1 PUSH2 0x1C5 SWAP2 SWAP1 PUSH2 0x98A JUMP JUMPDEST PUSH2 0x2B8 JUMP JUMPDEST PUSH1 0x40 MLOAD PUSH2 0x1D7 SWAP2 SWAP1 PUSH2 0x771 JUMP JUMPDEST PUSH1 0x40 MLOAD DUP1 SWAP2 SUB SWAP1 RETURN JUMPDEST CALLVALUE DUP1 ISZERO PUSH2 0x1EB JUMPI PUSH0 DUP1 REVERT JUMPDEST POP PUSH2 0x206 PUSH1 0x4 DUP1 CALLDATASIZE SUB DUP2 ADD SWAP1 PUSH2 0x201 SWAP2 SWAP1 PUSH2 0xA50 JUMP JUMPDEST PUSH2 0x3DA JUMP JUMPDEST STOP JUMPDEST PUSH0 DUP2 DUP2 SLOAD DUP2 LT PUSH2 0x216 JUMPI PUSH0 DUP1 REVERT JUMPDEST SWAP1 PUSH0 MSTORE PUSH1 0x20 PUSH0 KECCAK256 ADD PUSH0 SWAP2 POP SLOAD SWAP1 PUSH2 0x100 EXP SWAP1 DIV PUSH20 0xFFFFFFFFFFFFFFFFFFFFFFFFFFFFFFFFFFFFFFFF AND DUP2 JUMP JUMPDEST PUSH1 0x2 SLOAD DUP2 JUMP JUMPDEST PUSH1 0x1 PUSH1 0x20 MSTORE DUP1 PUSH0 MSTORE PUSH1 0x40 PUSH0 KECCAK256 PUSH0 SWAP2 POP SLOAD SWAP1 PUSH2 0x100 EXP SWAP1 DIV PUSH1 0xFF AND DUP2 JUMP JUMPDEST PUSH1 0x3 SLOAD DUP2 JUMP JUMPDEST PUSH0 DUP1 DUP7 DUP7 DUP7 DUP1 MLOAD SWAP1 PUSH1 0x20 ADD KECCAK256 DUP7 DUP7 PUSH1 0x40 MLOAD PUSH1 0x20 ADD PUSH2 0x28D SWAP6 SWAP5 SWAP4 SWAP3 SWAP2 SWAP1 PUSH2 0xAAA JUMP JUMPDEST PUSH1 0x40 MLOAD PUSH1 0x20 DUP2 DUP4 SUB SUB DUP2 MSTORE SWAP1 PUSH1 0x40 MSTORE DUP1 MLOAD SWAP1 PUSH1 0x20 ADD KECCAK256 SWAP1 POP DUP1 SWAP2 POP POP SWAP6 SWAP5 POP POP POP POP POP JUMP JUMPDEST PUSH1 0x4 SLOAD DUP2 JUMP JUMPDEST PUSH0 DUP1 PUSH2 0x2C9 DUP7 DUP7 DUP7 PUSH1 0x4 SLOAD CHAINID PUSH2 0x26B JUMP JUMPDEST SWAP1 POP PUSH1 0x4 PUSH0 DUP2 SLOAD DUP1 SWAP3 SWAP2 SWAP1 PUSH2 0x2DD SWAP1 PUSH2 0xB28 JUMP JUMPDEST SWAP2 SWAP1 POP SSTORE POP PUSH2 0x2EC DUP2 DUP5 PUSH2 0x3DA JUMP JUMPDEST DUP6 PUSH20 0xFFFFFFFFFFFFFFFFFFFFFFFFFFFFFFFFFFFFFFFF AND DUP6 DUP6 PUSH1 0x40 MLOAD PUSH2 0x312 SWAP2 SWAP1 PUSH2 0xBC1 JUMP JUMPDEST PUSH0 PUSH1 0x40 MLOAD DUP1 DUP4 SUB DUP2 DUP6 DUP8 GAS CALL SWAP3 POP POP POP RETURNDATASIZE DUP1 PUSH0 DUP2 EQ PUSH2 0x34C JUMPI PUSH1 0x40 MLOAD SWAP2 POP PUSH1 0x1F NOT PUSH1 0x3F RETURNDATASIZE ADD AND DUP3 ADD PUSH1 0x40 MSTORE RETURNDATASIZE DUP3 MSTORE RETURNDATASIZE PUSH0 PUSH1 0x20 DUP5 ADD RETURNDATACOPY PUSH2 0x351 JUMP JUMPDEST PUSH1 0x60 SWAP2 POP JUMPDEST POP POP DUP1 SWAP3 POP POP DUP2 ISZERO PUSH2 0x399 JUMPI PUSH32 0xDC29884A71D2BB98D3C53DC09718BE05C7BFD142B7773A5C5CF2517629290AC0 DUP2 PUSH1 0x40 MLOAD PUSH2 0x38C SWAP2 SWAP1 PUSH2 0x971 JUMP JUMPDEST PUSH1 0x40 MLOAD DUP1 SWAP2 SUB SWAP1 LOG1 PUSH2 0x3D1 JUMP JUMPDEST PUSH32 0xDBE42D02A4E07D7EEFF2874EFE172540C93B297D206F6D691C9782A257323E32 DUP2 PUSH1 0x40 MLOAD PUSH2 0x3C8 SWAP2 SWAP1 PUSH2 0x971 JUMP JUMPDEST PUSH1 0x40 MLOAD DUP1 SWAP2 SUB SWAP1 LOG1 JUMPDEST POP SWAP5 SWAP4 POP POP POP POP JUMP JUMPDEST PUSH0 PUSH1 0x3 SLOAD SWAP1 POP PUSH0 DUP2 GT PUSH2 0x422 JUMPI PUSH1 0x40 MLOAD PUSH32 0x8C379A000000000000000000000000000000000000000000000000000000000 DUP2 MSTORE PUSH1 0x4 ADD PUSH2 0x419 SWAP1 PUSH2 0xC31 JUMP JUMPDEST PUSH1 0x40 MLOAD DUP1 SWAP2 SUB SWAP1 REVERT JUMPDEST PUSH1 0x41 DUP2 PUSH2 0x42F SWAP2 SWAP1 PUSH2 0xC4F JUMP JUMPDEST DUP3 MLOAD LT ISZERO PUSH2 0x472 JUMPI PUSH1 0x40 MLOAD PUSH32 0x8C379A000000000000000000000000000000000000000000000000000000000 DUP2 MSTORE PUSH1 0x4 ADD PUSH2 0x469 SWAP1 PUSH2 0xCDA JUMP JUMPDEST PUSH1 0x40 MLOAD DUP1 SWAP2 SUB SWAP1 REVERT JUMPDEST PUSH0 DUP1 DUP1 PUSH0 DUP1 PUSH0 JUMPDEST DUP7 DUP2 LT ISZERO PUSH2 0x5DB JUMPI PUSH2 0x48B DUP9 DUP3 PUSH2 0x5E6 JUMP JUMPDEST DUP1 SWAP6 POP DUP2 SWAP7 POP DUP3 SWAP5 POP POP POP POP PUSH1 0x1 DUP10 PUSH1 0x40 MLOAD PUSH1 0x20 ADD PUSH2 0x4AA SWAP2 SWAP1 PUSH2 0xD6C JUMP JUMPDEST PUSH1 0x40 MLOAD PUSH1 0x20 DUP2 DUP4 SUB SUB DUP2 MSTORE SWAP1 PUSH1 0x40 MSTORE DUP1 MLOAD SWAP1 PUSH1 0x20 ADD KECCAK256 DUP4 DUP7 DUP7 PUSH1 0x40 MLOAD PUSH0 DUP2 MSTORE PUSH1 0x20 ADD PUSH1 0x40 MSTORE PUSH1 0x40 MLOAD PUSH2 0x4DF SWAP5 SWAP4 SWAP3 SWAP2 SWAP1 PUSH2 0xDAC JUMP JUMPDEST PUSH1 0x20 PUSH1 0x40 MLOAD PUSH1 0x20 DUP2 SUB SWAP1 DUP1 DUP5 SUB SWAP1 DUP6 GAS STATICCALL ISZERO DUP1 ISZERO PUSH2 0x4FF JUMPI RETURNDATASIZE PUSH0 DUP1 RETURNDATACOPY RETURNDATASIZE PUSH0 REVERT JUMPDEST POP POP POP PUSH1 0x20 PUSH1 0x40 MLOAD SUB MLOAD SWAP5 POP DUP6 PUSH20 0xFFFFFFFFFFFFFFFFFFFFFFFFFFFFFFFFFFFFFFFF AND DUP6 PUSH20 0xFFFFFFFFFFFFFFFFFFFFFFFFFFFFFFFFFFFFFFFF AND GT DUP1 ISZERO PUSH2 0x58C JUMPI POP PUSH1 0x1 PUSH0 DUP7 PUSH20 0xFFFFFFFFFFFFFFFFFFFFFFFFFFFFFFFFFFFFFFFF AND PUSH20 0xFFFFFFFFFFFFFFFFFFFFFFFFFFFFFFFFFFFFFFFF AND DUP2 MSTORE PUSH1 0x20 ADD SWAP1 DUP2 MSTORE PUSH1 0x20 ADD PUSH0 KECCAK256 PUSH0 SWAP1 SLOAD SWAP1 PUSH2 0x100 EXP SWAP1 DIV PUSH1 0xFF AND JUMPDEST PUSH2 0x5CB JUMPI PUSH1 0x40 MLOAD PUSH32 0x8C379A000000000000000000000000000000000000000000000000000000000 DUP2 MSTORE PUSH1 0x4 ADD PUSH2 0x5C2 SWAP1 PUSH2 0xE39 JUMP JUMPDEST PUSH1 0x40 MLOAD DUP1 SWAP2 SUB SWAP1 REVERT JUMPDEST DUP5 SWAP6 POP DUP1 DUP1 PUSH1 0x1 ADD SWAP2 POP POP PUSH2 0x479 JUMP JUMPDEST POP POP POP POP POP POP POP POP POP JUMP JUMPDEST PUSH0 DUP1 PUSH0 DUP4 PUSH1 0x41 MUL PUSH1 0x20 DUP2 ADD DUP7 ADD MLOAD SWAP3 POP PUSH1 0x40 DUP2 ADD DUP7 ADD MLOAD SWAP2 POP PUSH1 0xFF PUSH1 0x41 DUP3 ADD DUP8 ADD MLOAD AND SWAP4 POP POP SWAP3 POP SWAP3 POP SWAP3 JUMP JUMPDEST PUSH0 PUSH1 0x40 MLOAD SWAP1 POP SWAP1 JUMP JUMPDEST PUSH0 DUP1 REVERT JUMPDEST PUSH0 DUP1 REVERT JUMPDEST PUSH0 DUP2 SWAP1 POP SWAP2 SWAP1 POP JUMP JUMPDEST PUSH2 0x636 DUP2 PUSH2 0x624 JUMP JUMPDEST DUP2 EQ PUSH2 0x640 JUMPI PUSH0 DUP1 REVERT JUMPDEST POP JUMP JUMPDEST PUSH0 DUP2 CALLDATALOAD SWAP1 POP PUSH2 0x651 DUP2 PUSH2 0x62D JUMP JUMPDEST SWAP3 SWAP2 POP POP JUMP JUMPDEST PUSH0 PUSH1 0x20 DUP3 DUP5 SUB SLT ISZERO PUSH2 0x66C JUMPI PUSH2 0x66B PUSH2 0x61C JUMP JUMPDEST JUMPDEST PUSH0 PUSH2 0x679 DUP5 DUP3 DUP6 ADD PUSH2 0x643 JUMP JUMPDEST SWAP2 POP POP SWAP3 SWAP2 POP POP JUMP JUMPDEST PUSH0 PUSH20 0xFFFFFFFFFFFFFFFFFFFFFFFFFFFFFFFFFFFFFFFF DUP3 AND SWAP1 POP SWAP2 SWAP1 POP JUMP JUMPDEST PUSH0 PUSH2 0x6AB DUP3 PUSH2 0x682 JUMP JUMPDEST SWAP1 POP SWAP2 SWAP1 POP JUMP JUMPDEST PUSH2 0x6BB DUP2 PUSH2 0x6A1 JUMP JUMPDEST DUP3 MSTORE POP POP JUMP JUMPDEST PUSH0 PUSH1 0x20 DUP3 ADD SWAP1 POP PUSH2 0x6D4 PUSH0 DUP4 ADD DUP5 PUSH2 0x6B2 JUMP JUMPDEST SWAP3 SWAP2 POP POP JUMP JUMPDEST PUSH2 0x6E3 DUP2 PUSH2 0x624 JUMP JUMPDEST DUP3 MSTORE POP POP JUMP JUMPDEST PUSH0 PUSH1 0x20 DUP3 ADD SWAP1 POP PUSH2 0x6FC PUSH0 DUP4 ADD DUP5 PUSH2 0x6DA JUMP JUMPDEST SWAP3 SWAP2 POP POP JUMP JUMPDEST PUSH2 0x70B DUP2 PUSH2 0x6A1 JUMP JUMPDEST DUP2 EQ PUSH2 0x715 JUMPI PUSH0 DUP1 REVERT JUMPDEST POP JUMP JUMPDEST PUSH0 DUP2 CALLDATALOAD SWAP1 POP PUSH2 0x726 DUP2 PUSH2 0x702 JUMP JUMPDEST SWAP3 SWAP2 POP POP JUMP JUMPDEST PUSH0 PUSH1 0x20 DUP3 DUP5 SUB SLT ISZERO PUSH2 0x741 JUMPI PUSH2 0x740 PUSH2 0x61C JUMP JUMPDEST JUMPDEST PUSH0 PUSH2 0x74E DUP5 DUP3 DUP6 ADD PUSH2 0x718 JUMP JUMPDEST SWAP2 POP POP SWAP3 SWAP2 POP POP JUMP JUMPDEST PUSH0 DUP2 ISZERO ISZERO SWAP1 POP SWAP2 SWAP1 POP JUMP JUMPDEST PUSH2 0x76B DUP2 PUSH2 0x757 JUMP JUMPDEST DUP3 MSTORE POP POP JUMP JUMPDEST PUSH0 PUSH1 0x20 DUP3 ADD SWAP1 POP PUSH2 0x784 PUSH0 DUP4 ADD DUP5 PUSH2 0x762 JUMP JUMPDEST SWAP3 SWAP2 POP POP JUMP JUMPDEST PUSH0 DUP1 REVERT JUMPDEST PUSH0 DUP1 REVERT JUMPDEST PUSH0 PUSH1 0x1F NOT PUSH1 0x1F DUP4 ADD AND SWAP1 POP SWAP2 SWAP1 POP JUMP JUMPDEST PUSH32 0x4E487B7100000000000000000000000000000000000000000000000000000000 PUSH0 MSTORE PUSH1 0x41 PUSH1 0x4 MSTORE PUSH1 0x24 PUSH0 REVERT JUMPDEST PUSH2 0x7D8 DUP3 PUSH2 0x792 JUMP JUMPDEST DUP2 ADD DUP2 DUP2 LT PUSH8 0xFFFFFFFFFFFFFFFF DUP3 GT OR ISZERO PUSH2 0x7F7 JUMPI PUSH2 0x7F6 PUSH2 0x7A2 JUMP JUMPDEST JUMPDEST DUP1 PUSH1 0x40 MSTORE POP POP POP JUMP JUMPDEST PUSH0 PUSH2 0x809 PUSH2 0x613 JUMP JUMPDEST SWAP1 POP PUSH2 0x815 DUP3 DUP3 PUSH2 0x7CF JUMP JUMPDEST SWAP2 SWAP1 POP JUMP JUMPDEST PUSH0 PUSH8 0xFFFFFFFFFFFFFFFF DUP3 GT ISZERO PUSH2 0x834 JUMPI PUSH2 0x833 PUSH2 0x7A2 JUMP JUMPDEST JUMPDEST PUSH2 0x83D DUP3 PUSH2 0x792 JUMP JUMPDEST SWAP1 POP PUSH1 0x20 DUP2 ADD SWAP1 POP SWAP2 SWAP1 POP JUMP JUMPDEST DUP3 DUP2 DUP4 CALLDATACOPY PUSH0 DUP4 DUP4 ADD MSTORE POP POP POP JUMP JUMPDEST PUSH0 PUSH2 0x86A PUSH2 0x865 DUP5 PUSH2 0x81A JUMP JUMPDEST PUSH2 0x800 JUMP JUMPDEST SWAP1 POP DUP3 DUP2 MSTORE PUSH1 0x20 DUP2 ADD DUP5 DUP5 DUP5 ADD GT ISZERO PUSH2 0x886 JUMPI PUSH2 0x885 PUSH2 0x78E JUMP JUMPDEST JUMPDEST PUSH2 0x891 DUP5 DUP3 DUP6 PUSH2 0x84A JUMP JUMPDEST POP SWAP4 SWAP3 POP POP POP JUMP JUMPDEST PUSH0 DUP3 PUSH1 0x1F DUP4 ADD SLT PUSH2 0x8AD JUMPI PUSH2 0x8AC PUSH2 0x78A JUMP JUMPDEST JUMPDEST DUP2 CALLDATALOAD PUSH2 0x8BD DUP5 DUP3 PUSH1 0x20 DUP7 ADD PUSH2 0x858 JUMP JUMPDEST SWAP2 POP POP SWAP3 SWAP2 POP POP JUMP JUMPDEST PUSH0 DUP1 PUSH0 DUP1 PUSH0 PUSH1 0xA0 DUP7 DUP9 SUB SLT ISZERO PUSH2 0x8DF JUMPI PUSH2 0x8DE PUSH2 0x61C JUMP JUMPDEST JUMPDEST PUSH0 PUSH2 0x8EC DUP9 DUP3 DUP10 ADD PUSH2 0x718 JUMP JUMPDEST SWAP6 POP POP PUSH1 0x20 PUSH2 0x8FD DUP9 DUP3 DUP10 ADD PUSH2 0x643 JUMP JUMPDEST SWAP5 POP POP PUSH1 0x40 DUP7 ADD CALLDATALOAD PUSH8 0xFFFFFFFFFFFFFFFF DUP2 GT ISZERO PUSH2 0x91E JUMPI PUSH2 0x91D PUSH2 0x620 JUMP JUMPDEST JUMPDEST PUSH2 0x92A DUP9 DUP3 DUP10 ADD PUSH2 0x899 JUMP JUMPDEST SWAP4 POP POP PUSH1 0x60 PUSH2 0x93B DUP9 DUP3 DUP10 ADD PUSH2 0x643 JUMP JUMPDEST SWAP3 POP POP PUSH1 0x80 PUSH2 0x94C DUP9 DUP3 DUP10 ADD PUSH2 0x643 JUMP JUMPDEST SWAP2 POP POP SWAP3 SWAP6 POP SWAP3 SWAP6 SWAP1 SWAP4 POP JUMP JUMPDEST PUSH0 DUP2 SWAP1 POP SWAP2 SWAP1 POP JUMP JUMPDEST PUSH2 0x96B DUP2 PUSH2 0x959 JUMP JUMPDEST DUP3 MSTORE POP POP JUMP JUMPDEST PUSH0 PUSH1 0x20 DUP3 ADD SWAP1 POP PUSH2 0x984 PUSH0 DUP4 ADD DUP5 PUSH2 0x962 JUMP JUMPDEST SWAP3 SWAP2 POP POP JUMP JUMPDEST PUSH0 DUP1 PUSH0 DUP1 PUSH1 0x80 DUP6 DUP8 SUB SLT ISZERO PUSH2 0x9A2 JUMPI PUSH2 0x9A1 PUSH2 0x61C JUMP JUMPDEST JUMPDEST PUSH0 PUSH2 0x9AF DUP8 DUP3 DUP9 ADD PUSH2 0x718 JUMP JUMPDEST SWAP5 POP POP PUSH1 0x20 PUSH2 0x9C0 DUP8 DUP3 DUP9 ADD PUSH2 0x643 JUMP JUMPDEST SWAP4 POP POP PUSH1 0x40 DUP6 ADD CALLDATALOAD PUSH8 0xFFFFFFFFFFFFFFFF DUP2 GT ISZERO PUSH2 0x9E1 JUMPI PUSH2 0x9E0 PUSH2 0x620 JUMP JUMPDEST JUMPDEST PUSH2 0x9ED DUP8 DUP3 DUP9 ADD PUSH2 0x899 JUMP JUMPDEST SWAP3 POP POP PUSH1 0x60 DUP6 ADD CALLDATALOAD PUSH8 0xFFFFFFFFFFFFFFFF DUP2 GT ISZERO PUSH2 0xA0E JUMPI PUSH2 0xA0D PUSH2 0x620 JUMP JUMPDEST JUMPDEST PUSH2 0xA1A DUP8 DUP3 DUP9 ADD PUSH2 0x899 JUMP JUMPDEST SWAP2 POP POP SWAP3 SWAP6 SWAP2 SWAP5 POP SWAP3 POP JUMP JUMPDEST PUSH2 0xA2F DUP2 PUSH2 0x959 JUMP JUMPDEST DUP2 EQ PUSH2 0xA39 JUMPI PUSH0 DUP1 REVERT JUMPDEST POP JUMP JUMPDEST PUSH0 DUP2 CALLDATALOAD SWAP1 POP PUSH2 0xA4A DUP2 PUSH2 0xA26 JUMP JUMPDEST SWAP3 SWAP2 POP POP JUMP JUMPDEST PUSH0 DUP1 PUSH1 0x40 DUP4 DUP6 SUB SLT ISZERO PUSH2 0xA66 JUMPI PUSH2 0xA65 PUSH2 0x61C JUMP JUMPDEST JUMPDEST PUSH0 PUSH2 0xA73 DUP6 DUP3 DUP7 ADD PUSH2 0xA3C JUMP JUMPDEST SWAP3 POP POP PUSH1 0x20 DUP4 ADD CALLDATALOAD PUSH8 0xFFFFFFFFFFFFFFFF DUP2 GT ISZERO PUSH2 0xA94 JUMPI PUSH2 0xA93 PUSH2 0x620 JUMP JUMPDEST JUMPDEST PUSH2 0xAA0 DUP6 DUP3 DUP7 ADD PUSH2 0x899 JUMP JUMPDEST SWAP2 POP POP SWAP3 POP SWAP3 SWAP1 POP JUMP JUMPDEST PUSH0 PUSH1 0xA0 DUP3 ADD SWAP1 POP PUSH2 0xABD PUSH0 DUP4 ADD DUP9 PUSH2 0x6B2 JUMP JUMPDEST PUSH2 0xACA PUSH1 0x20 DUP4 ADD DUP8 PUSH2 0x6DA JUMP JUMPDEST PUSH2 0xAD7 PUSH1 0x40 DUP4 ADD DUP7 PUSH2 0x962 JUMP JUMPDEST PUSH2 0xAE4 PUSH1 0x60 DUP4 ADD DUP6 PUSH2 0x6DA JUMP JUMPDEST PUSH2 0xAF1 PUSH1 0x80 DUP4 ADD DUP5 PUSH2 0x6DA JUMP JUMPDEST SWAP7 SWAP6 POP POP POP POP POP POP JUMP JUMPDEST PUSH32 0x4E487B7100000000000000000000000000000000000000000000000000000000 PUSH0 MSTORE PUSH1 0x11 PUSH1 0x4 MSTORE PUSH1 0x24 PUSH0 REVERT JUMPDEST PUSH0 PUSH2 0xB32 DUP3 PUSH2 0x624 JUMP JUMPDEST SWAP2 POP PUSH32 0xFFFFFFFFFFFFFFFFFFFFFFFFFFFFFFFFFFFFFFFFFFFFFFFFFFFFFFFFFFFFFFFF DUP3 SUB PUSH2 0xB64 JUMPI PUSH2 0xB63 PUSH2 0xAFB JUMP JUMPDEST JUMPDEST PUSH1 0x1 DUP3 ADD SWAP1 POP SWAP2 SWAP1 POP JUMP JUMPDEST PUSH0 DUP2 MLOAD SWAP1 POP SWAP2 SWAP1 POP JUMP JUMPDEST PUSH0 DUP2 SWAP1 POP SWAP3 SWAP2 POP POP JUMP JUMPDEST DUP3 DUP2 DUP4 MCOPY PUSH0 DUP4 DUP4 ADD MSTORE POP POP POP JUMP JUMPDEST PUSH0 PUSH2 0xB9B DUP3 PUSH2 0xB6F JUMP JUMPDEST PUSH2 0xBA5 DUP2 DUP6 PUSH2 0xB79 JUMP JUMPDEST SWAP4 POP PUSH2 0xBB5 DUP2 DUP6 PUSH1 0x20 DUP7 ADD PUSH2 0xB83 JUMP JUMPDEST DUP1 DUP5 ADD SWAP2 POP POP SWAP3 SWAP2 POP POP JUMP JUMPDEST PUSH0 PUSH2 0xBCC DUP3 DUP5 PUSH2 0xB91 JUMP JUMPDEST SWAP2 POP DUP2 SWAP1 POP SWAP3 SWAP2 POP POP JUMP JUMPDEST PUSH0 DUP3 DUP3 MSTORE PUSH1 0x20 DUP3 ADD SWAP1 POP SWAP3 SWAP2 POP POP JUMP JUMPDEST PUSH32 0x4451353030350000000000000000000000000000000000000000000000000000 PUSH0 DUP3 ADD MSTORE POP JUMP JUMPDEST PUSH0 PUSH2 0xC1B PUSH1 0x6 DUP4 PUSH2 0xBD7 JUMP JUMPDEST SWAP2 POP PUSH2 0xC26 DUP3 PUSH2 0xBE7 JUMP JUMPDEST PUSH1 0x20 DUP3 ADD SWAP1 POP SWAP2 SWAP1 POP JUMP JUMPDEST PUSH0 PUSH1 0x20 DUP3 ADD SWAP1 POP DUP2 DUP2 SUB PUSH0 DUP4 ADD MSTORE PUSH2 0xC48 DUP2 PUSH2 0xC0F JUMP JUMPDEST SWAP1 POP SWAP2 SWAP1 POP JUMP JUMPDEST PUSH0 PUSH2 0xC59 DUP3 PUSH2 0x624 JUMP JUMPDEST SWAP2 POP PUSH2 0xC64 DUP4 PUSH2 0x624 JUMP JUMPDEST SWAP3 POP DUP3 DUP3 MUL PUSH2 0xC72 DUP2 PUSH2 0x624 JUMP JUMPDEST SWAP2 POP DUP3 DUP3 DIV DUP5 EQ DUP4 ISZERO OR PUSH2 0xC89 JUMPI PUSH2 0xC88 PUSH2 0xAFB JUMP JUMPDEST JUMPDEST POP SWAP3 SWAP2 POP POP JUMP JUMPDEST PUSH32 0x4451353030360000000000000000000000000000000000000000000000000000 PUSH0 DUP3 ADD MSTORE POP JUMP JUMPDEST PUSH0 PUSH2 0xCC4 PUSH1 0x6 DUP4 PUSH2 0xBD7 JUMP JUMPDEST SWAP2 POP PUSH2 0xCCF DUP3 PUSH2 0xC90 JUMP JUMPDEST PUSH1 0x20 DUP3 ADD SWAP1 POP SWAP2 SWAP1 POP JUMP JUMPDEST PUSH0 PUSH1 0x20 DUP3 ADD SWAP1 POP DUP2 DUP2 SUB PUSH0 DUP4 ADD MSTORE PUSH2 0xCF1 DUP2 PUSH2 0xCB8 JUMP JUMPDEST SWAP1 POP SWAP2 SWAP1 POP JUMP JUMPDEST PUSH0 DUP2 SWAP1 POP SWAP3 SWAP2 POP POP JUMP JUMPDEST PUSH32 0x19457468657265756D205369676E6564204D6573736167653A0A333200000000 PUSH0 DUP3 ADD MSTORE POP JUMP JUMPDEST PUSH0 PUSH2 0xD36 PUSH1 0x1C DUP4 PUSH2 0xCF8 JUMP JUMPDEST SWAP2 POP PUSH2 0xD41 DUP3 PUSH2 0xD02 JUMP JUMPDEST PUSH1 0x1C DUP3 ADD SWAP1 POP SWAP2 SWAP1 POP JUMP JUMPDEST PUSH0 DUP2 SWAP1 POP SWAP2 SWAP1 POP JUMP JUMPDEST PUSH2 0xD66 PUSH2 0xD61 DUP3 PUSH2 0x959 JUMP JUMPDEST PUSH2 0xD4C JUMP JUMPDEST DUP3 MSTORE POP POP JUMP JUMPDEST PUSH0 PUSH2 0xD76 DUP3 PUSH2 0xD2A JUMP JUMPDEST SWAP2 POP PUSH2 0xD82 DUP3 DUP5 PUSH2 0xD55 JUMP JUMPDEST PUSH1 0x20 DUP3 ADD SWAP2 POP DUP2 SWAP1 POP SWAP3 SWAP2 POP POP JUMP JUMPDEST PUSH0 PUSH1 0xFF DUP3 AND SWAP1 POP SWAP2 SWAP1 POP JUMP JUMPDEST PUSH2 0xDA6 DUP2 PUSH2 0xD91 JUMP JUMPDEST DUP3 MSTORE POP POP JUMP JUMPDEST PUSH0 PUSH1 0x80 DUP3 ADD SWAP1 POP PUSH2 0xDBF PUSH0 DUP4 ADD DUP8 PUSH2 0x962 JUMP JUMPDEST PUSH2 0xDCC PUSH1 0x20 DUP4 ADD DUP7 PUSH2 0xD9D JUMP JUMPDEST PUSH2 0xDD9 PUSH1 0x40 DUP4 ADD DUP6 PUSH2 0x962 JUMP JUMPDEST PUSH2 0xDE6 PUSH1 0x60 DUP4 ADD DUP5 PUSH2 0x962 JUMP JUMPDEST SWAP6 SWAP5 POP POP POP POP POP JUMP JUMPDEST PUSH32 0x4451353030370000000000000000000000000000000000000000000000000000 PUSH0 DUP3 ADD MSTORE POP JUMP JUMPDEST PUSH0 PUSH2 0xE23 PUSH1 0x6 DUP4 PUSH2 0xBD7 JUMP JUMPDEST SWAP2 POP PUSH2 0xE2E DUP3 PUSH2 0xDEF JUMP JUMPDEST PUSH1 0x20 DUP3 ADD SWAP1 POP SWAP2 SWAP1 POP JUMP JUMPDEST PUSH0 PUSH1 0x20 DUP3 ADD SWAP1 POP DUP2 DUP2 SUB PUSH0 DUP4 ADD MSTORE PUSH2 0xE50 DUP2 PUSH2 0xE17 JUMP JUMPDEST SWAP1 POP SWAP2 SWAP1 POP JUMP INVALID LOG2 PUSH5 0x6970667358 0x22 SLT KECCAK256 0xB3 SWAP1 0x4C 0xFB SGT 0x2A 0xB2 0xD 0xD4 0x21 DUP16 PUSH12 0x98D5856667E6F829211B28E5 0xD5 0xAB PUSH17 0xEAFF1115FE64736F6C634300081A003300 "
				},
				"gasEstimates": {
					"creation": {
						"codeDepositCost": "745000",
						"executionCost": "infinite",
						"totalCost": "infinite"
					},
					"external": {
						"checkSignatures(bytes32,bytes)": "infinite",
						"encodeTransactionData(address,uint256,bytes,uint256,uint256)": "infinite",
						"execTransaction(address,uint256,bytes,bytes)": "infinite",
						"isOwner(address)": "2878",
						"nonce()": "2447",
						"ownerCount()": "2448",
						"owners(uint256)": "4944",
						"threshold()": "2492"
					},
					"internal": {
						"_setupOwners(address[] memory,uint256)": "infinite",
						"signatureSplit(bytes memory,uint256)": "infinite"
					}
				},
				"methodIdentifiers": {
					"checkSignatures(bytes32,bytes)": "ed516d51",
					"encodeTransactionData(address,uint256,bytes,uint256,uint256)": "a67dd509",
					"execTransaction(address,uint256,bytes,bytes)": "d01aa318",
					"isOwner(address)": "2f54bf6e",
					"nonce()": "affed0e0",
					"ownerCount()": "0db02622",
					"owners(uint256)": "025e7c27",
					"threshold()": "42cde4e8"
				}
			},
			"storageLayout": {
				"storage": [
					{
						"astId": 4,
						"contract": "contracts/weekly-tasks/level2/t2/MultisigWallet.sol:MultisigWallet",
						"label": "owners",
						"offset": 0,
						"slot": "0",
						"type": "t_array(t_address)dyn_storage"
					},
					{
						"astId": 8,
						"contract": "contracts/weekly-tasks/level2/t2/MultisigWallet.sol:MultisigWallet",
						"label": "isOwner",
						"offset": 0,
						"slot": "1",
						"type": "t_mapping(t_address,t_bool)"
					},
					{
						"astId": 10,
						"contract": "contracts/weekly-tasks/level2/t2/MultisigWallet.sol:MultisigWallet",
						"label": "ownerCount",
						"offset": 0,
						"slot": "2",
						"type": "t_uint256"
					},
					{
						"astId": 12,
						"contract": "contracts/weekly-tasks/level2/t2/MultisigWallet.sol:MultisigWallet",
						"label": "threshold",
						"offset": 0,
						"slot": "3",
						"type": "t_uint256"
					},
					{
						"astId": 14,
						"contract": "contracts/weekly-tasks/level2/t2/MultisigWallet.sol:MultisigWallet",
						"label": "nonce",
						"offset": 0,
						"slot": "4",
						"type": "t_uint256"
					}
				],
				"types": {
					"t_address": {
						"encoding": "inplace",
						"label": "address",
						"numberOfBytes": "20"
					},
					"t_array(t_address)dyn_storage": {
						"base": "t_address",
						"encoding": "dynamic_array",
						"label": "address[]",
						"numberOfBytes": "32"
					},
					"t_bool": {
						"encoding": "inplace",
						"label": "bool",
						"numberOfBytes": "1"
					},
					"t_mapping(t_address,t_bool)": {
						"encoding": "mapping",
						"key": "t_address",
						"label": "mapping(address => bool)",
						"numberOfBytes": "32",
						"value": "t_bool"
					},
					"t_uint256": {
						"encoding": "inplace",
						"label": "uint256",
						"numberOfBytes": "32"
					}
				}
			},
			"userdoc": {
				"kind": "user",
				"methods": {},
				"version": 1
			}
		}
	}
}